:100000000C94B1050C94D9050C94D9050C94D90520
:100010000C94D9050C94D9050C94D9050C94D905E8
:100020000C94D9050C94D9050C94B0070C942208B3
:100030000C94D9050C94D9050C94D9050C94D905C8
:100040000C94D9050C94D9050C94D9050C94D905B8
:100050000C94D9050C94D9050C94D9050C94E60B95
:100060000C94D9050C94D9050C94D9050C94D90598
:100070000C94D9050C94D9050C94D9050C94D90588
:100080000C94D9050C94D9050C94D9050C94D90578
:100090000C94D9050C94D9050C94D9050C94D90568
:1000A0000C94D9050C94D9050C94D905F0F89C8EC4
:1000B0008783878E9CF8F00000FEFF030303030391
:1000C000070EFCF80000FEFF0303030303070EFC0A
:1000D000F80000FFFF00000000000000FFFF00002C
:1000E000FEFF8383838383C7EE7C380000F8FC0E19
:1000F00007030303070EFCF800003F7FE0C0808089
:10010000C0E07F3FFFFF01010101010101FFFF008E
:1001100000FFFF0C0C0C0C1C3E77E3C100007FFFBE
:10012000C0C0C0C0C0E0703F1F00001F3F70E0C0F3
:10013000C0C0E0703F1F00007FFFC1C1C1C1C1E36B
:10014000773E1C00001F3F70E0C0C0C0E0703F1F42
:10015000000000000001FFFF01000000D5F08D1439
:10016000A1C881CFD9F1AF20000808E0B0D0F0F0ED
:10017000F0F0E0E0F0F0F0F0D0B0E01F608F7087BA
:1001800038435C5C433887708F601FE0B0D0F0F07C
:10019000F0F0E0C0B0D8F8F8F8F0C000F0CCFCFC0B
:1001A000FCF0000030CCFEFEFC30001F603FC0C001
:1001B0003F601F033C47F8F8473C0300077FF8F80F
:1001C0007F070000000FFEFE0F0000080820380C1B
:1001D0003C0C3C182000003C7E56D5000004183C26
:1001E000303C301C040000AB6A7E3C0000181C0C44
:1001F0001C0C1C0C1800007EFFD5000000183038C5
:100200003038303818000000ABFF7E000000380C9A
:100210007C7C0C380000003C7E5A5A1800001C30D0
:100220003E3E301C0000185A5A7E3C000000182C3C
:100230007C7C2C180000003C7E5A3C1800001834CE
:100240003E3E34180000183C5A7E3C00001010005E
:1002500000000304FBFCFCFFFCFB040300000000A7
:1002600000000000008FFFFF8F0000000000000072
:1002700000000304FBACFCFFACFB04030000000027
:1002800000000000008FFAFA8F000000000000005C
:1002900000000304FBAC54AF54FB04030000000057
:1002A00000000000008FF6F98F0000000000000041
:1002B00000000306FDAE55AE55FE0503000000002C
:1002C00000000000008FF6F98F0000000000000021
:1002D0000000073EF5AE75AE75EE3D07000000006C
:1002E00000000000018FFDFB8F01000000000000F6
:1002F00000031DEE75AE75AE75AEF51E0300000071
:100300000000000007BBFDFBBD070000000000006F
:10031000000CD45894589458945894D80C00000069
:10032000000000073BDDEBDDEB3D070000000000B7
:100330000000C4589458945894589CC4000000007D
:10034000000000073BDDEBDDEB3D07000000000097
:100350000000C04E9C589E589E588EC00000000061
:10036000000000073BDDEBDDEB3D07000000000077
:100370000000C0428E589E589E4C82C00000000073
:10038000000000073BDDEBDDEB3D07000000000057
:10039000000080840C981C981C8C048000000000D5
:1003A0000000010E77BAD7BAD77A0F01000000001B
:1003B000000000040E1E1E1E1E0E040000000000A1
:1003C0000000031DEE75AE75AEF51E0300000000C3
:1003D0000000000C0C1E1E1E1E0C0C000000000075
:1003E0000000063ADCEA5CEA5CEA3C060000000039
:1003F000000000081C0E1E1E0E1C0800000000005D
:100400000000063ADCEA5CEA5CEA3C060000000018
:10041000000000101C061E061E0C1000000000004C
:1004200000000C74B8D4B8D4B8D4780C000000081C
:10043000083C187D673F366C483C181D3F363C66CB
:100440004238103A7C68302020486C363F677D186F
:100450003C42663C363F1D183C202030687C3A10F8
:10046000380808E0180691ADA252484852A2AD9152
:100470000618E0101000000000C0F0F8FCFEFEFEC0
:10048000FEFCF8F0000000001E3FFFFFFFFFFF9F93
:100490000F0701000000F0F8FCFEFEFEFEFCF8F085
:1004A000C000000000000001070F9FFFFFFFFFFFDB
:1004B0003F1E00000010100000000000C0F068C4E3
:1004C000C444C4E8F00000000000001E37B4FEE79A
:1004D000930807010000000000F0E8C444C4C468A9
:1004E000F0C0000000000000000001070893E7FED4
:1004F000B4371E00000000080880F07C566B351DE4
:100500000E0E1D356B567CF08010100000000000B0
:1005100000000000000000000000000000000000DB
:10052000000000000000000000000080004080800B
:10053000000000000040808000008020418249507F
:10054000A18242228A0A718081221180404080006B
:100550000000408080000000008080400890002162
:10056000A2821110088192229188108000000080E0
:100570004020408000804040408080102142424125
:1005800020100811224148241222440000000000DB
:10059000000000000000000000000009629A0661EF
:1005A0009A0601629A0601629A0661000000000044
:1005B0000000000000000000000000314E823249BF
:1005C00001314E8232490101314E810000000000AC
:1005D00000000000000000000000000501718A0515
:1005E0002101728A05210902728A05080B000202A4
:1005F00002010009040000010202000005240010AD
:100600000105240101010424020605240600010756
:1006100005810310004009040100020A00000007E0
:1006200005020240000007058302400000040309A0
:100630000412010002EF0201404123368000010153
:1006400002030141726475696E6F204C4C43004196
:10065000726475626F790000000000003E5B4F5BC2
:100660003E3E6B4F6B3E1C3E7C3E1C183C7E3C1855
:100670001C577D571C1C5E7F5E1C00183C1800FF39
:10068000E7C3E7FF0018241800FFE7DBE7FF304867
:100690003A060E2629792926407F050507407F0561
:1006A000253F5A3CE73C5A7F3E1C1C08081C1C3E58
:1006B0007F14227F22145F5F005F5F06097F017F46
:1006C000006689956A606060606094A2FFA29408E9
:1006D000047E040810207E201008082A1C08081C2C
:1006E0002A08081E101010100C1E0C1E0C30383E6C
:1006F0003830060E3E0E06000000000000005F00CD
:10070000000007000700147F147F14242A7F2A1298
:10071000231308646236495620500008070300007E
:100720001C2241000041221C002A1C7F1C2A0808B0
:100730003E080800807030000808080808000060C3
:10074000600020100804023E5149453E00427F40AF
:100750000072494949462141494D331814127F100E
:1007600027454545393C4A49493141211109073658
:1007700049494936464949291E00001400000040F5
:1007800034000000081422411414141414004122EF
:10079000140802015909063E415D594E7C1211129E
:1007A0007C7F494949363E414141227F4141413E9A
:1007B0007F494949417F090909013E414151737F00
:1007C0000808087F00417F41002040413F017F0829
:1007D0001422417F404040407F021C027F7F04087A
:1007E000107F3E4141413E7F090909063E415121AA
:1007F0005E7F09192946264949493203017F0103D1
:100800003F4040403F1F2040201F3F4038403F6353
:100810001408146303047804036159494D43007FAD
:100820004141410204081020004141417F0402017E
:100830000204404040404000030708002054547820
:10084000407F284444383844444428384444287F6E
:10085000385454541800087E090218A4A49C787FC8
:100860000804047800447D40002040403D007F1093
:1008700028440000417F40007C047804787C080410
:1008800004783844444438FC1824241818242418C4
:10089000FC7C08040408485454542404043F4424B1
:1008A0003C4040207C1C2040201C3C4030403C44CC
:1008B000281028444C9090907C4464544C44000888
:1008C00036410000007700000041360800020102B6
:1008D00004023C2623263C1EA1A161123A4040207E
:1008E0007A385454555921555579412154547841F9
:1008F000215554784020545579400C1E52721239BB
:100900005555555939545454593955545458000073
:10091000457C410002457D420001457C40F0292490
:1009200029F0F0282528F07C545545002054547CAB
:10093000547C0A097F493249494932324848483291
:10094000324A4848303A4141217A3A4240207800C0
:100950009DA0A07D39444444393D4040403D3C2465
:10096000FF2424487E4943662B2FFC2F2BFF0929A7
:10097000F620C0887E090320545479410000447D4C
:10098000413048484A32384040227A007A0A0A7296
:100990007D0D19317D2629292F2826292929263040
:1009A000484D4020380808080808080808382F1063
:1009B000C8ACBA2F102834FA00007B000008142AB3
:1009C000142222142A14089500220095AA0055002A
:1009D000AAAA55AA55AA000000FF00101010FF0097
:1009E000141414FF001010FF00FF1010F010F0148A
:1009F0001414FC001414F700FF0000FF00FF14148F
:100A0000F404FC141417101F10101F101F141414DA
:100A10001F00101010F0000000001F101010101F19
:100A200010101010F010000000FF10101010101027
:100A3000101010FF10000000FF140000FF00FF0066
:100A4000001F10170000FC04F414141710171414DE
:100A5000F404F40000FF00F714141414141414F731
:100A600000F7141414171410101F101F141414F48A
:100A7000141010F010F000001F101F0000001F14D1
:100A8000000000FC140000F010F01010FF10FF1424
:100A90001414FF141010101F00000000F010FFFFCE
:100AA000FFFFFFF0F0F0F0F0FFFFFF00000000009C
:100AB000FFFF0F0F0F0F0F38444438447C2A2A3EA3
:100AC000147E02020606027E027E026355494163DD
:100AD0003844443C04407E201E2006027E020299D7
:100AE000A5E7A5991C2A492A1C4C7201724C304A70
:100AF0004D4D303048784830BC625A463D3E4949F9
:100B000049007E0101017E2A2A2A2A2A44445F44A0
:100B10004440514A444040444A51400000FF0103D0
:100B2000E080FF000008086B6B083612362436069A
:100B30000F090F06000018180000001010003040C8
:100B4000FF0101001F01011E00191D1712003C3C8E
:100B50003C3C00000000000102040810204080001E
:100B60001E1811241FBECFEFDAE0DEBFCDBF11E0AB
:100B7000A0E0B1E0E0EDF5E302C005900D92A437EE
:100B8000B107D9F726E0A4E7B1E001C01D92A23A6F
:100B9000B207E1F715E0C1EBD5E004C02197FE01F3
:100BA0000E94DB1AC03BD107C9F70E948B0F0C943F
:100BB000E61A0C940000FC0180919001811103C0A1
:100BC0008FEF9FEF08959FB7F89482E08093E9003C
:100BD0002091F20030E01216130614F421E030E008
:100BE0002115310559F0289884E680938F01809172
:100BF000F10080838091F200882319F09FBFC90122
:100C000008958BE68093E800F9CF2FB7F89483E03E
:100C10008093E9009091E800892F807295FF04C0CD
:100C20009091F20080E4891B2FBF089580914506C2
:100C300081110DC082E08093410684E080934206DA
:100C4000109244061092430681E08093450681E4A9
:100C500096E00895CF93DF931F92CDB7DEB76983F7
:100C6000DC01ED91FC910280F381E02D41E050E048
:100C7000BE016F5F7F4F09950F90DF91CF9108956F
:100C800083E08093E9008091F200882319F08AE3E1
:100C90008093E80008950E94050690E00895CF93A0
:100CA000DF931F92CDB7DEB7FC018485958597FD54
:100CB00005C02FEF3FEF358724870BC0CE0101968B
:100CC0000E94DB05019719F4898190E002C08FEF43
:100CD0009FEF0F90DF91CF9108950F931F93CF93C4
:100CE000DF931F92CDB7DEB78C01FC01848595851B
:100CF00097FF0EC0CE0101960E94DB05019719F403
:100D0000298130E002C02FEF3FEFF80135872487BB
:100D1000F801848595850F90DF91CF911F910F91F8
:100D20000895FC018485958597FD0BC09FB7F894C5
:100D300082E08093E9008091F2009FBF90E00196ED
:100D400008959FB7F89482E08093E9008091F200C3
:100D50009FBF90E008958F929F92AF92BF92CF92E3
:100D6000DF92EF92FF920F931F93CF93DF935C017B
:100D70006B017A0180911501882309F45BC0809191
:100D80009001882309F456C080918E0180FF05C030
:100D90008091E00082608093E000E70110E00AEFBC
:100DA00083E0882E9AE3992E2097D9F10E940506B8
:100DB00081110AC0015009F43DC061E070E080E09B
:100DC00090E00E94AC0BF0CF282F30E0C217D30781
:100DD0000CF48C2F4FB7F8948092E9009091E800C2
:100DE00095FF1DC0282F30E0C21BD30BF601982FB2
:100DF000915020F081918093F100FACFC20ED31E62
:100E0000112319F09092E80009C08091E80085FD57
:100E100006C09092E80011E0209709F010E04FBF63
:100E2000C3CF1111C3CF5D9884E6809340061E1492
:100E30001F0444F081E090E0F5019383828380E019
:100E400090E001C0C701DF91CF911F910F91FF90FA
:100E5000EF90DF90CF90BF90AF909F908F900895CC
:100E6000DF92EF92FF920F931F93CF93DF93D82ED1
:100E70008A017B01E40EF51EEB01CE15DF0571F052
:100E8000D7FE03C0FE01849101C088810E94500FEB
:100E900021968111F2CF8FEF9FEF01C0C801DF9142
:100EA000CF911F910F91FF90EF90DF9008950F93D6
:100EB0001F93CF93DF931F92CDB7DEB782E0898374
:100EC00042E450E06BEE75E080E80E9430070E943B
:100ED0001606DC0112960D911C9113970115110550
:100EE00069F0D801ED91FC910280F381E02DBE0103
:100EF0006F5F7F4FC801099597FF07C089810F90E9
:100F0000DF91CF911F910F910895F8010085118510
:100F1000E5CF80E0E1E9F1E081118FEF00248193DA
:100F20008193819381930394D1F70895209133069F
:100F3000282329F490913206982381E009F480E077
:100F40000895E1E9F1E0A0E0B8E000800EBC811175
:100F5000012C1197A0FDFDCF0192B9F70DB40895B2
:100F60001F920F920FB60F9211248F939F9380912F
:100F7000E1009091E100937F9093E10083FF0FC027
:100F80001092E90091E09093EB001092EC0092E354
:100F90009093ED001092900198E09093F00082FF02
:100FA00020C093E09093E9009091F200992319F00A
:100FB0009AE39093E80090914006992339F090913C
:100FC0004006915090934006992389F190918F01AA
:100FD000992339F090918F01915090938F0199232B
:100FE00041F184FF10C08091E2008E7E8160809389
:100FF000E2008091E1008F7E8093E10080918E017C
:101000008E7E806111C080FF16C08091E2008E7ECE
:1010100080618093E2008091E1008E7E8093E10008
:1010200080918E018E7E816080938E0104C05D9AD6
:10103000CDCF289AD6CF9F918F910F900FBE0F9052
:101040001F9018951F920F920FB60F921124CF92F6
:10105000DF92EF92FF920F931F932F933F934F9343
:101060005F936F937F938F939F93AF93BF93EF9310
:10107000FF93CF93DF93CDB7DEB76C97DEBFCDBFC5
:101080001092E9008091E80083FFEDC168E0CE0195
:1010900045960E947E0F82EF8093E8008D8987FF3E
:1010A00005C09091E80090FFFCCF03C09EEF9093A5
:1010B000E800982F907609F0C6C09E892F89188D78
:1010C00091110CC0803829F480918D018093F1003A
:1010D00002C01092F1001092F10048C1422F50E07E
:1010E000512B913051F4811141C14130510509F02A
:1010F0003DC180918D018D7F0BC0933061F48111D2
:1011000035C14130510509F031C180918D018260B6
:1011100080938D012BC1953041F48091E80080FFD0
:10112000FCCF20682093E30021C1963009F05FC016
:10113000EB8CFC8C1092E90010928B0110928A01CA
:10114000123091F510928901109288010E94570780
:1011500099E0BE016F5F7F4FDB01E92F1D92EA9599
:10116000E9F799831A8391E09E8390EA98879AEF32
:10117000998720918A0130918B01275F3F4F3C83F3
:101180002B838D831092E90010928B0110928A01BB
:10119000F0928901E092880149E050E080E00E94ED
:1011A00030070E945707E2C0F0928901E09288015F
:1011B0000E941606DC011296ED90FC901397E11444
:1011C000F10409F4C0C0D701ED91FC910480F581D0
:1011D000E02DBE016B5E7F4FC7010995009719F0A6
:1011E0000CF0C4C0C7C0F701E084F184E8CF9730A9
:1011F00009F4C0C0983021F481E08093F100B6C0BA
:10120000993009F0B3C0837009F0B4C0E4E3F1E0B1
:1012100081E021E036E39081992361F08093E90039
:101220002093EB0091919093EC003093ED008F5F51
:10123000873089F78EE78093EA001092EA008F8961
:101240008093900193C08B8D9C8D1092E900109239
:101250008B0110928A019093890180938801898D76
:10126000811156C08E899D89913A59F4813209F0D5
:1012700081C047E050E06EE071E080E00E943007FE
:1012800075C0913209F076C0833289F4888D90E080
:10129000982F88272F89822BA0E0B0E080930A0145
:1012A00090930B01A0930C01B0930D015FC08032AD
:1012B00069F48091E80082FFFCCF67E08EE091E066
:1012C0000E947E0F8BEF8093E80006C0823209F007
:1012D0004DC08F898093150180918C01882319F06E
:1012E000EEEFFAE002C0E0E0F8E080910E019091AC
:1012F0000F01A0911001B0911101803B9440A10514
:10130000B10509F07BC08091150180FF93C076C0C4
:101310000E941606DC0112960D911C91139701157F
:10132000110541F1D801ED91FC910190F081E02D82
:10133000BE016B5E7F4FC8010995811117C0F8018E
:1013400000851185ECCF113009F44EC0133091F4B3
:101350008F89882309F445C0823081F440E867E032
:101360008FE496E00E94E117882321F08EEF8093AE
:10137000E80079C081E28093EB0075C0813029F4E8
:1013800040E86BE083E496E0EDCF833099F70E946C
:101390001606DC011296ED90FC9013978E010F5FFC
:1013A0001F4F6801E114F10479F0D701ED91FC9130
:1013B0000680F781E02DB801C7010995080F111DBE
:1013C000F701E084F184EECFD8011C92F601019080
:1013D0000020E9F73197BF016C197D0940E0C60193
:1013E000C1CF6DE276E002C061E376E06115710580
:1013F00009F2FB01449150E080E840CF0FB6F89429
:10140000A8958091600088618093600010926000D0
:101410000FBEA895EE3F2AE0F20739F08091FE0A50
:101420009091FF0A91838083A1CF1092FF0A1092BE
:10143000FE0A9CCFEE3F8AE0F80731F0808191816F
:101440009093FF0A8093FE0A87E797E79183808352
:101450009BE088E10FB6F894A895809360000FBEDA
:101460009093600083CF6C960FB6F894DEBF0FBEEA
:10147000CDBFDF91CF91FF91EF91BF91AF919F9140
:101480008F917F916F915F914F913F912F911F911C
:101490000F91FF90EF90DF90CF900F900FBE0F90C5
:1014A0001F901895CF92DF92EF92FF920F931F93A8
:1014B000CF93DF936C017A018B01C0E0D0E0CE15B1
:1014C000DF0589F0D8016D918D01D601ED91FC9178
:1014D0000190F081E02DC6010995892B11F47E0160
:1014E00002C02196ECCFC701DF91CF911F910F91E0
:1014F000FF90EF90DF90CF900895E7E5FBE090E15B
:10150000969FD001A0781124A80F6770E60FF11DF7
:101510009491AF56BE4F442319F08C91982B03C081
:1015200090958C9198239C9308952F923F924F927F
:101530005F926F927F928F929F92AF92BF92CF9263
:10154000DF92EF92FF920F931F93CF93DF93CDB76C
:10155000DEB727970FB6F894DEBF0FBECDBFFC01F4
:101560006A3069F425898189928938E0239F800D4A
:10157000911D1124928B818B108A1786A6C06D3025
:1015800009F4A3C09F838E833588248929833389F6
:101590003A8361887288E784F08880E8E816F1046D
:1015A000C4F0AE81BF8155962C915597422F50E0E3
:1015B0001F968D919C915097B6E02B9F800D911DA9
:1015C0001124EE81FF81908B87872689211167C0C6
:1015D0007CC0F0E46F16710424F7C70125E0329E49
:1015E000800D911D112418161906DCF6432C512C80
:1015F000C30138E0339E800D911D11241816190681
:1016000084F685E0689F80011124095A194F20E073
:10161000F8012490253009F4212C430158E020FCE6
:1016200002C0398101C03A8131110BC0F9818A8130
:10163000F81307C026945150840C951C5111EFCF1C
:1016400025C067018C2D8E198315A0F754018A2DB2
:1016500088198315B8F490E8C916D10478F4A0E489
:10166000AA16B10458F4432FB501C6012C833B835D
:101670005D830E947D0A5D813B812C81BFEFAB1AA7
:10168000BB0AE5CFEFEFCE1ADE0ADCCF2F5FE40C0A
:10169000F51C0F5F1F4F263009F0BACF82CF6AEFDB
:1016A00064039001659F300D112420583F4F281787
:1016B00039075CF4AE81BF81ED91FC9111970190E7
:1016C000F081E02D6AE0CD01099581E090E0279658
:1016D0000FB6F894DEBF0FBECDBFDF91CF911F9143
:1016E0000F91FF90EF90DF90CF90BF90AF909F90C1
:1016F0008F907F906F905F904F903F902F900895C4
:101700000895089580E090E008950E94E11A3FB79F
:10171000F89480919E0690919F06A091A006B091AA
:10172000A10626B5A89B05C02F3F19F00196A11D63
:10173000B11D3FBFBA2FA92F982F8827820F911D67
:10174000A11DB11DBC01CD0142E0660F771F881FAE
:10175000991F4A95D1F708958F929F92AF92BF92A9
:10176000CF92DF92EF92FF926B017C010E94870B78
:101770004B015C01C114D104E104F104F1F00E94B9
:10178000870BDC01CB0188199909AA09BB09883E9E
:101790009340A105B10570F321E0C21AD108E10818
:1017A000F10888EE880E83E0981EA11CB11CC114BC
:1017B000D104E104F10419F7DDCFFF90EF90DF9041
:1017C000CF90BF90AF909F908F9008951F920F92EF
:1017D0000FB60F9211242F933F938F939F93AF9344
:1017E000BF938091740190917501A0917601B091A1
:1017F000770130919D0623E0230F2D3720F40196C9
:10180000A11DB11D05C026E8230F0296A11DB11D23
:1018100020939D068093740190937501A0937601A7
:10182000B093770180919E0690919F06A091A006AB
:10183000B091A1060196A11DB11D80939E069093C3
:101840009F06A093A006B093A106BF91AF919F9170
:101850008F913F912F910F900FBE0F901F90189571
:101860004F925F927F928F929F92AF92BF92CF9250
:10187000DF92EF92FF920F931F93CF93DF9300D0ED
:1018800000D0CDB7DEB729011C2DA02EB12C9C01B4
:101890002A0D3B1D121613060CF0B3C180389105BA
:1018A0000CF0AFC1FB01EE0DF11D1E161F060CF072
:1018B000A8C1603471050CF0A4C14115510509F4AB
:1018C000A0C1E62FE770FE2EFB0177FD3796A3E05F
:1018D000F595E795AA95E1F7AE2F77FF04C0FF20B5
:1018E00011F0AFEFAE0F97FF05C0EE27FF27E81B03
:1018F000F90B02C0E0E0F0E02038310524F020E8E8
:10190000722E781A01C0702E7E1A6A2F0A2E000CD1
:10191000770BAF3F1CF4D62ED09401C0D12C21E020
:101920003E2D377009F420E0E694E694E694E20E4A
:101930006E0D711D693071051CF028E0E22EEA1A67
:10194000ED183D2D3A0FDC0120E83203A00DB11D4A
:101950001124AE0FBF1FD09EE00DF11D11244E0FBC
:101960005F1F81E090E04C010F2C02C0880C991C95
:101970000A94E2F7133009F403C1A0F4113009F41A
:10198000B5C0123009F03DC18FEF889DB001899D2F
:10199000700D1124609570957C836B835C802E2D77
:1019A000230F2BC01A3F31F01B3F09F02AC12E2D07
:1019B000230F88C02E2D230F51C0FA01E00FF11F15
:1019C000E491E89D6001E99DD00C1124DA82C9827E
:1019D00037FD07C0FC01E080EE2DE623CE2AFC0196
:1019E000C082F11013C00F5F1F4F0196071528F337
:1019F0003F5F4A0D5B1DA058BF4F321709F401C16C
:101A0000CD018F569E4F00E010E0F0CF37305CF7ED
:101A1000FC01E058FF4FD080D520CA80DC28D0825E
:101A2000E2CFFA01E60FF71FE491E89D8001E99DFE
:101A3000100D11241A83098337FD04C0FC011081A5
:101A4000012B0083F11013C06F5F7F4F0196671564
:101A500040F33F5F4A0D5B1DA058BF4F321709F49A
:101A6000D0C0CD018F569E4F60E070E0F0CF373090
:101A70005CF78C0100581F4FF801E080EA81EE2AE4
:101A8000F801E082E1CFFA01E00FF11FE491E89D57
:101A9000C001E99D900D11249A83898337FD05C00B
:101AA0008095FB01908189238083F11014C00F5F22
:101AB0001F4F6F5F7F4F071530F33F5F4A0D5B1D70
:101AC000A058BF4F321709F49CC0BD016F567E4F1E
:101AD00000E010E0F0CF373054F7FB01E058FF4F43
:101AE0008A818095908189238083E1CFC2018E0F06
:101AF0009F1F2E2D230F321709F483C0BD016F568F
:101B00007E4F6B0100E010E0071590F5FC01E00F3F
:101B1000F11FE491E89DB001E99D700D11246095DD
:101B200070957C836B83FA01E00FF11FE491E89DCF
:101B30002001E99D500C11245A82498237FD05C0CD
:101B4000F60170816723462A4082FF2059F0373022
:101B50004CF4F601E058FF4F70816C8167237A8165
:101B6000672B60830F5F1F4FFFEFCF1ADF0ACCCFC9
:101B70003F5F4A0D5B1D8A0D9B1DA058BF4FBBCF19
:101B8000C72CD12CE40FF51FAF56BE4F60E870E0B4
:101B90006C197D09AC18BD088501000F111F572D68
:101BA0002E2DCF93DF93ED01EF96EF962296A59021
:101BB000C590FF2059F0A89C5001C89C60013730A7
:101BC0002CF4E880D094ED20EB28E99233233AF00E
:101BD000EC90C094EC20EA28ED920C94F00D119654
:101BE0005A9529F72A9551F0572D33951124E00F76
:101BF000F11DA60FB11DC60FD11DD9CFDF91CF9119
:101C000011240F900F900F900F90DF91CF911F91A3
:101C10000F91FF90EF90DF90CF90BF90AF909F908B
:101C20008F907F905F904F900895CF92DF92EF92C8
:101C30000F93CF93DF934115510569F1FA01049198
:101C40003196E4904E5F5F4F2223F9F0C02FD0E031
:101C5000AE2DA695A695A695EA2FF0E0A1E0B0E0FE
:101C60003E2D377011F4A0E0B0E0AE0FBF1FCA9F49
:101C70006001CB9FD00CDA9FD00C11242C9DF00179
:101C80002D9DF00D11244E0F5F1F2AEFC22E20E074
:101C900030E00E94300CDF91CF910F91EF90DF90F8
:101CA000CF9008952D9A0895BC0180E090E00C94A7
:101CB000AC0B8FB18095807F669B88601C9B846095
:101CC00008950C942E1AFC016281738180819181A8
:101CD0008038910530F46034710518F441E00C94BB
:101CE0007D0A08950F931F93CF93DF93EC010E9419
:101CF000C21902E010E0B8010E94B31A98878F83DE
:101D00000E94C21968E270E00E94B31A41969B8358
:101D10008A838F819885009779F48FEF9FEF99835D
:101D2000888383E090E09A8789870E94C219B8016E
:101D30000E94B31A01960EC0019771F481E890E0F9
:101D4000998388831A8709870E94C219B8010E9463
:101D5000B31A02979D838C83DF91CF911F910F91CE
:101D60000895FC014481558120813181240F351F64
:101D7000318320831416150624F42338310534F4F6
:101D80000895452B29F02E3F3F4F14F40C94720E0A
:101D900008950F931F93CF93DF93EC010E94C21914
:101DA00060E370E00E94B31A0A969B838A830E94C4
:101DB000C21902E010E0B8010E94B31A98878F831D
:101DC000009779F48FEF9FEF9983888383E090E009
:101DD0009A8789870E94C219B8010E94B31A019696
:101DE0000EC0019771F480E890E0998388831A8788
:101DF00009870E94C219B8010E94B31A02979D83F5
:101E00008C83DF91CF911F910F910895EF92FF92F4
:101E10000F931F93CF93DF93EC010E94C21923E02D
:101E2000E22EF12CB7010E94B31A8B870E94C219CF
:101E300002E010E0B8010E94B31A98878F830E94D5
:101E4000C21968E270E00E94B31A41969B838A83AC
:101E50008F819885009769F48FEF9FEF998388832E
:101E6000FA86E9860E94C219B8010E94B31A019647
:101E70000EC0019771F481E890E0998388831A87F6
:101E800009870E94C219B8010E94B31A02979D8364
:101E90008C83DF91CF911F910F91FF90EF90089568
:101EA00040918A0150918B012091880130918901E4
:101EB00042175307B4F49091E8009570E1F39091C4
:101EC000E80092FD19C08093F10080918A01909101
:101ED0008B0101968F739927892B19F48EEF8093CC
:101EE000E80080918A0190918B01019690938B017B
:101EF00080938A0181E0089580E00895615030F078
:101F00002091F100FC0120830196F8CF289884E607
:101F100080938F010895CF93DF9300D000D000D03D
:101F2000CDB7DEB7789484B5826084BD84B5816016
:101F300084BD85B5826085BD85B5816085BD809194
:101F40006E00816080936E0010928100809181000C
:101F50008260809381008091810081608093810004
:101F600080918000816080938000809191008260E8
:101F70008093910080919100816080939100809185
:101F800090008160809390008091C1008460809374
:101F9000C1008091C10082608093C1008091C10026
:101FA00081608093C1008091C30081608093C300F1
:101FB0008091C00082608093C0008091C2008160E7
:101FC0008093C20080917A00846080937A0080912F
:101FD0007A00826080937A0080917A008160809399
:101FE0007A0080917A00806880937A001092900144
:101FF00010928D0110928E018091D70081608093A4
:10200000D70080EA8093D80089B5806189BD89B501
:10201000826089BD09B400FEFDCF61E070E080E020
:1020200090E00E94AC0B8091D8008F7C80618093FF
:10203000D8008091E000807F8093E0008091E100F3
:102040008E7E8093E1008DE08093E200559A209A85
:10205000EEEFFFE7859194918B3F9C4D19F481E061
:1020600080938C0181EC80937C0085B1806F85B971
:1020700084B1877E84B984B1876E84B95E9A5F9893
:102080008AB1806D8AB9769A6E9881B3806F81BB70
:10209000899880B38D7080BB80E58CBD81E08DBD5B
:1020A00085E090E00E94540E5F9A85E090E00E94E7
:1020B000540E5E985C98ECE5F1E08DE08E0F949103
:1020C0009EBD00000DB407FEFDCF31968E13F7CFF5
:1020D0005C9A81E8809364008091650081608093C0
:1020E000650080E00E94A1070E94590E87FF24C06E
:1020F0005C9885EA8EBD00000DB407FEFDCF5C9AAA
:102100002E982F982D9880916400806280936400AF
:1021100081E083BF889513BEFCCF2D980E94590E95
:102120008478843871F00E94590E8471843131F1C1
:1021300088EC90E00E94540E0E94590E82FDEDCF73
:102140003AC00E94520E88EC90E00E94540E2F98E4
:1021500082E090E00E942E1A8F3F29F06FEF82E01C
:1021600090E00E94361A84EF91E00E94540E2F9A5C
:102170000E94590E84788438D9F3D5CF0E94520E2C
:1021800088EC90E00E94540E2E9882E090E00E942D
:102190002E1A882329F060E082E090E00E94361A2F
:1021A00084EF91E00E94540E2E9A0E94590E847181
:1021B0008431D9F3BDCF0E94520E82E090E00E949C
:1021C0002E1A882331F03E9A3F9A81E0809378015D
:1021D00004C0109278013E983F9881E090E00E9400
:1021E000610E82FB772470F881FF8EC071102E98EB
:1021F00000EF1FEF68E0A62EB12C0E94590E86FF5B
:1022000004C02E9A2F9A2D9A7FC0772029F004308F
:10221000110511F42E9A2F9881E00E94A1079801D0
:1022200017FF04C022273327201B310B27703327C9
:10223000C80117FD079653E0959587955A95E1F7E4
:1022400017FF05C00197A501421B530B9A017C01A2
:10225000F694FE2CEE24F794E79460E070E02501FC
:10226000421A530AF701E058FF4F4F018F3FFFEF2B
:102270009F0744F40196685A7F4F7401603B7105D3
:1022800089F721C0D701AB5DBD4F40E050E08F3FE3
:10229000EFEF9E0709F47AC1FA01E60FF71FE45544
:1022A000FF4FE4916D01C818D908CE0CDF1CF0E097
:1022B0001F01022E01C0220C0A94EAF7F601608089
:1022C0002628208263C180E00E94A1078FE090E071
:1022D0000E94540E0F5F1F4F0931110509F08DCF79
:1022E000772011F02F9A2D9880E991E00E94540EEA
:1022F0000E94520EE0912D06F0912E060190F08181
:10230000E02D8DE296E0099582E390E00E94540E64
:102310000E94590E8111F8CF82E4809334060E9406
:10232000890710923B0610923A06109239061092D5
:10233000380684E090E0909386018093850182E0E6
:1023400090E09093820180938101F2E04F2E512C16
:10235000A3E08A2E912CB5E02B2E312CAA24A39435
:10236000B12C8FB7F8944091740150917501609130
:102370007601709177018FBF80913506F42FF81B9D
:102380008F2F90913606992329F0F09337061092FB
:102390003606F4C090913406F91748F48F5F891718
:1023A00008F0ECC081E083BF889513BEE7C081E0F0
:1023B0008093360640933506809130069091310621
:1023C0000196909331068093300680913206809377
:1023D00033060E94590E809332060E94890710929C
:1023E0003B0610923A06109239061092380671E9AF
:1023F000C72E75E0D72EE12CF12C6FE2662E61E03E
:10240000762E00E010E0F30181913F01811102C0BE
:1024100020E004C0823041F4F601208149E055E01B
:10242000B801C7010E94150E005F1F4F003411054F
:1024300051F7F0E1EF0EF11C2FEFC21AD20A40E87B
:10244000E416F104D1F651E0C52E51E0D52EE12C71
:10245000F12CF60121916F0100918301109184010B
:1024600049E055E060E070E0C701801B910B0E94DD
:10247000150EF0E1EF0EF11C20E9E216F10449F728
:102480000F5F1F4F0031110529F010938401009355
:1024900083012DC010928401109283010E94C21901
:1024A0002091020120930101209103012093020158
:1024B0002091040120930301209105012093040140
:1024C0002091060120930501209107012093060128
:1024D0002091080120930701209109012093080110
:1024E00063E070E00E94B31A8F5F8093090180E877
:1024F0000E949607182F882359F080E20E949607C1
:10250000811106C080E40E949607882309F413C550
:1025100080E10E949607082F882331F080E20E9414
:102520009607882309F44DC080E40E94960788230B
:1025300019F0112309F404C580E20E94960788234C
:1025400019F0112309F403C5809187018F5F893148
:1025500008F041C0809387018091850190918601A8
:102560008230910509F4CDC0CCF5009709F456C32B
:10257000019709F444C080E00E94A10780E090E048
:10258000892B09F4EECE0E940000E8CE211531051A
:1025900081F0FA01E60FF71FE455FF4FE491F0E0F8
:1025A000042C02C0F595E7950A94E2F7DC90ED293A
:1025B000EC934F5F5F4F11964835510509F067CE98
:1025C00059CE80E40E9496078111AECFB09282016D
:1025D000A0928101B9CF10928701BECF84309105BE
:1025E00009F464C30CF47EC1059729F648E050E075
:1025F00060E671E089E296E00E94520ABCCF8091C9
:102600000001882321F0109287011092000180912F
:102610008101909182018230910549F41092200647
:102620008FEF9FEF909326068093250609C00397AE
:1026300039F481E080932006B0922606A092250608
:102640004091230650912406483351059CF5209172
:102650002106309122068091250690912606820F50
:10266000931F909322068093210630918701337047
:1026700059F420911F06BA01620F711D27FD7A954A
:10268000709324066093230697FF08C0B092260635
:10269000A092250681E08093200615C08A37910517
:1026A00094F08FEF9FEF909326068093250610926B
:1026B000200609C0809127069091280601969093E4
:1026C00028068093270680912706909128064F9729
:1026D0004CF01092870181E08093000150928601B6
:1026E0004092850160912306709124062091200676
:1026F00047EF54E080912106909122060E94150E2A
:102700003ACF809100018823D1F0809121069091E9
:10271000220608979093160680931506809123064B
:10272000909124060897909318068093170680913D
:1027300020068093140610928701109200012091C8
:102740008101309182018091150690911606609169
:102750001706709118062230310539F421E02093D4
:1027600014069C012250310908C02330310581F440
:10277000109214069C01265F3F4F30931A06209357
:1027800019069B012450310930931C0620931B0627
:1027900020911D0630911E062F5F3F4F30931E067D
:1027A00020931D0620917F01309180012430310556
:1027B00048F01092870121E0209300019092860159
:1027C00080928501A0911406E5EBF4E00491E6EB1C
:1027D000F4E0E490AA2319F1402F50E02E2D269525
:1027E00026952695E22FF0E021E030E0BE2DB7706F
:1027F00011F420E030E02E0F3F1F429FF001439F75
:10280000F00D529FF00D1124AE9FA001AF9F500D0F
:1028100011249A012D583B4F49545B4F04C023E7C4
:1028200034E047EB54E0CC24C3940E94300C8091F8
:102830001406813031F460911B0670911C0621E072
:1028400007C081110DC060911B0670911C0620E02D
:1028500041E654E08091190690911A060E94150EE7
:102860000DEB15E0C8010E94B10EC8010E94630E75
:10287000F801608171812281338149815A818B8184
:102880009C81AE81ED817A01EE0EF11C6E157F0503
:1028900014F564177507FCF0AC014A0F511D24179D
:1028A0003507CCF428173907B4F0F80121853285B3
:1028B00080918101909182012817390761F0C80148
:1028C0000E94720E80917F019091800101969093F9
:1028D000800180937F01055F1F4F25E0043F1207B1
:1028E00009F649CE80910001882391F08091150668
:1028F000909116069093070680930606809117061E
:102900009091180690930906809308061092000192
:1029100020911206609108067091090680910606C2
:10292000909107062D3120F426954DE452E01EC00B
:1029300020917E012223B1F000917C0110917D0154
:10294000F801EA5DFE4F30910E062081230F4BEC1B
:1029500051E00E94150E0F5F1F4F10937D010093F1
:102960007C0106C020910E064BEC51E00E94150E32
:1029700080917C0190917D01099734F010927E0145
:1029800010927D0110927C0180917E01811122C004
:102990008091810190918201009729F410920F0695
:1029A00010920E0617C08230910529F4B0920F06DE
:1029B000A0920E060FC08130910529F450920F06A7
:1029C00040920E0607C08330910521F490930F06C4
:1029D00080930E0690918701937080911206911159
:1029E0000CC08D3150F02091060630910706215021
:1029F000310930930706209306068E3120F48F5F4D
:102A00008093120602C01092130684E00E9496077B
:102A1000882391F0809112068D3108F09FC20CC07E
:102A2000823091050CF0B2C2892B31F48CEF9FEF0C
:102A300090930D0680930C0620910A0630910B06A8
:102A40006091060670910706620F731F7093070668
:102A50006093060680910C0690910D064091080641
:102A600050910906480F591F5093090640930806D4
:102A7000121613061CF42150310905C02115310529
:102A800031F02F5F3F4F30930B0620930A06181644
:102A9000190614F4019703C0009729F0019690934A
:102AA0000D0680930C06693771053CF088E790E0CD
:102AB000909307068093060610C077FF05C010921A
:102AC00007061092060609C04F3251054CF08EE2FF
:102AD00090E090930906809308060DEB15E006C080
:102AE0004D305105D4F78DE090E0F3CFC8010E943E
:102AF000B10EC8010E94630EF801608171812281CC
:102B0000338149815A818B819C81AE81ED817A012B
:102B1000EE0EF11C6E157F0514F564177507FCF0B9
:102B2000AC014A0F511D24173507CCF4281739077B
:102B3000B4F0F80121853285809181019091820164
:102B40002817390761F4C8010E94720E80917F0135
:102B50009091800101969093800180937F01055FA1
:102B60001F4F25E0043F120709F609E915E0FF248D
:102B7000F394F8012481358180819181820F931F24
:102B8000918380831216130624F48338910534F45C
:102B900008C0232B31F08E3F9F4F1CF4C8010E94C8
:102BA000060FF8012781822F880F280F8385280FB1
:102BB000628173814FE254E0808191810E94150E01
:102BC000409108065091090660910606709107062B
:102BD000F8012081318182819381FB0138962E1783
:102BE0003F07A4F4285F3F4F621773077CF49A01F4
:102BF000285F3F4F821793074CF4089648175907F0
:102C00002CF480911306882309F4C6C1045F1F4F7A
:102C1000F5E00D3B1F0709F0ACCFADCC8DE290E0A5
:102C200090933906809338068EE190E090933B06AE
:102C300080933A064AE050E069E671E089E296E066
:102C40000E94520A84E00E949607882309F493CCDC
:102C5000809164008E7F8093640080917A0080640C
:102C600080937A0080917A0086FDFCCF00917800F5
:102C7000109179000E94870B20E030E09801112725
:102C80000027600F711F821F931F61157105810559
:102C9000910511F00E94251A809164008160809353
:102CA0006400B0928601A092850165CC80910001FC
:102CB0008823D9F020910606309107063093F50558
:102CC0002093F40580910806909109069093F705EA
:102CD0008093F6053093F9052093F80508969093B4
:102CE000FB058093FA051092000120917B01609111
:102CF000F6057091F7058091F4059091F505222372
:102D000011F10091790110917A01F801E25EFE4F14
:102D1000F0802F2D49E651E00E94150E24E02F0D82
:102D20006091FA057091FB0549E651E08091F80544
:102D30009091F9050E94150EC801019690937A01B1
:102D40008093790115C02091000649E651E00E9468
:102D5000150E209100062E5F6091FA057091FB051B
:102D600049E651E08091F8059091F9050E94150E11
:102D70008091790190917A01089734F010927B014B
:102D800010927A011092790100917B01011112C019
:102D900080918101909182018230910529F41092F5
:102DA00001061092000606C0039721F4B0920106B6
:102DB000A092000610918701812F69E00E94A71A56
:102DC000911110C08091F6059091F7059C012F5F3D
:102DD0003F4F3093F7052093F60509969093FB0536
:102DE0008093FA0584E00E9496078823D9F00111A8
:102DF00019C081E080937B018091000690910106CB
:102E0000009709F0D0C08EEF9FEF9093FF0580935D
:102E1000FE058091FC059091FD0503979093FD05BB
:102E20008093FC0580917B012091FC053091FD058C
:102E30008823A9F08091F8059091F905820F931FDE
:102E40009093F9058093F8058091F4059091F5052C
:102E5000820F931F9093F5058093F40502C01370C1
:102E600049F38091FE059091FF054091F605509140
:102E7000F705480F591F5093F7054093F6056091E9
:102E8000FA057091FB05680F791F7093FB0560933D
:102E9000FA05223031051CF0C901019706C02F3F09
:102EA0006FEF36073CF4C90101969093FD058093BE
:102EB000FC0507C097FF05C001969093FF0580931E
:102EC000FE058091F4059091F505893791055CF038
:102ED00088E790E09093F5058093F4059093F905C9
:102EE0008093F80548CB97FF09C01092F505109222
:102EF000F4051092F9051092F8053DCB4A325105C0
:102F00004CF089E290E09093F7058093F60581E319
:102F100090E00CC04A3051050CF02DCB8AE090E0D7
:102F20009093F7058093F60582E190E09093FB057E
:102F30008093FA0520CB109282011092810104CB7C
:102F40000111FACA9092820180928101FDCA011199
:102F5000FBCA5092820140928101F6CA81E08093BF
:102F60007E0180910E0690910F068130910509F047
:102F700057CD8CEF9FEF05C0039709F05DCD84E03E
:102F800090E090930B0680930A0656CD823091050F
:102F900099F784E090E04CCDF092000130928601E8
:102FA0002092850133CE019709F03CCF8EEF9FEF41
:102FB0009093FF058093FE059092FD058092FC059D
:102FC00031CFCF92DF92EF92FF920F931F93CF9367
:102FD000DF931F92CDB7DEB7182F062FE42E862F72
:102FE000880F8E5F99830E94500F83E00E94500FDC
:102FF000F12EC12E9981D92E8C2D8F19801798F41E
:10300000F601E7FE02C0849101C080810E94500F4A
:10301000182F80E00E94500F8123FFEFCF1ADF0AA4
:103020008111EACF01C081E00F90DF91CF911F9114
:103030000F91FF90EF90DF90CF900895CF93DF93A3
:103040001092500610924F0688EE93E0A0E0B0E098
:103050008093510690935206A0935306B093540662
:103060008EE391E090934E0680934D068FEF9FEF95
:1030700090935A06809359060E94C219C3E0D0E08B
:10308000BE010E94B31A8C5F809391050E94C21901
:10309000BE010E94B31A8C5F809392050E94C219F0
:1030A000BE010E94B31A8C5F809393050E94C219DF
:1030B000BE010E94B31A8C5F809394050E94C219CE
:1030C000BE010E94B31A8C5F809395050E94C219BD
:1030D000BE010E94B31A8C5F809396050E94C219AC
:1030E000BE010E94B31A8C5F809397050E94C2199B
:1030F000BE010E94B31A8C5F8093980581E0809393
:103100001F062EE330E0309322062093210620E1B3
:1031100030E03093240620932306809320061092FB
:103120002606109225061092280610922706109265
:103130001606109215061092180610921706109295
:10314000140610921E0610921D062AE030E03093FD
:103150001A06209319064CEF5FEF50931C0640931C
:103160001B0610920F0610920E0610921106109276
:1031700010061092120680931306309307062093D0
:1031800006062EE130E030930906209308061092DF
:103190000106109200061092030610920206109289
:1031A00004068093050688E290E09093F5058093ED
:1031B000F4053093F7052093F6059093F905809375
:1031C000F80586E290E09093FB058093FA05CDEB3D
:1031D000D5E0CE010E94C90E2B9685E0C43FD807EA
:1031E000C1F7C9E9D5E0CE010E94C90E0E94C219FB
:1031F000CE010E94060F2C9685E0CD3BD80799F7AB
:1032000010922C0610922B06109232061092330662
:1032100080E18093340610923106109230061092AD
:10322000360680E591E090932A06809329068EE584
:1032300091E090932E0680932D06109239061092FD
:10324000380610923B0610923A0681E080933C06C5
:1032500010923D0680933E0610923F06DF91CF917B
:1032600008950F931F93CF93DF938C0181E090E03B
:103270000E94610E80FF32C08AE090E00E94610EE1
:103280009FEF980F9E3F50F522E330E0D801509613
:103290003C932E931F9728E330E052963C932E9355
:1032A0005197CBE0D0E0D801ED91FC910190F081F5
:1032B000E02D682FC8010995CE010E94610E21966C
:1032C000C131D10581F780E00E94A10788EE93E02B
:1032D000DF91CF911F910F910C94540EDF91CF91FC
:1032E0001F910F91089504970C9431198F929F921A
:1032F000AF92BF92CF92DF92EF92FF92CF93DF9384
:10330000EC01688179818A819B8161157105810554
:10331000910521F464E279ED8BE597E02DE133EF3F
:1033200041E050E00E94441A49015A019B01AC015E
:10333000A7EAB1E40E94631A6B017C01ACEEB4EF22
:10334000A50194010E94711ADC01CB018C0D9D1D19
:10335000AE1DBF1DB7FF03C00197A109B048888308
:103360009983AA83BB839F77DF91CF91FF90EF90E2
:10337000DF90CF90BF90AF909F908F9008950E9464
:103380007619089586E191E00E9476190895A0E0EB
:10339000B0E08093160190931701A0931801B093A9
:1033A000190108958F929F92AF92BF92CF92DF92B0
:1033B000EF92FF92CF93DF93EC01688179818A814C
:1033C0009B81611571058105910521F464E279ED18
:1033D0008BE597E02DE133EF41E050E00E94441A85
:1033E00049015A019B01AC01A7EAB1E40E94631AAA
:1033F0006B017C01ACEEB4EFA50194010E94711A3F
:10340000DC01CB018C0D9D1DAE1DBF1DB7FF03C0A0
:103410000197A109B04888839983AA83BB83BC0123
:10342000CD019F77DF91CF91FF90EF90DF90CF900C
:10343000BF90AF909F908F9008950E94D2190895E9
:103440008AE191E00E94D219089560931A01709365
:103450001B0180931C0190931D010895F999FECFE3
:1034600092BD81BDF89A992780B50895262FF999C4
:10347000FECF1FBA92BD81BD20BD0FB6F894FA9A57
:10348000F99A0FBE01960895052E97FB1EF400943D
:103490000E945B1A57FD07D00E94761A07FC03D0E2
:1034A0004EF40C945B1A50954095309521953F4F02
:1034B0004F4F5F4F089590958095709561957F4F20
:1034C0008F4F9F4F08950E94981AA59F900DB49F0B
:1034D000900DA49F800D911D11240895B7FF0C94A9
:1034E000631A0E94631A821B930B0895A1E21A2E9D
:1034F000AA1BBB1BFD010DC0AA1FBB1FEE1FFF1F98
:10350000A217B307E407F50720F0A21BB30BE40BE7
:10351000F50B661F771F881F991F1A9469F760952E
:103520007095809590959B01AC01BD01CF010895E8
:10353000A29FB001B39FC001A39F700D811D1124F4
:10354000911DB29F700D811D1124911D0895991B2D
:1035500079E004C0991F961708F0961B881F7A958A
:10356000C9F78095089597FB072E16F4009407D0AD
:1035700077FD09D00E94C71A07FC05D03EF490954C
:1035800081959F4F0895709561957F4F0895AA1B6F
:10359000BB1B51E107C0AA1FBB1FA617B70710F03E
:1035A000A61BB70B881F991F5A95A9F78095909570
:1035B000BC01CD010895EE0FFF1F0590F491E02DA1
:1035C000099481E090E0F8940C94E61AF894FFCF07
:1035D00001010201030302010203FFFFFFFF00E1FB
:1035E00000000000000001000000010000000405D0
:1035F000060707060504000400080C0C0C0800016F
:1036000000000200C18081000000000000002A06C6
:10361000AB064B06400691064F066D060000000003
:10362000950A520A820B810B3119FCFF00007319B5
:1036300047414D454F564552004220544F20537448
:04364000617274003F
:00000001FF
