:100000000C94D2050C94FA050C94FA050C94FA059C
:100010000C94FA050C94FA050C94FA050C94FA0564
:100020000C94FA050C94FA050C94430F0C94B50F3C
:100030000C94FA050C94FA050C94FA050C94FA0544
:100040000C94FA050C94FA050C94FA050C94FA0534
:100050000C94FA050C94FA050C94FA050C946908B2
:100060000C94FA050C94FA050C94FA050C94FA0514
:100070000C94FA050C94FA050C94FA050C94FA0504
:100080000C94FA050C94FA050C94FA050C94FA05F4
:100090000C94FA050C94FA050C94FA050C94FA05E4
:1000A0000C94FA050C94FA050C94FA05F0F89C8E61
:1000B0008783878E9CF8F00000FEFF030303030391
:1000C000070EFCF80000FEFF0303030303070EFC0A
:1000D000F80000FFFF00000000000000FFFF00002C
:1000E000FEFF8383838383C7EE7C380000F8FC0E19
:1000F00007030303070EFCF800003F7FE0C0808089
:10010000C0E07F3FFFFF01010101010101FFFF008E
:1001100000FFFF0C0C0C0C1C3E77E3C100007FFFBE
:10012000C0C0C0C0C0E0703F1F00001F3F70E0C0F3
:10013000C0C0E0703F1F00007FFFC1C1C1C1C1E36B
:10014000773E1C00001F3F70E0C0C0C0E0703F1F42
:10015000000000000001FFFF01000000D5F08D1439
:10016000A1C881CFD9F1AF20000808E0B0D0F0F0ED
:10017000F0F0E0E0F0F0F0F0D0B0E01F608F7087BA
:1001800038435C5C433887708F601FE0B0D0F0F07C
:10019000F0F0E0C0B0D8F8F8F8F0C000F0CCFCFC0B
:1001A000FCF0000030CCFEFEFC30001F603FC0C001
:1001B0003F601F033C47F8F8473C0300077FF8F80F
:1001C0007F070000000FFEFE0F0000080820380C1B
:1001D0003C0C3C182000003C7E56D5000004183C26
:1001E000303C301C040000AB6A7E3C0000181C0C44
:1001F0001C0C1C0C1800007EFFD5000000183038C5
:100200003038303818000000ABFF7E000000380C9A
:100210007C7C0C380000003C7E5A5A1800001C30D0
:100220003E3E301C0000185A5A7E3C000000182C3C
:100230007C7C2C180000003C7E5A3C1800001834CE
:100240003E3E34180000183C5A7E3C00001010005E
:1002500000000304FBFCFCFFFCFB040300000000A7
:1002600000000000008FFFFF8F0000000000000072
:1002700000000304FBACFCFFACFB04030000000027
:1002800000000000008FFAFA8F000000000000005C
:1002900000000304FBAC54AF54FB04030000000057
:1002A00000000000008FF6F98F0000000000000041
:1002B00000000306FDAE55AE55FE0503000000002C
:1002C00000000000008FF6F98F0000000000000021
:1002D0000000073EF5AE75AE75EE3D07000000006C
:1002E00000000000018FFDFB8F01000000000000F6
:1002F00000031DEE75AE75AE75AEF51E0300000071
:100300000000000007BBFDFBBD070000000000006F
:10031000000CD45894589458945894D80C00000069
:10032000000000073BDDEBDDEB3D070000000000B7
:100330000000C4589458945894589CC4000000007D
:10034000000000073BDDEBDDEB3D07000000000097
:100350000000C04E9C589E589E588EC00000000061
:10036000000000073BDDEBDDEB3D07000000000077
:100370000000C0428E589E589E4C82C00000000073
:10038000000000073BDDEBDDEB3D07000000000057
:10039000000080840C981C981C8C048000000000D5
:1003A0000000010E77BAD7BAD77A0F01000000001B
:1003B000000000040E1E1E1E1E0E040000000000A1
:1003C0000000031DEE75AE75AEF51E0300000000C3
:1003D0000000000C0C1E1E1E1E0C0C000000000075
:1003E0000000063ADCEA5CEA5CEA3C060000000039
:1003F000000000081C0E1E1E0E1C0800000000005D
:100400000000063ADCEA5CEA5CEA3C060000000018
:10041000000000101C061E061E0C1000000000004C
:1004200000000C74B8D4B8D4B8D4780C000000081C
:1004300008E0180691ADA252484852A2AD910618A4
:10044000E0101000000000C0F0F8FCFEFEFEFEFC14
:10045000F8F0000000001E3FFFFFFFFFFF9F0F07A7
:1004600001000000F0F8FCFEFEFEFEFCF8F0C0000B
:10047000000000000001070F9FFFFFFFFFFF3F1E6E
:1004800000000010100000000000C0F068C4C44468
:10049000C4E8F00000000000001E37B4FEE7930837
:1004A00007010000000000F0E8C444C4C468F0C0C4
:1004B000000000000000000001070893E7FEB437C9
:1004C0001E00000000080880F07C566B351D0E0EE3
:1004D0001D356B567CF080101000000000000000FD
:1004E000000000000000000000000000000000000C
:1004F000000000000000000000800040808000003C
:100500000000004080800000802041824950A1828C
:1005100042228A0A718081221180404080000000BE
:100520004080800000000080804008900021A2826E
:1005300011100881922291881080000000804020D4
:100540004080008040404080801021424241201085
:10055000081122414824122244000000000000003B
:1005600000000000000000000009629A06619A067F
:1005700001629A0601629A06610000000000000014
:10058000000000000000000000314E8232490131BD
:100590004E8232490101314E81000000000000000E
:1005A0000000000000000000000501718A05210123
:1005B000728A05210902728A0508083C187D673F86
:1005C000366C483C181D3F363C664238103A7C6811
:1005D000302020486C363F677D183C42663C363FF1
:1005E0001D183C202030687C3A103808087C487878
:1005F00068302020207C245E766C2C080044381063
:100600003038786A4E331E0C0C1E56636B20202047
:10061000306878487C00082C6C765E247C4E6A78C2
:1006200038301038446B63561E0C0C1E330000002B
:1006300000003E5B4F5B3E3E6B4F6B3E1C3E7C3E84
:100640001C183C7E3C181C577D571C1C5E7F5E1C92
:1006500000183C1800FFE7C3E7FF0018241800FF4C
:10066000E7DBE7FF30483A060E2629792926407F46
:10067000050507407F05253F5A3CE73C5A7F3E1C55
:100680001C08081C1C3E7F14227F22145F5F005F41
:100690005F06097F017F006689956A60606060601F
:1006A00094A2FFA29408047E040810207E20100863
:1006B000082A1C08081C2A08081E101010100C1EFE
:1006C0000C1E0C30383E3830060E3E0E0600000080
:1006D000000000005F00000007000700147F147F87
:1006E00014242A7F2A1223130864623649562050A4
:1006F0000008070300001C2241000041221C002AC0
:100700001C7F1C2A08083E0808008070300008087A
:10071000080808000060600020100804023E5149EB
:10072000453E00427F400072494949462141494DBA
:10073000331814127F1027454545393C4A49493141
:1007400041211109073649494936464949291E00C0
:10075000001400000040340000000814224114146A
:10076000141414004122140802015909063E415D87
:10077000594E7C1211127C7F494949363E41414114
:10078000227F4141413E7F494949417F0909090191
:100790003E414151737F0808087F00417F4100209E
:1007A00040413F017F081422417F404040407F028A
:1007B0001C027F7F0408107F3E4141413E7F0909B2
:1007C00009063E4151215E7F0919294626494949BA
:1007D0003203017F01033F4040403F1F2040201F64
:1007E0003F4038403F6314081463030478040361F6
:1007F00059494D43007F4141410204081020004106
:1008000041417F0402010204404040404000030790
:10081000080020545478407F2844443838444444E5
:1008200028384444287F385454541800087E09025C
:1008300018A4A49C787F0804047800447D4000201C
:1008400040403D007F1028440000417F40007C0470
:100850007804787C080404783844444438FC18242C
:10086000241818242418FC7C080404084854545400
:100870002404043F44243C4040207C1C2040201C95
:100880003C4030403C44281028444C9090907C449C
:1008900064544C44000836410000007700000041D9
:1008A00036080002010204023C2623263C1EA1A1B8
:1008B00061123A4040207A3854545559215555799F
:1008C0004121545478412155547840205455794061
:1008D0000C1E5272123955555559395454545939C0
:1008E000555454580000457C410002457D420001AA
:1008F000457C40F0292429F0F0282528F07C545527
:1009000045002054547C547C0A097F4932494949A6
:10091000323248484832324A4848303A4141217AD6
:100920003A42402078009DA0A07D39444444393D9E
:100930004040403D3C24FF2424487E4943662B2F01
:10094000FC2F2BFF0929F620C0887E090320545470
:1009500079410000447D413048484A3238404022C5
:100960007A007A0A0A727D0D19317D2629292F28ED
:10097000262929292630484D40203808080808082B
:10098000080808382F10C8ACBA2F102834FA000015
:100990007B000008142A142222142A14089500222D
:1009A0000095AA005500AAAA55AA55AA000000FF62
:1009B00000101010FF00141414FF001010FF00FFAF
:1009C0001010F010F0141414FC001414F700FF00C1
:1009D00000FF00FF1414F404FC141417101F10106F
:1009E0001F101F1414141F00101010F0000000003E
:1009F0001F101010101F10101010F010000000FF3A
:100A0000101010101010101010FF10000000FF1434
:100A10000000FF00FF00001F10170000FC04F4148A
:100A2000141710171414F404F40000FF00F7141442
:100A30001414141414F700F7141414171410101FBE
:100A4000101F141414F4141010F010F000001F10F4
:100A50001F0000001F14000000FC140000F010F044
:100A60001010FF10FF141414FF141010101F0000BA
:100A70000000F010FFFFFFFFFFF0F0F0F0F0FFFFCD
:100A8000FF0000000000FFFF0F0F0F0F0F3844445E
:100A900038447C2A2A3E147E02020606027E027E2A
:100AA0000263554941633844443C04407E201E2083
:100AB00006027E020299A5E7A5991C2A492A1C4C28
:100AC0007201724C304A4D4D303048784830BC622B
:100AD0005A463D3E494949007E0101017E2A2A2AA3
:100AE0002A2A44445F444440514A444040444A51C5
:100AF000400000FF0103E080FF000008086B6B0866
:100B00003612362436060F090F06000018180000AA
:100B1000001010003040FF0101001F01011E0019EC
:100B20001D1712003C3C3C3C000000000001020488
:100B30000810204080080B00020202010009040096
:100B4000000102020000052400100105240101013A
:100B50000424020605240600010705810310004055
:100B600009040100020A000000070502024000001B
:100B7000070583024000000403090412010002EF8C
:100B800002014041233680000101020301417264E9
:100B900075696E6F204C4C430041726475626F79C9
:100BA00000009A1B11241FBECFEFDAE0DEBFCDBFDD
:100BB00011E0A0E0B1E0E0E1FDE302C005900D929C
:100BC000A439B107D9F726E0A4E9B1E001C01D922C
:100BD000A43EB207E1F715E0C2EDD5E004C02197CD
:100BE000FE010E947B1EC13DD107C9F70E94E5119D
:100BF0000C94861E0C940000CF92DF92EF92FF922D
:100C00000F931F93CF93DF936C017A018B01C0E0A8
:100C1000D0E0CE15DF0589F0D8016D918D01D601A8
:100C2000ED91FC910190F081E02DC6010995892B91
:100C300011F47E0102C02196ECCFC701DF91CF9164
:100C40001F910F91FF90EF90DF90CF900895EDE20C
:100C5000FBE090E1969FD001A0781124A80F677067
:100C6000E60FF11D9491AF54BE4F442319F08C91BF
:100C7000982B03C090958C9198239C9308952F9264
:100C80003F924F925F926F927F928F929F92AF921C
:100C9000BF92CF92DF92EF92FF920F931F93CF9369
:100CA000DF93CDB7DEB727970FB6F894DEBF0FBE40
:100CB000CDBFFC016A3069F425898189928938E0C9
:100CC000239F800D911D1124928B818B108A178692
:100CD000A6C06D3009F4A3C09F838E833588248914
:100CE000298333893A8361887288E784F08880E8B1
:100CF000E816F104C4F0AE81BF8155962C9155974A
:100D0000422F50E01F968D919C915097B6E02B9FFB
:100D1000800D911D1124EE81FF81908B878726899C
:100D2000211167C07CC0F0E46F16710424F7C7017D
:100D300025E0329E800D911D112418161906DCF64F
:100D4000432C512CC30138E0339E800D911D11249A
:100D50001816190684F685E0689F80011124035D4A
:100D6000194F20E0F8012490253009F4212C43018B
:100D700058E020FC02C0398101C03A8131110BC01A
:100D8000F9818A81F81307C026945150840C951C70
:100D90005111EFCF25C067018C2D8E198315A0F757
:100DA00054018A2D88198315B8F490E8C916D10426
:100DB00078F4A0E4AA16B10458F4432FB501C60193
:100DC0002C833B835D830E9427065D813B812C81C0
:100DD000BFEFAB1ABB0AE5CFEFEFCE1ADE0ADCCFCE
:100DE0002F5FE40CF51C0F5F1F4F263009F0BACFC0
:100DF00082CF6AEF64039001659F300D1124205863
:100E00003F4F281739075CF4AE81BF81ED91FC910B
:100E100011970190F081E02D6AE0CD01099581E004
:100E200090E027960FB6F894DEBF0FBECDBFDF91DE
:100E3000CF911F910F91FF90EF90DF90CF90BF90D7
:100E4000AF909F908F907F906F905F904F903F906A
:100E50002F9008950895089580E090E008950E94ED
:100E6000811E0F931F93CF93DF93EC018E819F819F
:100E70002A813B81280F391F3B832A8318161906C4
:100E800024F42D39310534F440C0892BF1F12C3E86
:100E90003F4FDCF50E94621D02E010E0B8010E94A5
:100EA000531E8D870E94621DB8010E94531E9A87AF
:100EB00089870E94621D64E270E00E94531E0D96B5
:100EC0009D838C8389859A85009779F48FEF9FEFB6
:100ED0009B838A8383E090E09C878B870E94621DBE
:100EE000B8010E94531E01960EC0019771F481E86B
:100EF00090E09B838A831C870B870E94621DB80148
:100F00000E94531E02979F838E83DF91CF911F9182
:100F10000F910895EF92FF920F931F93CF93DF935A
:100F2000CDB7DEB72C970FB6F894DEBF0FBECDBF9E
:100F3000FC0178876F835A8749872B870C87418507
:100F400052852481358182819381452B11F428506B
:100F500031099A8389833C832B8380E18D8388E0E8
:100F60008E83E980FA800B811C812D813E814F8127
:100F7000588569857A858B859C850E94620D2C96A3
:100F80000FB6F894DEBF0FBECDBFDF91CF911F919A
:100F90000F91FF90EF900895EF92FF920F931F93A0
:100FA000CF93DF93CDB7DEB72C970FB6F894DEBFA3
:100FB0000FBECDBFFC0178876F835A8749872B8787
:100FC0000C879E012F5F3F4F86E0D9011D928A95C5
:100FD000E9F782819381E82E89839A8384819581C0
:100FE000082FFA80192F28E038E04F81588569854D
:100FF0007A858B859C850E94620D2C960FB6F8949D
:10100000DEBF0FBECDBFDF91CF911F910F91FF903B
:10101000EF9008953FB7F8948091A7019091A801AF
:10102000A091A901B091AA0126B5A89B05C02F3FA8
:1010300019F00196A11DB11D3FBFBA2FA92F982FFE
:101040008827820F911DA11DB11DBC01CD0142E079
:10105000660F771F881F991F4A95D1F708958F92C1
:101060009F92AF92BF92CF92DF92EF92FF926B016D
:101070007C010E940A084B015C01C114D104E10407
:10108000F104F1F00E940A08DC01CB0188199909EA
:10109000AA09BB09883E9340A105B10570F321E080
:1010A000C21AD108E108F10888EE880E83E0981E84
:1010B000A11CB11CC114D104E104F10419F7DDCF66
:1010C000FF90EF90DF90CF90BF90AF909F908F9068
:1010D00008951F920F920FB60F9211242F933F93F2
:1010E0008F939F93AF93BF938091940190919501BB
:1010F000A0919601B09197013091A60123E0230FB2
:101100002D3720F40196A11DB11D05C026E8230F3F
:101110000296A11DB11D2093A60180939401909386
:101120009501A0939601B09397018091A7019091AA
:10113000A801A091A901B091AA010196A11DB11D1C
:101140008093A7019093A801A093A901B093AA014D
:10115000BF91AF919F918F913F912F910F900FBEB3
:101160000F901F9018954F925F927F928F929F924F
:10117000AF92BF92CF92DF92EF92FF920F931F93A5
:10118000CF93DF9300D000D0CDB7DEB729011C2D5F
:10119000A02EB12C9C012A0D3B1D121613060CF03B
:1011A000B3C1803891050CF0AFC1FB01EE0DF11D0C
:1011B0001E161F060CF0A8C1603471050CF0A4C106
:1011C0004115510509F4A0C1E62FE770FE2EFB0181
:1011D00077FD3796A3E0F595E795AA95E1F7AE2F51
:1011E00077FF04C0FF2011F0AFEFAE0F97FF05C0EF
:1011F000EE27FF27E81BF90B02C0E0E0F0E0203803
:10120000310524F020E8722E781A01C0702E7E1A63
:101210006A2F0A2E000C770BAF3F1CF4D62ED09409
:1012200001C0D12C21E03E2D377009F420E0E69476
:10123000E694E694E20E6E0D711D693071051CF0A6
:1012400028E0E22EEA1AED183D2D3A0FDC0120E8E5
:101250003203A00DB11D1124AE0FBF1FD09EE00DB3
:10126000F11D11244E0F5F1F81E090E04C010F2C07
:1012700002C0880C991C0A94E2F7133009F403C1E8
:10128000A0F4113009F4B5C0123009F03DC18FEF60
:10129000889DB001899D700D1124609570957C83A7
:1012A0006B835C802E2D230F2BC01A3F31F01B3F28
:1012B00009F02AC12E2D230F88C02E2D230F51C0D7
:1012C000FA01E00FF11FE491E89D6001E99DD00C67
:1012D0001124DA82C98237FD07C0FC01E080EE2DBF
:1012E000E623CE2AFC01C082F11013C00F5F1F4F0E
:1012F0000196071528F33F5F4A0D5B1DA058BF4FAD
:10130000321709F401C1CD018F549E4F00E010E067
:10131000F0CF37305CF7FC01E058FF4FD080D5208C
:10132000CA80DC28D082E2CFFA01E60FF71FE491F1
:10133000E89D8001E99D100D11241A83098337FD72
:1013400004C0FC011081012B0083F11013C06F5FFA
:101350007F4F0196671540F33F5F4A0D5B1DA05814
:10136000BF4F321709F4D0C0CD018F549E4F60E0BB
:1013700070E0F0CF37305CF78C0100581F4FF80158
:10138000E080EA81EE2AF801E082E1CFFA01E00F85
:10139000F11FE491E89DC001E99D900D11249A830D
:1013A000898337FD05C08095FB0190818923808367
:1013B000F11014C00F5F1F4F6F5F7F4F071530F3A1
:1013C0003F5F4A0D5B1DA058BF4F321709F49CC008
:1013D000BD016F547E4F00E010E0F0CF373054F77E
:1013E000FB01E058FF4F8A8180959081892380839B
:1013F000E1CFC2018E0F9F1F2E2D230F321709F44C
:1014000083C0BD016F547E4F6B0100E010E00715F3
:1014100090F5FC01E00FF11FE491E89DB001E99D1A
:10142000700D1124609570957C836B83FA01E00F39
:10143000F11FE491E89D2001E99D500C11245A828E
:10144000498237FD05C0F60170816723462A408234
:10145000FF2059F037304CF4F601E058FF4F70810F
:101460006C8167237A81672B60830F5F1F4FFFEFCB
:10147000CF1ADF0ACCCF3F5F4A0D5B1D8A0D9B1D43
:10148000A058BF4FBBCFC72CD12CE40FF51FAF54D2
:10149000BE4F60E870E06C197D09AC18BD0885018D
:1014A000000F111F572D2E2DCF93DF93ED01EF96D7
:1014B000EF962296A590C590FF2059F0A89C500168
:1014C000C89C600137302CF4E880D094ED20EB28E4
:1014D000E99233233AF0EC90C094EC20EA28ED92A4
:1014E0000C94730A11965A9529F72A9551F0572DA5
:1014F00033951124E00FF11DA60FB11DC60FD11DAC
:10150000D9CFDF91CF9111240F900F900F900F90B2
:10151000DF91CF911F910F91FF90EF90DF90CF90CF
:10152000BF90AF909F908F907F905F904F90089565
:10153000CF92DF92EF920F93CF93DF934115510536
:1015400069F1FA0104913196E4904E5F5F4F2223D6
:10155000F9F0C02FD0E0AE2DA695A695A695EA2F5E
:10156000F0E0A1E0B0E03E2D377011F4A0E0B0E073
:10157000AE0FBF1FCA9F6001CB9FD00CDA9FD00C6B
:1015800011242C9DF0012D9DF00D11244E0F5F1F95
:101590002AEFC22E20E030E00E94B308DF91CF9105
:1015A0000F91EF90DF90CF900895CF93DF93EC01F0
:1015B0002985220F220F8D85280F6C817D814BEEAE
:1015C00055E08A819B810E94980A49855A852D851C
:1015D0006C817D818A819B812E5F4115510521F4AB
:1015E0004BEE55E0089706C0440F440F240F4BEE16
:1015F00055E00896DF91CF910C94980AFC01218563
:10160000822F880F280F8585280F6481758149EB0B
:1016100055E0828193810C94980A2D9A0895BC011B
:1016200080E090E00C942F088FB18095807F669BBE
:1016300088601C9B846008950C94CE1DFC0162811F
:101640007381808191818038910530F46034710517
:1016500018F441E00C94270608950F931F93CF933D
:10166000DF93EC010E94621D02E010E0B8010E94CD
:10167000531E98878F830E94621D68E270E00E946B
:10168000531E41969B838A838F819885009779F4B6
:101690008FEF9FEF9983888383E090E09A87898713
:1016A0000E94621DB8010E94531E01960EC0019750
:1016B00071F481E890E0998388831A8709870E94F2
:1016C000621DB8010E94531E02979D838C83DF9197
:1016D000CF911F910F910895FC0144815581208184
:1016E0003181240F351F318320831416150624F40D
:1016F0002338310534F40895452B29F02E3F3F4F10
:1017000014F40C942D0B08950F931F93CF93DF9334
:10171000EC010E94621D60E370E00E94531E0A9675
:101720009B838A830E94621D02E010E0B8010E9440
:10173000531E98878F83009779F48FEF9FEF9983DB
:10174000888383E090E09A8789870E94621DB801B0
:101750000E94531E01960EC0019771F480E890E03C
:10176000998388831A8709870E94621DB8010E94A5
:10177000531E02979D838C83DF91CF911F910F9110
:101780000895EF92FF920F931F93CF93DF93EC0195
:101790000E94621D23E0E22EF12CB7010E94531E2D
:1017A0008D870E94621D02E010E0B8010E94531E66
:1017B0009A8789870E94621D64E270E00E94531E2E
:1017C0000D969D838C8389859A85009769F48FEFA8
:1017D0009FEF9B838A83FC86EB860E94621DB80183
:1017E0000E94531E01960EC0019771F481E890E0AB
:1017F0009B838A831C870B870E94621DB8010E940D
:10180000531E02979F838E83DF91CF911F910F917B
:10181000FF90EF900895FC0146815781228133812A
:10182000240F351F338322831416150624F42D3913
:10183000310534F40895452B29F02C3E3F4F14F424
:101840000C94C10B0895FC018091AE01811103C07D
:101850008FEF9FEF08959FB7F89482E08093E9009F
:101860002091F20030E01216130614F421E030E06B
:101870002115310559F0289884E68093AD018091B7
:10188000F10080838091F200882319F09FBFC90185
:1018900008958BE68093E800F9CF2FB7F89483E0A2
:1018A0008093E9009091E800892F807295FF04C031
:1018B0009091F20080E4891B2FBF0895CF93DF93AE
:1018C0001F92CDB7DEB76983DC01ED91FC910280F8
:1018D000F381E02D41E050E0BE016F5F7F4F09953D
:1018E0000F90DF91CF91089583E08093E90080917C
:1018F000F200882319F08AE38093E80008950E949B
:101900004D0C90E00895CF93DF931F92CDB7DEB7D3
:10191000FC018485958597FD05C02FEF3FEF358746
:1019200024870BC0CE0101960E94230C019719F465
:10193000898190E002C08FEF9FEF0F90DF91CF91F0
:1019400008950F931F93CF93DF931F92CDB7DEB708
:101950008C01FC018485958597FF0EC0CE01019610
:101960000E94230C019719F4298130E002C02FEF67
:101970003FEFF80135872487F801848595850F901E
:10198000DF91CF911F910F9108958F929F92AF9207
:10199000BF92CF92DF92EF92FF920F931F93CF935C
:1019A000DF935C016B017A0180911101882309F4B6
:1019B0005BC08091AE01882309F456C08091AC01D0
:1019C00080FF05C08091E00082608093E000E70125
:1019D00010E00AEF83E0882E9AE3992E2097D9F140
:1019E0000E944D0C81110AC0015009F43DC061E014
:1019F00070E080E090E00E942F08F0CF282F30E0C8
:101A0000C217D3070CF48C2F4FB7F8948092E900DB
:101A10009091E80095FF1DC0282F30E0C21BD30B2A
:101A2000F601982F915020F081918093F100FACF28
:101A3000C20ED31E112319F09092E80009C08091C4
:101A4000E80085FD06C09092E80011E0209709F0BB
:101A500010E04FBFC3CF1111C3CF5D9884E68093D0
:101A6000AB011E141F0444F081E090E0F501938364
:101A7000828380E090E001C0C701DF91CF911F9188
:101A80000F91FF90EF90DF90CF90BF90AF909F901D
:101A90008F90089580E0E1EBF1E081118FEF002459
:101AA00081938193819381930394D1F70895209139
:101AB0007506282329F490917406982381E009F48F
:101AC00080E00895EF92FF920F931F93CF93DF93DF
:101AD000CDB7DEB72C970FB6F894DEBF0FBECDBFE3
:101AE00049835A836B837C839E83EF82F8860987C0
:101AF0001A872B873C87E981FA816B817C814F8132
:101B0000588529853A85DF01A80FB11D4A175B0763
:101B1000A4F48B85480F511DE417F50774F48E81EA
:101B2000AB01480F511D241735073CF48C85280F55
:101B3000311D81E0621773070CF080E02C960FB620
:101B4000F894DEBF0FBECDBFDF91CF911F910F91F3
:101B5000FF90EF900895AF92BF92CF92DF92EF92F5
:101B6000FF920F931F93CF93DF93CDB7DEB72C97E0
:101B70000FB6F894DEBF0FBECDBF5C0186E0E3E395
:101B8000F1E0DE01179601900D928A95E1F7C09081
:101B9000AF01D090B00182E0C816D10468F42115DD
:101BA000310551F478876F834E5F5F4F5A874987BD
:101BB00088E08B8784E017C0C6010297029768F41B
:101BC0002115310551F46E5F7F4F78876F835A87F7
:101BD000498784E08B8788E006C078876F835A87BF
:101BE000498788E08B878C87FE01319686E0DF018C
:101BF0001D928A95E9F7F501808191819A83898305
:101C0000828193819C838B8321153105D1F4E980F6
:101C1000FA800B811C8121E031E04F815885698574
:101C20007A858B859C850E94620D8823C1F181E0B5
:101C3000D50119962D913C911A972C153D0571F5FA
:101C40002EC021303105C1F4E980FA800B811C815E
:101C500021E031E04F81588569857A858B859C85A7
:101C60000E94620D8823D9F081E0F501218532853B
:101C70002C153D05A1F412C02230310579F4E9801C
:101C8000FA800B811C8121E031E04F815885698504
:101C90007A858B859C850E94620D01C080E02C9620
:101CA0000FB6F894DEBF0FBECDBFDF91CF911F916D
:101CB0000F91FF90EF90DF90CF90BF90AF9008957D
:101CC000009769F0FC0101900020E9F73197AF011E
:101CD000481B590BBC018BE696E00C94FC0580E098
:101CE00090E00895E1EBF1E0A0E0B8E000800EBCE8
:101CF0008111012C1197A0FDFDCF0192B9F70DB410
:101D000008958091860681110DC082E0809382063D
:101D100084E080938306109285061092840681E009
:101D20008093860682E896E00895FC018485958577
:101D300097FD0BC09FB7F89482E08093E9008091F3
:101D4000F2009FBF90E0019608959FB7F89482E05B
:101D50008093E9008091F2009FBF90E00895409148
:101D6000E2065091E3062091E0063091E106421729
:101D70005307B4F49091E8009570E1F39091E80076
:101D800092FD19C08093F1008091E2069091E306E4
:101D900001968F739927892B19F48EEF8093E800B1
:101DA0008091E2069091E30601969093E30680937A
:101DB000E20681E0089580E00895DF92EF92FF92BD
:101DC0000F931F93CF93DF93D82E8A017B01E40EEC
:101DD000F51EEB01CE15DF0571F0D7FE03C0FE0145
:101DE000849101C088810E94AF0E21968111F2CFAB
:101DF0008FEF9FEF01C0C801DF91CF911F910F912D
:101E0000FF90EF90DF900895615030F02091F10045
:101E1000FC0120830196F8CF289884E68093AD01D9
:101E200008950F931F93CF93DF931F92CDB7DEB723
:101E300082E0898342E450E065E37BE080E80E9431
:101E4000DD0E0E94810EDC0112960D911C911397FC
:101E50000115110569F0D801ED91FC910280F38123
:101E6000E02DBE016F5F7F4FC801099597FF07C046
:101E700089810F90DF91CF911F910F910895F80103
:101E800000851185E5CF1F920F920FB60F92112496
:101E90008F939F938091E1009091E100937F9093C5
:101EA000E10083FF0FC01092E90091E09093EB00F6
:101EB0001092EC0092E39093ED001092AE0198E046
:101EC0009093F00082FF20C093E09093E9009091FE
:101ED000F200992319F09AE39093E8009091AB01F6
:101EE000992339F09091AB0191509093AB019923D4
:101EF00089F19091AD01992339F09091AD01915004
:101F00009093AD01992341F184FF10C08091E200CC
:101F10008E7E81608093E2008091E1008F7E8093CD
:101F2000E1008091AC018E7E806111C080FF16C0FF
:101F30008091E2008E7E80618093E2008091E100DA
:101F40008E7E8093E1008091AC018E7E81608093D3
:101F5000AC0104C05D9ACDCF289AD6CF9F918F91C6
:101F60000F900FBE0F901F9018951F920F920FB6F3
:101F70000F921124CF92DF92EF92FF920F931F9353
:101F80002F933F934F935F936F937F938F939F9381
:101F9000AF93BF93EF93FF93CF93DF93CDB7DEB7AC
:101FA0006C97DEBFCDBF1092E9008091E80083FFFF
:101FB000EDC168E0CE0145960E94040F82EF809348
:101FC000E8008D8987FF05C09091E80090FFFCCF65
:101FD00003C09EEF9093E800982F907609F0C6C05A
:101FE0009E892F89188D91110CC0803829F4809119
:101FF000DF068093F10002C01092F1001092F10010
:1020000048C1422F50E0512B913051F4811141C110
:102010004130510509F03DC18091DF068D7F0BC035
:10202000933061F4811135C14130510509F031C15E
:102030008091DF0682608093DF062BC1953041F4EA
:102040008091E80080FFFCCF20682093E30021C14D
:10205000963009F05FC0EB8CFC8C1092E900109276
:10206000E3061092E206123091F51092E10610920A
:10207000E0060E94110F99E0BE016F5F7F4FDB0108
:10208000E92F1D92EA95E9F799831A8391E09E83DF
:1020900090EA98879AEF99872091E2063091E306BB
:1020A000275F3F4F3C832B838D831092E900109272
:1020B000E3061092E206F092E106E092E00649E0C3
:1020C00050E080E00E94DD0E0E94110FE2C0F0920D
:1020D000E106E092E0060E94810EDC011296ED908E
:1020E000FC901397E114F10409F4C0C0D701ED91FD
:1020F000FC910480F581E02DBE016B5E7F4FC7012E
:102100000995009719F00CF0C4C0C7C0F701E0842E
:10211000F184E8CF973009F4C0C0983021F481E011
:102120008093F100B6C0993009F0B3C0837009F014
:10213000B4C0EAE7F1E081E021E036E39081992341
:1021400061F08093E9002093EB0091919093EC0073
:102150003093ED008F5F873089F78EE78093EA0038
:102160001092EA008F898093AE0193C08B8D9C8D75
:102170001092E9001092E3061092E2069093E106B5
:102180008093E006898D811156C08E899D89913A90
:1021900059F4813209F081C047E050E06AE071E013
:1021A00080E00E94DD0E75C0913209F076C0833266
:1021B00089F4888D90E0982F88272F89822BA0E0C2
:1021C000B0E08093120190931301A0931401B09397
:1021D00015015FC0803269F48091E80082FFFCCF76
:1021E00067E08AE091E00E94040F8BEF8093E800A3
:1021F00006C0823209F04DC08F8980931101809111
:10220000DE06882319F0EEEFFAE002C0E0E0F8E025
:1022100080910A0190910B01A0910C01B0910D01E8
:10222000803B9440A105B10509F07BC0809111016C
:1022300080FF93C076C00E94810EDC0112960D9142
:102240001C9113970115110541F1D801ED91FC91F5
:102250000190F081E02DBE016B5E7F4FC8010995B2
:10226000811117C0F80100851185ECCF113009F4F8
:102270004EC0133091F48F89882309F445C0823011
:1022800081F440E867E089E99BE00E94D91C88233B
:1022900021F08EEF8093E80079C081E28093EB001B
:1022A00075C0813029F440E86BE08DE89BE0EDCF0C
:1022B000833099F70E94810EDC011296ED90FC901C
:1022C00013978E010F5F1F4F6801E114F10479F03D
:1022D000D701ED91FC910680F781E02DB801C7018F
:1022E0000995080F111DF701E084F184EECFD801A4
:1022F0001C92F60101900020E9F73197BF016C199B
:102300007D0940E0C601C1CF67E77BE002C06BE713
:102310007BE06115710509F2FB01449150E080E812
:1023200040CF0FB6F894A8958091600088618093A3
:102330006000109260000FBEA895EE3F2AE0F20701
:1023400039F08091FE0A9091FF0A91838083A1CF9A
:102350001092FF0A1092FE0A9CCFEE3F8AE0F80727
:1023600031F0808191819093FF0A8093FE0A87E784
:1023700097E7918380839BE088E10FB6F894A89556
:10238000809360000FBE9093600083CF6C960FB671
:10239000F894DEBF0FBECDBFDF91CF91FF91EF91DB
:1023A000BF91AF919F918F917F916F915F914F916D
:1023B0003F912F911F910F91FF90EF90DF90CF9061
:1023C0000F900FBE0F901F901895CF93DF93CDB74E
:1023D000DEB7A3970FB6F894DEBF0FBECDBF7894DB
:1023E00084B5826084BD84B5816084BD85B582601A
:1023F00085BD85B5816085BD80916E0081608093CB
:102400006E00109281008091810082608093810033
:102410008091810081608093810080918000816043
:1024200080938000809191008260809391008091E0
:1024300091008160809391008091900081608093F1
:1024400090008091C10084608093C1008091C100A0
:1024500082608093C1008091C10081608093C1003F
:102460008091C30081608093C3008091C00082602E
:102470008093C0008091C20081608093C2008091EF
:102480007A00846080937A0080917A0082608093E1
:102490007A0080917A00816080937A0080917A003E
:1024A000806880937A001092AE011092DF0610923D
:1024B000AC018091D70081608093D70080EA80933F
:1024C000D80089B5806189BD89B5826089BD09B4AC
:1024D00000FEFDCF61E070E080E090E00E942F08F8
:1024E0008091D8008F7C80618093D8008091E0003B
:1024F000807F8093E0008091E1008E7E8093E100F8
:102500008DE08093E200559A209AEEEFFFE78591E7
:1025100094918B3F9C4D19F481E08093DE0681EC11
:1025200080937C0085B1806F85B984B1877E84B942
:1025300084B1876E84B95E9A5F988AB1806D8AB9DA
:10254000769A6E9881B3806F81BB899880B38D70C5
:1025500080BB80E58CBD81E08DBD85E090E00E9470
:102560000F0B5F9A85E090E00E940F0B5E985C98DD
:10257000ECE5F1E08DE08E0F94919EBD00000DB46E
:1025800007FEFDCF31968E13F7CF5C9A81E88093DA
:1025900064008091650081608093650080E00E9406
:1025A000720E0E94140B87FF24C05C9885EA8EBDD2
:1025B00000000DB407FEFDCF5C9A2E982F982D9841
:1025C0008091640080628093640081E083BF88957D
:1025D00013BEFCCF2D980E94140B8478843871F0C0
:1025E0000E94140B8471843131F188EC90E00E94D8
:1025F0000F0B0E94140B82FDEDCF3AC00E940D0B11
:1026000088EC90E00E940F0B2F9882E090E00E94EF
:10261000CE1D8F3F29F06FEF82E090E00E94D61D23
:1026200084EF91E00E940F0B2F9A0E94140B847884
:102630008438D9F3D5CF0E940D0B88EC90E00E942E
:102640000F0B2E9882E090E00E94CE1D882329F087
:1026500060E082E090E00E94D61D84EF91E00E944D
:102660000F0B2E9A0E94140B84718431D9F3BDCFC5
:102670000E940D0B82E090E00E94CE1D882331F075
:102680003E9A3F9A81E08093980104C0109298018D
:102690003E983F9881E090E00E941C0B82FB7724DB
:1026A00070F881FF8EC071102E9800EF1FEF68E068
:1026B000A62EB12C0E94140B86FF04C02E9A2F9ACE
:1026C0002D9A7FC0772029F00430110511F42E9A3D
:1026D0002F9881E00E94720E980117FF04C02227F4
:1026E0003327201B310B27703327C80117FD0796AE
:1026F00053E0959587955A95E1F717FF05C0019727
:10270000A501421B530B9A017C01F694FE2CEE248A
:10271000F794E79460E070E02501421A530AD7016C
:10272000A058BF4F4D018F3FBFEF9B0744F4019668
:10273000685A7F4F7401603B710589F721C0D7014A
:10274000AB5BBD4F40E050E08F3FEFEF9E0709F4D9
:102750007CC1FA01E60FF71FE455FF4FE4916D01CC
:10276000C818D908CE0CDF1CF0E01F01022E01C0F2
:10277000220C0A94EAF7F60160802628208265C1BF
:1027800080E00E94720E8FE090E00E940F0B0F5FBE
:102790001F4F0931110509F08DCF772011F02F9AC5
:1027A0002D9880E991E00E940F0B0E940D0BE091A3
:1027B0006F06F09170060190F081E02D8FE696E0B3
:1027C000099582E390E00E940F0B0E94140B811187
:1027D000F8CF82E4809376060E944A0D10927D061F
:1027E00010927C0610927B0610927A061092A40139
:1027F0001092A30182E090E09093B0018093AF012A
:10280000F2E08F2E912CAAE04A2E512C612C712CD3
:10281000B5E02B2E312CE3E0AE2EB12C8FB7F8941F
:1028200040919401509195016091960170919701AA
:102830008FBF80917706F42FF81B8F2F9091780629
:10284000992329F0F093790610927806F6C09091BA
:102850007606F91748F48F5F891708F0EEC081E01B
:1028600083BF889513BEE9C081E0809378064093CA
:102870007706809172069091730601969093730685
:102880008093720680917406809375060E94140BE3
:10289000809374060E944A0D10927D0610927C0669
:1028A00010927B0610927A0671EBC72E75E0D72E38
:1028B000E12CF12C6FE271E07BA36AA300E010E051
:1028C000AAA1BBA18D91BBA3AAA3811102C020E044
:1028D00004C0823041F4F601208147ED54E0B80194
:1028E000C7010E94980A005F1F4F0034110541F78D
:1028F000F0E1EF0EF11C2FEFC21AD20A40E8E41605
:10290000F104C1F661E0C62E61E0D62EE12CF12C77
:10291000D6012D916D010091A1011091A20147ED09
:1029200054E06AEF7FEFC701801B910B0E94980A69
:10293000B0E1EB0EF11CE0E9EE16F10449F70F5F90
:102940001F4F0031110529F01093A2010093A1013E
:102950002CC01092A2011092A1010E94621D209130
:102960000201209301012091030120930201209193
:10297000040120930301209105012093040120917B
:102980000601209305012091070120930601209163
:102990000801209307012091090120930801B50146
:1029A0000E94531E8F5F8093090180E80E94570D9B
:1029B000182F882359F080E20E94570D811106C01C
:1029C00080E40E94570D882309F41BC680E10E9411
:1029D000570D082F882331F080E20E94570D88237D
:1029E00009F44EC080E40E94570D882319F011238A
:1029F00009F40CC680E20E94570D882319F01123B8
:102A000009F40BC68091A5018F5F893108F044C09D
:102A10008093A5018091A3019091A401823091053A
:102A200009F4E2C00CF03BC0009709F44DC30197D4
:102A300009F459C080E00E94720E80E090E0892B7A
:102A400009F4ECCE0E940000E6CE2115310581F09C
:102A5000FA01E60FF71FE455FF4FE491F0E0042C74
:102A600002C0F595E7950A94E2F7DC90ED29EC9326
:102A70004F5F5F4F11964835510509F065CE57CE2F
:102A800080E40E94570D8111ADCF81E090E09093DA
:102A9000B0018093AF01B6CF1092A501BBCF8430B7
:102AA000910509F495C30CF478C1059709F0C2CFDC
:102AB00080E891E00E94600E8CE390E090937B06AA
:102AC00080937A068EE190E090937D0680937C0659
:102AD00020919F013091A00140E050E019A28E01A9
:102AE0000F5D1F4FDEC280910001882321F01092FC
:102AF000A501109200018091AF019091B001823048
:102B0000910529F4109262068FEF9FEF07C003979B
:102B100049F481E08093620681E090E0909368063A
:102B200080936706409165065091660648335105CB
:102B3000A4F5209163063091640680916706909118
:102B40006806820F931F909364068093630630910A
:102B5000A501337059F420916106BA01620F711D0D
:102B600027FD7A95709366066093650697FF09C006
:102B700081E090E0909368068093670680936206F8
:102B800015C08A37910594F08FEF9FEF90936806F8
:102B9000809367061092620609C080916906909141
:102BA0006A06019690936A06809369068091690689
:102BB00090916A064F974CF01092A50181E08093A6
:102BC00000019092A4018092A3016091650670912A
:102BD00066062091620645EC54E080916306909170
:102BE00064060E94980A26CF809100018823D1F0C4
:102BF000809163069091640608979093580680939D
:102C000057068091650690916606089790935A063C
:102C10008093590680916206809356061092A50112
:102C2000109200012091AF013091B00180915706C0
:102C3000909158066091590670915A0622303105DC
:102C400039F421E0209356069C012250310908C036
:102C50002330310581F4109256069C01265F3F4FC8
:102C600030935C0620935B069B012450310930931E
:102C70005E0620935D0620915F06309160062F5F0F
:102C80003F4F3093600620935F0620919F01309163
:102C9000A0012430310548F01092A50121E02093D5
:102CA0000001B092A401A092A30110915606E3E89E
:102CB000F4E00491E4E8F4E0E490112319F1A02F8A
:102CC000B0E02E2D269526952695422F50E021E046
:102CD00030E0EE2DE77011F420E030E0240F351FD6
:102CE000A29FF001A39FF00DB29FF00D11241E9F33
:102CF000A0011F9F500D11249A012F5B3B4F4B5792
:102D00005B4F04C021E434E045E854E0CC24C39494
:102D10000E94B30880915606813031F460915D06BF
:102D200070915E0621E007C081110DC060915D06C3
:102D300070915E0620E04FE254E080915B06909136
:102D40005C060E94980A0FEF15E0C8010E946C0B08
:102D5000C8010E941E0B40915D0650915E06609175
:102D60005B0670915C0621E030E0C8010E94AB0D6B
:102D7000882361F0C8010E942D0B80919F019091E2
:102D8000A00101969093A00180939F01055F1F4FC2
:102D900076E006331707C9F64DCE809100018823EF
:102DA00091F0809157069091580690934906809330
:102DB00048068091590690915A0690934B0680934D
:102DC0004A06109200012091540660914A067091C3
:102DD0004B0680914806909149062D3120F42695A6
:102DE0004DE452E01EC020919E012223B1F00091DB
:102DF0009C0110919D01F801EA5DFE4F3091500653
:102E00002081230F4BEC51E00E94980A0F5F1F4F67
:102E100010939D0100939C0106C0209150064BEC3D
:102E200051E00E94980A80919C0190919D01099720
:102E300034F010929E0110929D0110929C0180919D
:102E40009E01811120C08091AF019091B001009747
:102E500029F4109251061092500615C08230910547
:102E600019F481E090E00BC08130910529F4909233
:102E700051068092500607C08330910521F490934B
:102E80005106809350061091A501812F8370909177
:102E9000540681110CC09D3150F0209148063091AC
:102EA00049062150310930934906209348069E3146
:102EB00020F49F5F9093540602C01092550684E060
:102EC0000E94570D882389F08091550681110DC00D
:102ED000ABC3223031050CF0C0C3232B31F48CEF8F
:102EE0009FEF90934F0680934E0640914C06509171
:102EF0004D066091480670914906640F751F7093E6
:102F000049066093480620914E0630914F06809105
:102F10004A0690914B06820F931F90934B06809325
:102F20004A06141615061CF44150510905C04115F6
:102F3000510531F04F5F5F4F50934D0640934C0663
:102F4000121613061CF42150310905C02115310554
:102F500031F02F5F3F4F30934F0620934E06693775
:102F600071053CF088E790E090934906809348060D
:102F700015C077FF05C010924906109248060EC092
:102F80008F3291051CF08EE290E004C0079734F474
:102F900087E090E090934B0680934A06812F6FE084
:102FA0000E94471E911109C08091520690915306CC
:102FB0000196909353068093520680915206909109
:102FC0005306CD975CF01092A50181E0809300013B
:102FD00084E090E09093A4018093A3010FEF15E0AB
:102FE000C8010E946C0BC8010E941E0B40914A064A
:102FF00050914B06609148067091490620E030E000
:10300000C8010E94AB0D882361F0C8010E942D0BFE
:1030100080919F019091A00101969093A0018093CF
:103020009F01055F1F4F86E006331807C9F655ED6F
:10303000E52E55E0F52EDD24D394D701ED91FC91DA
:103040000280F381E02DC7010995D701ED91FC9134
:103050000190F081E02DC7010995D701ED91FC9118
:1030600040914A0650914B0660914806709149067E
:103070000480F581E02D08E010E028E030E0C70191
:103080000995882329F080915506882309F4EBC21D
:10309000BEE0EB0EF11CEFEFEE16E5E0FE0669F682
:1030A000C9CCCA01B901A30192010E94161E605D3C
:1030B000D8016E938D01211531054105510589F720
:1030C000CD010E94600EB6CC8DE290E090937B061D
:1030D00080937A068EE190E090937D0680937C0643
:1030E00089E891E00E94600E84E00E94570D8823D9
:1030F00079F1809164008E7F8093640080917A00E2
:10310000806480937A0080917A0086FDFCCF0091E4
:103110007800109179000E940A0820E030E09801C0
:1031200011270027600F711F821F931F6115710502
:103130008105910511F00E94C51D80916400816098
:103140008093640081E090E09093A4018093A301B8
:103150000FEF15E0C8010E946C0BC8010E941E0B06
:10316000055F1F4FB6E006331B07A1F705ED15E01D
:10317000D801ED91FC910280F381E02DC801099501
:10318000D801ED91FC910190F081E02DC8010995E5
:10319000025F1F4FB5E00F3F1B0751F709EB15E02A
:1031A000D801ED91FC910084F185E02DC8010995CD
:1031B000D801ED91FC910680F781E02DC8010995B9
:1031C000025F1F4FB5E0053D1B0709F433CCE8CF84
:1031D000809100018823D9F020914806309149065A
:1031E000309337062093360680914A0690914B061D
:1031F000909339068093380630933B0620933A0625
:10320000089690933D0680933C0610920001209111
:103210009B01609138067091390680913606909135
:103220003706222311F10091990110919A01F801BA
:10323000E25EFE4FF0802F2D49E651E00E94980A91
:1032400024E02F0D60913C0670913D0649E651E067
:1032500080913A0690913B060E94980A0F5F1F4F9B
:1032600010939A010093990115C02091420649E6F6
:1032700051E00E94980A209142062E5F60913C0620
:1032800070913D0649E651E080913A0690913B06E7
:103290000E94980A8091990190919A01089734F0C0
:1032A00010929B0110929A011092990100919B013A
:1032B000011114C08091AF019091B001823091054D
:1032C00029F4109243061092420608C0039731F485
:1032D00081E090E090934306809342061091A5010F
:1032E000812F69E00E94471E911110C0809138061D
:1032F000909139069C012F5F3F4F30933906209300
:103300003806099690933D0680933C0684E00E941F
:10331000570D8823D9F0011119C081E080939B01DA
:103320008091420690914306009709F0A3C18EEF69
:103330009FEF909341068093400680913E069091C6
:103340003F06039790933F0680933E0680919B0132
:1033500020913E0630913F068823A9F080913A06DD
:1033600090913B06820F931F90933B0680933A0601
:103370008091360690913706820F931F90933706FF
:103380008093360602C0137049F3809140069091F5
:1033900041064091380650913906480F591F509305
:1033A00039064093380660913C0670913D06680FDF
:1033B000791F70933D0660933C06223031051CF066
:1033C000C901019706C02F3FEFEF3E073CF4C9014A
:1033D000019690933F0680933E0607C097FF05C075
:1033E0000196909341068093400680913606909115
:1033F0003706893791055CF088E790E090933706AF
:103400008093360690933B0680933A061AC097FF46
:1034100009C0109237061092360610923B061092A1
:103420003A060FC04A3251057CF089E290E0909351
:1034300039068093380681E390E090933D068093AF
:103440003C060FEF15E00CC044305105D4F784E082
:1034500090E090933906809338068CE090E0EDCFB1
:10346000C8010E946C0BC8010E941E0B40913C06D3
:1034700050913D0660913A0670913B0622E030E0A3
:10348000C8010E94AB0D882361F0C8010E942D0B7A
:1034900080919F019091A00101969093A00180934B
:1034A0009F01055F1F4FF6E006331F07C9F695ED34
:1034B000E92E95E0F92EDD24D394D701ED91FC910E
:1034C0000280F381E02DC7010995D701ED91FC91B0
:1034D0000190F081E02DC7010995D701ED91FC9194
:1034E00040913806509139064C5F5F4F6091360627
:1034F000709137060480F581E02D04E010E028E0AB
:1035000030E0C7010995882331F0D0920001309254
:10351000A4012092A301D701ED91FC9140913C06BA
:1035200050913D0660913A0670913B060480F5810A
:10353000E02D08E010E028E030E0C701099588237D
:10354000C9F0D701ED91FC914091380650913906B0
:103550004C5F5F4F60913606709137060480F581AD
:10356000E02D04E010E028E030E0C7010995882351
:1035700009F48EC0BEE0EB0EF11CE1EFEE16E5E0C3
:10358000FE0609F09ACF89EBE82E85E0F82EDD24BF
:10359000D394D701ED91FC910084F185E02DC70112
:1035A0000995D701ED91FC910680F781E02DC701C7
:1035B0000995D701ED91FC9140913806509139065B
:1035C0004C5F5F4F60913606709137060480F5813D
:1035D000E02D0CE010E028E030E0C70109958823D9
:1035E00031F0D09200013092A4012092A301BEE0FC
:1035F000EB0EF11CE5EDEE16E5E0FE0609F41ACA45
:10360000C8CF1092B0011092AF01FCC90111F2C9EC
:10361000B092B001A092AF01F5C90111F3C9909227
:10362000B0018092AF01EEC981E080939E012091AC
:103630005006309151062130310509F04ACC8CEF0B
:103640009FEF06C02330310509F04FCC84E090E0B5
:1036500090934D0680934C0648CC2230310591F76B
:1036600084E090E03ECCD09200013092A401209200
:10367000A3010ECD019709F069CE8EEF9FEF9093D5
:10368000410680934006B0923F06A0923E065ECE71
:10369000C7010E94C10B80919F019091A0010396E8
:1036A0009093A00180939F0165CF0F931F93CF93B9
:1036B000DF938C0181E090E00E941C0B80FF32C000
:1036C0008AE090E00E941C0B9FEF980F9E3F50F500
:1036D00022E330E0D80150963C932E931F9728E3C5
:1036E00030E052963C932E935197CBE0D0E0D80136
:1036F000ED91FC910190F081E02D682FC8010995B2
:10370000CE010E941C0B2196C131D10581F780E0CA
:103710000E94720E88EE93E0DF91CF911F910F917E
:103720000C940F0BDF91CF911F910F910895049787
:103730000C94551BEF92FF920F931F93CF93DF933F
:10374000109291061092900688EE93E0A0E0B0E00F
:103750008093920690939306A0939406B093950657
:103760008DE391E090938F0680938E068FEF9FEF0D
:1037700090939B0680939A060E94621DC3E0D0E05E
:10378000BE010E94531E8C5F8093B1050E94621D92
:10379000BE010E94531E8C5F8093B2050E94621D81
:1037A000BE010E94531E8C5F8093B3050E94621D70
:1037B000BE010E94531E8C5F8093B4050E94621D5F
:1037C000BE010E94531E8C5F8093B5050E94621D4E
:1037D000BE010E94531E8C5F8093B6050E94621D3D
:1037E000BE010E94531E8C5F8093B7050E94621D2C
:1037F000BE010E94531E8C5F8093B80581E08093C8
:1038000061062EE330E0309364062093630620E1E6
:1038100030E030936606209365068093620610922E
:1038200068061092670610926A0610926906109256
:1038300058061092570610925A0610925906109286
:1038400056061092600610925F062AE030E0309330
:103850005C0620935B064CEF5FEF50935E0640934F
:103860005D06109251061092500610925306109267
:1038700052061092540680935506309349062093C1
:1038800048062EE130E030934B0620934A06109212
:10389000430610924206109245061092440610927A
:1038A00046068093470688E290E09093370680931F
:1038B0003606309339062093380690933B06809362
:1038C0003A0686E290E090933D0680933C06CFEF67
:1038D000D5E0CE010E94840B2B9686E0C633D80734
:1038E000C1F7C5EDD5E00FE511E0CE0102960E94CB
:1038F000840B198308830E94621DCE010E94C10BB4
:103900002E9685E0CF3FD80781F7C9EBD5E08FE54C
:10391000E82E81E0F82E0FE411E0CE0102960E941D
:10392000840BF982E8820E94621DCE010E94C10BC5
:10393000198308830E94621DCE010E94C10B2E963E
:1039400085E0C53DD80749F710926E0610926D06C6
:10395000109274061092750680E18093760610929C
:103960007306109272061092780689E691E09093A1
:103970006C0680936B0687E791E0909370068093C6
:103980006F0610927B0610927A0610927D061092B6
:103990007C0681E080937E0610927F0680938006ED
:1039A00010928106DF91CF911F910F91FF90EF90C0
:1039B0000895CF92DF92EF92FF920F931F93CF93D0
:1039C000DF931F92CDB7DEB7182F062FE42E862F78
:1039D000880F8E5F99830E94AF0E83E00E94AF0E26
:1039E000F12EC12E9981D92E8C2D8F19801798F424
:1039F000F601E7FE02C0849101C080810E94AF0EF3
:103A0000182F80E00E94AF0E8123FFEFCF1ADF0A4C
:103A10008111EACF01C081E00F90DF91CF911F911A
:103A20000F91FF90EF90DF90CF9008958F929F922B
:103A3000AF92BF92CF92DF92EF92FF92CF93DF933C
:103A4000EC01688179818A819B816115710581050D
:103A5000910521F464E279ED8BE597E02DE133EFF8
:103A600041E050E00E94E41D49015A019B01AC0174
:103A7000A7EAB1E40E94031E6B017C01ACEEB4EF37
:103A8000A50194010E94111EDC01CB018C0D9D1D2E
:103A9000AE1DBF1DB7FF03C00197A109B0488883C1
:103AA0009983AA83BB839F77DF91CF91FF90EF909B
:103AB000DF90CF90BF90AF909F908F9008950E941D
:103AC000161D089586E191E00E94161D0895A0E05C
:103AD000B0E08093160190931701A0931801B09362
:103AE000190108958F929F92AF92BF92CF92DF9269
:103AF000EF92FF92CF93DF93EC01688179818A8105
:103B00009B81611571058105910521F464E279EDD0
:103B10008BE597E02DE133EF41E050E00E94E41D9A
:103B200049015A019B01AC01A7EAB1E40E94031EBE
:103B30006B017C01ACEEB4EFA50194010E94111E53
:103B4000DC01CB018C0D9D1DAE1DBF1DB7FF03C059
:103B50000197A109B04888839983AA83BB83BC01DC
:103B6000CD019F77DF91CF91FF90EF90DF90CF90C5
:103B7000BF90AF909F908F9008950E94721D0895FE
:103B80008AE191E00E94721D089560931A0170937A
:103B90001B0180931C0190931D010895F999FECF9C
:103BA00092BD81BDF89A992780B50895262FF9997D
:103BB000FECF1FBA92BD81BD20BD0FB6F894FA9A10
:103BC000F99A0FBE01960895052E97FB1EF40094F6
:103BD0000E94FB1D57FD07D00E94161E07FC03D054
:103BE0004EF40C94FB1D50954095309521953F4F18
:103BF0004F4F5F4F089590958095709561957F4FD9
:103C00008F4F9F4F08950E94381EA59F900DB49F1F
:103C1000900DA49F800D911D11240895B7FF0C9461
:103C2000031E0E94031E821B930B0895A1E21A2E0D
:103C3000AA1BBB1BFD010DC0AA1FBB1FEE1FFF1F50
:103C4000A217B307E407F50720F0A21BB30BE40BA0
:103C5000F50B661F771F881F991F1A9469F76095E7
:103C60007095809590959B01AC01BD01CF010895A1
:103C7000A29FB001B39FC001A39F700D811D1124AD
:103C8000911DB29F700D811D1124911D0895991BE6
:103C900079E004C0991F961708F0961B881F7A9543
:103CA000C9F78095089597FB072E16F4009407D066
:103CB00077FD09D00E94671E07FC05D03EF4909561
:103CC00081959F4F0895709561957F4F0895AA1B28
:103CD000BB1B51E107C0AA1FBB1FA617B70710F0F7
:103CE000A61BB70B881F991F5A95A9F78095909529
:103CF000BC01CD010895EE0FFF1F0590F491E02D5A
:103D0000099481E090E0F8940C94861EF894FFCF1B
:103D10000101020103030201020300E100000000AF
:103D20000000FFFFFFFF010000000100000004058C
:103D3000060707060504000400080C0C0C08000127
:103D4000000002020002000202000000005E0CC53A
:103D50000C7F0C740C950E830CA10C00000000FE6F
:103D60000A0B0CCC07D50A31078A0700000000FEB9
:103D70000A0B0CCC07000000003F06FC052C072BAB
:103D800007551BFCFF0000971B00C180810000004D
:103D900047414D454F564552004220544F205374E1
:043DA00061727400D8
:00000001FF
