:100000000C943B090C9463090C9463090C946309E8
:100010000C9463090C9463090C9463090C946309B0
:100020000C9463090C9463090C9423140C94951498
:100030000C9463090C9463090C9463090C94630990
:100040000C9463090C9463090C9463090C94630980
:100050000C9463090C9463090C9463090C947A0A58
:100060000C9463090C9463090C9463090C94630960
:100070000C9463090C9463090C9463090C94630950
:100080000C9463090C9463090C9463090C94630940
:100090000C9463090C9463090C9463090C94630930
:1000A0000C9463090C9463090C946309E91DC41949
:1000B000FB1A1F1C921E881DC120EC2020215F21ED
:1000C000A121002244228322B522F0F89C8E87834E
:1000D000878E9CF8F00000FEFF0303030303070E66
:1000E000FCF80000FEFF0303030303070EFCF80007
:1000F00000FFFF00000000000000FFFF0000FEFF07
:100100008383838383C7EE7C380000F8FC0E0703EB
:100110000303070EFCF800003F7FE0C08080C0E0D2
:100120007F3FFFFF01010101010101FFFF0000FF0F
:10013000FF0C0C0C0C1C3E77E3C100007FFFC0C01D
:10014000C0C0C0E0703F1F00001F3F70E0C0C0C0D3
:10015000E0703F1F00007FFFC1C1C1C1C1E3773E16
:100160001C00001F3F70E0C0C0C0E0703F1F0000D7
:1001700000000001FFFF01000000D5F08D14A1C8B0
:1001800081CFD9F1AF20006772616E742068696712
:100190006865722073636F726573004C6976696E6F
:1001A00067206C6966652077696C6C0041206A6520
:1001B0006C6C692062656C6C206973207765616B7B
:1001C000200000796F7572206D6F7574682E2000A5
:1001D000466F6F642C20636174636820696E202011
:1001E00000616C6C20636F737473006269674669A9
:1001F00073682C2061766F696420617420000808A0
:100200007C487868302020207C245E766C2C0800A6
:100210004438103038786A4E331E0C0C1E56636B0F
:10022000202020306878487C00082C6C765E247C86
:100230004E6A7838301038446B63561E0C0C1E33EF
:100240007468652074656E7461636C65732E0063F9
:10025000616E2063617463682077697468006C69FB
:100260006C466973682C2061766F696420756E74C2
:10027000696C200008083C187D673F366C483C18C4
:100280001D3F363C664238103A7C68302020486C6E
:10029000363F677D183C42663C363F1D183C2020A7
:1002A00030687C3A103842207377696D73203C3E89
:1002B00020746F206D6F76652E2000666F6F64204E
:1002C000776974682054656E7461636C65732E2061
:1002D0004220004164756C74204A656C6C692C2066
:1002E000636174636820000808E0B0D0F0F0F0F0BB
:1002F000E0E0F0F0F0F0D0B0E01F608F708738439E
:100300005C5C433887708F601FE0B0D0F0F0F0F095
:10031000E0C0B0D8F8F8F8F0C000F0CCFCFCFCF07D
:10032000000030CCFEFEFC30001F603FC0C03F60CC
:100330001F033C47F8F8473C0300077FF8F87F07A6
:100340000000000FFEFE0F00007377696D732E3CF6
:100350005E3E7620746F206D6F76652E2000746F80
:100360002061766F696420666973682E20422000E0
:10037000596F756E67204D65647573612C207377B6
:10038000696D2000080820380C3C0C3C1820000047
:100390003C7E56D5000004183C303C301C04000064
:1003A000AB6A7E3C0000181C0C1C0C1C0C180000D6
:1003B0007EFFD50000001830383038303818000083
:1003C00000ABFF7E000000380C7C7C0C3800000085
:1003D0003C7E5A5A1800001C303E3E301C0000186B
:1003E0005A5A7E3C000000182C7C7C2C180000001F
:1003F0003C7E5A3C18000018343E3E341800001869
:100400003C5A7E3C00003C203E20746F206D6F768D
:10041000650077697468207468652074656E74611E
:10042000636C65732E2000506F6C79702C206361B3
:1004300074636820666F6F64000808E0180691AD69
:10044000A252484852A2AD910618E01010000000D8
:100450000000C0F068C4C444C4E8F000000000001C
:10046000001E37B4FEE7930807010000000000F00B
:10047000E8C444C4C468F0C00000000000000000EC
:1004800001070893E7FEB4371E000000003C203E41
:1004900020746F206D6F76650074686520736561E8
:1004A000666C6F6F722E20004C617276612C206337
:1004B0006F61737420746F202000080880F07C56F0
:1004C0006B351D0E0E1D356B567CF0800808E0B0B4
:1004D000D0F0F0F0F0E0E0F0F0F0F0D0B0E01F602D
:1004E0008F708738435C5C433887708F601FE0B043
:1004F000D0F0F0F0F0E0C0B0D8F8F8F8F0C000F0BC
:10050000CCFCFCFCF0000030CCFEFEFC30001F6098
:100510003FC0C03F601F033C47F8F8473C0300075B
:100520007FF8F87F070000000FFEFE0F00000808AC
:1005300020380C3C0C3C1820183C061E061E2C18BB
:100540001C3E2E1E0E3E3E1C2E1F1F2F0F3F1F2E29
:100550006E1F1D7F1F7F1F6EEE1B1DEF1FEF1FEE17
:10056000000000000000000000000000000000008B
:10057000808000000000000000000000000000007B
:100580000000000080C0C08000000080C0C080006B
:10059000000080C0C08000000000808080808080DB
:1005A000808000000000000000000000000000004B
:1005B00000000000000000000080C0C080000000BB
:1005C0000000000000000000000000000080FEFFAE
:1005D000FFFF070000C0E0E0E070F070F0F0E0C066
:1005E000000000F0FFFFFF3F0000F0FFFFFF1F00D3
:1005F00000E0F3FFFF130000F0FFFFFFFF83B39F56
:1006000083C7FFFF7E0000000080C0E0E0707070D4
:10061000F0F0E0C000000000E0F3FFFF1300000076
:100620000000000060F0F0F0E0808080E0FFFFFF5D
:100630003F010018FFFFFFFFCE8EAE9ECFEFCF1F12
:100640006680FCFFFFFF070080FCFFFFFF0F00C07C
:10065000FEFFFF7F070080FEFFFFFF9F8383B38BBA
:10066000C7FFFEFE7C0000003EFFFFFF81908EC1B1
:10067000F0FFFF7F1F00C0FEFFFFFF030000000030
:1006800000000018080F0103BFC733030F097901E9
:100690003E0000C2424739031FD373031F1171008C
:1006A000005F07037B07007807033FE303000003B5
:1006B0007F03030000CC77030383DF733F23031F13
:1006C00013F10F08180020180F0101FB0703330F67
:1006D00001013E0000FC0773131F00000000000032
:1006E000596F752053636F7265643A004E657720C9
:1006F0004869676853636F72652100080820380CE9
:100700003C0C3C182000003C7E56D5000004183CF0
:10071000303C301C040000AB6A7E3C0000181C0C0E
:100720001C0C1C0C1800007EFFD50000001830388F
:100730003038303818000000ABFF7E000000380C65
:100740007C7C0C380000003C7E5A5A1800001C309B
:100750003E3E301C0000185A5A7E3C000000182C07
:100760007C7C2C180000003C7E5A3C180000183499
:100770003E3E34180000183C5A7E3C000010100029
:1007800000000304FBFCFCFFFCFB04030000000072
:1007900000000000008FFFFF8F000000000000003D
:1007A00000000304FBACFCFFACFB040300000000F2
:1007B00000000000008FFAFA8F0000000000000027
:1007C00000000304FBAC54AF54FB04030000000022
:1007D00000000000008FF6F98F000000000000000C
:1007E00000000306FDAE55AE55FE050300000000F7
:1007F00000000000008FF6F98F00000000000000EC
:100800000000073EF5AE75AE75EE3D070000000036
:1008100000000000018FFDFB8F01000000000000C0
:1008200000031DEE75AE75AE75AEF51E030000003B
:100830000000000007BBFDFBBD070000000000003A
:10084000000CD45894589458945894D80C00000034
:10085000000000073BDDEBDDEB3D07000000000082
:100860000000C4589458945894589CC40000000048
:10087000000000073BDDEBDDEB3D07000000000062
:100880000000C04E9C589E589E588EC0000000002C
:10089000000000073BDDEBDDEB3D07000000000042
:1008A0000000C0428E589E589E4C82C0000000003E
:1008B000000000073BDDEBDDEB3D07000000000022
:1008C000000080840C981C981C8C048000000000A0
:1008D0000000010E77BAD7BAD77A0F0100000000E6
:1008E000000000040E1E1E1E1E0E0400000000006C
:1008F0000000031DEE75AE75AEF51E03000000008E
:100900000000000C0C1E1E1E1E0C0C00000000003F
:100910000000063ADCEA5CEA5CEA3C060000000003
:10092000000000081C0E1E1E0E1C08000000000027
:100930000000063ADCEA5CEA5CEA3C0600000000E3
:10094000000000101C061E061E0C10000000000017
:1009500000000C74B8D4B8D4B8D4780C00000008E7
:1009600008E0180691ADA252484852A2AD9106186F
:10097000E0101000000000C0F0F8FCFEFEFEFEFCDF
:10098000F8F0000000001E3FFFFFFFFFFF9F0F0772
:1009900001000000F0F8FCFEFEFEFEFCF8F0C000D6
:1009A000000000000001070F9FFFFFFFFFFF3F1E39
:1009B00000000010100000000000C0F068C4C44433
:1009C000C4E8F00000000000001E37B4FEE7930802
:1009D00007010000000000F0E8C444C4C468F0C08F
:1009E000000000000000000001070893E7FEB43794
:1009F0001E00000000080880F07C566B351D0E0EAE
:100A00001D356B567CF080101000000000E0B0D067
:100A1000F0F0F0F0E000000000000000005C43385F
:100A200087708F601F0000000000000000E0B0D061
:100A3000F0F0F0F0E000000000000000001E214295
:100A40001F025F611E0000000000000000E0B0D047
:100A5000F0F0F0F0E000000000000000001E27238E
:100A60001F231F231E0000000000000000E0B0D084
:100A7000F0F0F0F0E000000000000000000E170BA6
:100A80000F131F130E0000000000000000E0B0D0A4
:100A9000F0F0F0F0E00000000000000000060F0B96
:100AA0000F0B0F0B060000000000000000E0B0D0AC
:100AB000F0F0F0F0E0000000000000000003070587
:100AC00007050705030000000000000000C0E0A0CB
:100AD000E0E0E0E0C00000000000000000010302D0
:100AE0000302030201000000000000000000C0E05B
:100AF000A0E0E0C0000000000000000000000103D2
:100B00000203020100000000000000000000C0E03D
:100B1000A0E0E0C0000000000000000000000103B1
:100B20000203020100000000000000000000C0E01D
:100B3000A0F0F0D0E0000000000000000003070774
:100B40000203020100000000000000000000C0E0FD
:100B5000A0F0F0D0E000000000000000000807074F
:100B6000060702010000000000000000000000C0B5
:100B7000A0F0F0D0E000000000000000000807072F
:100B8000060702010000000000000000000000C095
:100B900060B050D0E00000000000000000080F0727
:100BA0000506030100000000001010000000000016
:100BB0000000000000000000000000000000000035
:100BC0000000000000000000000000800040808065
:100BD00000000000004080800000802041824950D9
:100BE000A18242228A0A71808122118040408000C5
:100BF00000004080800000000080804008900021BC
:100C0000A282111008819222918810800000008039
:100C1000402040800080404040808010214242417E
:100C20002010081122414824122244000000000034
:100C3000000000000000000000000009629A066148
:100C40009A0601629A0601629A066100000000009D
:100C50000000000000000000000000314E82324918
:100C600001314E8232490101314E81000000000005
:100C700000000000000000000000000501718A056E
:100C80002101728A05210902728A0508083C187D33
:100C9000673F366C483C181D3F363C664238103A78
:100CA0007C68302020486C363F677D183C42663CAB
:100CB000363F1D183C202030687C3A103808087CEC
:100CC000487868302020207C245E766C2C08004414
:100CD00038103038786A4E331E0C0C1E56636B2069
:100CE0002020306878487C00082C6C765E247C4E8E
:100CF0006A7838301038446B63561E0C0C1E330073
:100D0000000000003E5B4F5B3E3E6B4F6B3E1C3E67
:100D10007C3E1C183C7E3C181C577D571C1C5E7F7B
:100D20005E1C00183C1800FFE7C3E7FF00182418FA
:100D300000FFE7DBE7FF30483A060E26297929262F
:100D4000407F050507407F05253F5A3CE73C5A7F19
:100D50003E1C1C08081C1C3E7F14227F22145F5F6F
:100D6000005F5F06097F017F006689956A606060A9
:100D7000606094A2FFA29408047E040810207E20E4
:100D80001008082A1C08081C2A08081E1010101039
:100D90000C1E0C1E0C30383E3830060E3E0E06007F
:100DA0000000000000005F00000007000700147F43
:100DB000147F14242A7F2A122313086462364956AA
:100DC00020500008070300001C2241000041221CA3
:100DD000002A1C7F1C2A08083E080800807030008A
:100DE0000808080808000060600020100804023E9F
:100DF0005149453E00427F400072494949462141E0
:100E0000494D331814127F1027454545393C4A494E
:100E1000493141211109073649494936464949298D
:100E20001E0000140000004034000000081422419D
:100E30001414141414004122140802015909063E26
:100E4000415D594E7C1211127C7F494949363E4121
:100E50004141227F4141413E7F494949417F090942
:100E600009013E414151737F0808087F00417F41DD
:100E7000002040413F017F081422417F4040404014
:100E80007F021C027F7F0408107F3E4141413E7F6C
:100E9000090909063E4151215E7F09192946264963
:100EA00049493203017F01033F4040403F1F20403A
:100EB000201F3F4038403F63140814630304780444
:100EC000036159494D43007F41414102040810200C
:100ED000004141417F040201020440404040400083
:100EE0000307080020545478407F2844443838448D
:100EF000444428384444287F385454541800087E09
:100F0000090218A4A49C787F0804047800447D405A
:100F1000002040403D007F1028440000417F4000F9
:100F20007C047804787C080404783844444438FC11
:100F30001824241818242418FC7C08040408485495
:100F400054542404043F44243C4040207C1C204052
:100F5000201C3C4030403C44281028444C90909049
:100F60007C4464544C440008364100000077000083
:100F7000004136080002010204023C2623263C1EE2
:100F8000A1A161123A4040207A3854545559215554
:100F90005579412154547841215554784020545575
:100FA00079400C1E527212395555555939545454C2
:100FB0005939555454580000457C410002457D4242
:100FC0000001457C40F0292429F0F0282528F07CF8
:100FD000545545002054547C547C0A097F493249B9
:100FE0004949323248484832324A4848303A414109
:100FF000217A3A42402078009DA0A07D39444444A3
:10100000393D4040403D3C24FF2424487E4943660E
:101010002B2FFC2F2BFF0929F620C0887E090320E7
:10102000545479410000447D413048484A323840A8
:1010300040227A007A0A0A727D0D19317D2629290B
:101040002F28262929292630484D4020380808080D
:101050000808080808382F10C8ACBA2F102834FA2E
:1010600000007B000008142A142222142A14089578
:1010700000220095AA005500AAAA55AA55AA000068
:1010800000FF00101010FF00141414FF001010FFD8
:1010900000FF1010F010F0141414FC001414F700EA
:1010A000FF0000FF00FF1414F404FC141417101FB9
:1010B00010101F101F1414141F00101010F0000047
:1010C00000001F101010101F10101010F010000062
:1010D00000FF101010101010101010FF1000000072
:1010E000FF140000FF00FF00001F10170000FC04A9
:1010F000F414141710171414F404F40000FF00F78C
:1011000014141414141414F700F7141414171410EE
:10111000101F101F141414F4141010F010F000001D
:101120001F101F0000001F14000000FC140000F03E
:1011300010F01010FF10FF141414FF141010101FE3
:1011400000000000F010FFFFFFFFFFF0F0F0F0F0F4
:10115000FFFFFF0000000000FFFF0F0F0F0F0F3811
:10116000444438447C2A2A3E147E02020606027E4B
:10117000027E0263554941633844443C04407E206A
:101180001E2006027E020299A5E7A5991C2A492A7B
:101190001C4C7201724C304A4D4D3030487848300A
:1011A000BC625A463D3E494949007E0101017E2A02
:1011B0002A2A2A2A44445F444440514A4440404435
:1011C0004A51400000FF0103E080FF000008086B67
:1011D0006B083612362436060F090F060000181861
:1011E0000000001010003040FF0101001F01011E2F
:1011F00000191D1712003C3C3C3C0000000000019F
:1012000002040810204080080B00020202010009BD
:101210000400000102020000052400100105240161
:1012200001010424020605240600010705810310BC
:10123000004009040100020A000000070502024004
:1012400000000705830240000004030904120100A6
:1012500002EF0201404123368000010102030141F7
:10126000726475696E6F204C4C4300417264756204
:101270006F790000C12311241FBECFEFDAE0DEBF7B
:10128000CDBF11E0A0E0B1E0EEE8FDE402C00590C2
:101290000D92AC3AB107D9F727E0ACEAB1E001C052
:1012A0001D92A633B207E1F719E0CBE3D9E004C001
:1012B0002197FE010E94A626CA33D107C9F70E94D2
:1012C000C5160C94C5260C940000CF92DF92EF92C5
:1012D000FF920F931F93CF93DF936C017A018B01E1
:1012E000C0E0D0E0CE15DF0589F0D8016D918D0109
:1012F000D601ED91FC910190F081E02DC601099598
:10130000892B11F47E0102C02196ECCFC701DF9139
:10131000CF911F910F91FF90EF90DF90CF900895A4
:101320000895089580E090E008950E94C026EF920D
:10133000FF920F931F93CF93DF93CDB7DEB72C9718
:101340000FB6F894DEBF0FBECDBFFC0178876F8368
:101350005A8749872B870C87478124813581828171
:1013600093812F5F3F4F411101C008979A83898372
:101370003C832B8380E18D8386E08E83E980FA8035
:101380000B811C812D813E814F81588569857A852D
:101390008B859C850E94ED0F2C960FB6F894DEBFCE
:1013A0000FBECDBFDF91CF911F910F91FF90EF90B6
:1013B0000895EF92FF920F931F93CF93DF93CDB7D2
:1013C000DEB72C970FB6F894DEBF0FBECDBF78877F
:1013D0006F835A8749872B870C87FE01319626E059
:1013E000DF011D922A95E9F7FC01228133812F5FED
:1013F0003F4FE22E3A832983848195810196082FFD
:101400009C838B83FA801C8126E036E04F815885CF
:1014100069857A858B859C850E94ED0F2C960FB689
:10142000F894DEBF0FBECDBFDF91CF911F910F911A
:10143000FF90EF9008953FB7F8948091C20190918A
:10144000C301A091C401B091C50126B5A89B05C0F8
:101450002F3F19F00196A11DB11D3FBFBA2FA92F33
:10146000982F8827820F911DA11DB11DBC01CD01B0
:1014700042E0660F771F881F991F4A95D1F708959C
:101480008F929F92AF92BF92CF92DF92EF92FF9294
:101490006B017C010E941B0A4B015C01C114D10449
:1014A000E104F104F1F00E941B0ADC01CB01881970
:1014B0009909AA09BB09883E9340A105B10570F3BB
:1014C00021E0C21AD108E108F10888EE880E83E015
:1014D000981EA11CB11CC114D104E104F10419F738
:1014E000DDCFFF90EF90DF90CF90BF90AF909F90B7
:1014F0008F9008951F920F920FB60F9211242F9381
:101500003F938F939F93AF93BF938091AD01909141
:10151000AE01A091AF01B091B0013091C10123E0C3
:10152000230F2D3720F40196A11DB11D05C026E81B
:10153000230F0296A11DB11D2093C1018093AD011F
:101540009093AE01A093AF01B093B0018091C2011E
:101550009091C301A091C401B091C5010196A11D54
:10156000B11D8093C2019093C301A093C401B093B5
:10157000C501BF91AF919F918F913F912F910F9096
:101580000FBE0F901F9018954F925F927F928F928F
:101590009F92AF92BF92CF92DF92EF92FF920F9302
:1015A0001F93CF93DF9300D000D0CDB7DEB72901D2
:1015B0001C2DA02EB12C9C012A0D3B1D12161306CA
:1015C0000CF0B3C1803891050CF0AFC1FB01EE0DFA
:1015D000F11D1E161F060CF0A8C1603471050CF039
:1015E000A4C14115510509F4A0C1E62FE770FE2EF4
:1015F000FB0177FD3796A3E0F595E795AA95E1F70E
:10160000AE2F77FF04C0FF2011F0AFEFAE0F97FFB2
:1016100005C0EE27FF27E81BF90B02C0E0E0F0E071
:101620002038310524F020E8722E781A01C0702E7F
:101630007E1A6A2F0A2E000C770BAF3F1CF4D62EB1
:10164000D09401C0D12C21E03E2D377009F420E068
:10165000E694E694E694E20E6E0D711D6930710514
:101660001CF028E0E22EEA1AED183D2D3A0FDC01BD
:1016700020E83203A00DB11D1124AE0FBF1FD09E74
:10168000E00DF11D11244E0F5F1F81E090E04C0131
:101690000F2C02C0880C991C0A94E2F7133009F44D
:1016A00003C1A0F4113009F4B5C0123009F03DC1F6
:1016B0008FEF889DB001899D700D11246095709504
:1016C0007C836B835C802E2D230F2BC01A3F31F05F
:1016D0001B3F09F02AC12E2D230F88C02E2D230F6A
:1016E00051C0FA01E00FF11FE491E89D6001E99D0E
:1016F000D00C1124DA82C98237FD07C0FC01E080DA
:10170000EE2DE623CE2AFC01C082F11013C00F5F3C
:101710001F4F0196071528F33F5F4A0D5B1DA05828
:10172000BF4F321709F401C1CD0184539E4F00E031
:1017300010E0F0CF37305CF7FC01E058FF4FD0806D
:10174000D520CA80DC28D082E2CFFA01E60FF71F4D
:10175000E491E89D8001E99D100D11241A8309830D
:1017600037FD04C0FC011081012B0083F11013C070
:101770006F5F7F4F0196671540F33F5F4A0D5B1D1A
:10178000A058BF4F321709F4D0C0CD0184539E4FEB
:1017900060E070E0F0CF37305CF78C0100581F4FED
:1017A000F801E080EA81EE2AF801E082E1CFFA0157
:1017B000E00FF11FE491E89DC001E99D900D112417
:1017C0009A83898337FD05C08095FB019081892329
:1017D0008083F11014C00F5F1F4F6F5F7F4F07159D
:1017E00030F33F5F4A0D5B1DA058BF4F321709F41D
:1017F0009CC0BD0164537E4F00E010E0F0CF373055
:1018000054F7FB01E058FF4F8A818095908189232E
:101810008083E1CFC2018E0F9F1F2E2D230F321721
:1018200009F483C0BD0164537E4F6B0100E010E0FA
:10183000071590F5FC01E00FF11FE491E89DB00160
:10184000E99D700D1124609570957C836B83FA017E
:10185000E00FF11FE491E89D2001E99D500C112457
:101860005A82498237FD05C0F60170816723462AF6
:101870004082FF2059F037304CF4F601E058FF4F1A
:1018800070816C8167237A81672B60830F5F1F4FA4
:10189000FFEFCF1ADF0ACCCF3F5F4A0D5B1D8A0DE9
:1018A0009B1DA058BF4FBBCFC72CD12CE40FF51FF9
:1018B000A453BE4F60E870E06C197D09AC18BD08F8
:1018C0008501000F111F572D2E2DCF93DF93ED01B2
:1018D000EF96EF962296A590C590FF2059F0A89C10
:1018E0005001C89C600137302CF4E880D094ED2082
:1018F000EB28E99233233AF0EC90C094EC20EA28EC
:10190000ED920C94840C11965A9529F72A9551F072
:10191000572D33951124E00FF11DA60FB11DC60FF1
:10192000D11DD9CFDF91CF9111240F900F900F903F
:101930000F90DF91CF911F910F91FF90EF90DF906B
:10194000CF90BF90AF909F908F907F905F904F907F
:101950000895CF92DF92EF920F93CF93DF934115CB
:10196000510569F1FA0104913196E4904E5F5F4FA1
:101970002223F9F0C02FD0E0AE2DA695A695A6950E
:10198000EA2FF0E0A1E0B0E03E2D377011F4A0E0C6
:10199000B0E0AE0FBF1FCA9F6001CB9FD00CDA9F93
:1019A000D00C11242C9DF0012D9DF00D11244E0F13
:1019B0005F1F2AEFC22E20E030E00E94C40ADF91B0
:1019C000CF910F91EF90DF90CF900895CF93DF9359
:1019D000EC012F81220F220F8A85280F6C817D81D7
:1019E0004DEB5CE08A819B810E94A90C9F812A8536
:1019F0006C817D81EA81FB812E5F911105C04DEBE9
:101A00005CE0CF01089707C0990F990F290F4DEBA4
:101A10005CE0CF010896DF91CF910C94A90CFC01FA
:101A20002781822F880F280F8285280F6481758176
:101A30004BE85CE0828193810C94A90C2D9A089567
:101A4000BC0180E090E00C94400A8FB18095807FCB
:101A5000669B88601C9B846008953E9A3F9A81E053
:101A60008093AC010895EFEFF1E190E1969FD001F2
:101A7000A0781124A80F6770E60FF11D9491A4536C
:101A8000BE4F442319F08C91982B03C090958C91F4
:101A900098239C9308952F923F924F925F926F925A
:101AA0007F928F929F92AF92BF92CF92DF92EF92EE
:101AB000FF920F931F93CF93DF93CDB7DEB7279796
:101AC0000FB6F894DEBF0FBECDBFFC016A3069F4DB
:101AD00025898189928938E0239F800D911D1124E9
:101AE000928B818B108A1786A6C06D3009F4A3C033
:101AF0009F838E8335882489298333893A8361883B
:101B00007288E784F08880E8E816F104C4F0AE81BA
:101B1000BF8155962C915597422F50E01F968D917D
:101B20009C915097B6E02B9F800D911D1124EE8162
:101B3000FF81908B87872689211167C07CC0F0E4E4
:101B40006F16710424F7C70125E0329E800D911DA8
:101B5000112418161906DCF6432C512CC30138E069
:101B6000339E800D911D11241816190684F685E008
:101B7000689F800111240150134F20E0F801249048
:101B8000253009F4212C430158E020FC02C03981A2
:101B900001C03A8131110BC0F9818A81F81307C065
:101BA00026945150840C951C5111EFCF25C067012C
:101BB0008C2D8E198315A0F754018A2D8819831551
:101BC000B8F490E8C916D10478F4A0E4AA16B104D8
:101BD00058F4432FB501C6012C833B835D830E94DB
:101BE000330D5D813B812C81BFEFAB1ABB0AE5CF82
:101BF000EFEFCE1ADE0ADCCF2F5FE40CF51C0F5F8F
:101C00001F4F263009F0BACF82CF6AEF64039001EC
:101C1000659F300D112420583F4F281739075CF479
:101C2000AE81BF81ED91FC9111970190F081E02D83
:101C30006AE0CD01099581E090E027960FB6F8940F
:101C4000DEBF0FBECDBFDF91CF911F910F91FF90EF
:101C5000EF90DF90CF90BF90AF909F908F907F904C
:101C60006F905F904F903F902F900895FC0162819C
:101C70007381808191818038910530F460347105E1
:101C800018F441E00C94330D08950F931F93CF93F4
:101C9000DF93EC010E94A12502E010E0B8010E9450
:101CA00092268D830E94A12568E270E00E94922610
:101CB00041969B838A838D8181110FC08FEF9FEFA7
:101CC0009983888383E090E09F838E830E94A1257F
:101CD000B8010E9492268F5F0EC0813069F481E8BE
:101CE00090E0998388831F830E830E94A125B80109
:101CF0000E94922682508C83DF91CF911F910F9189
:101D00000895FC01448120813181240F311D47FD5C
:101D10003A9531832083141624F42338310534F4A2
:101D20000895442329F02E3F3F4F14F40C94450EA0
:101D300008950F931F93CF93DF93EC018EE190E012
:101D4000998388830E94A12560E370E00E94922617
:101D50000A969B838A830E94A12502E010E0B801C5
:101D60000E9492268D8381110FC08FEF9FEF998380
:101D7000888383E090E09F838E830E94A125B80131
:101D80000E9492268F5F0EC0813069F480E890E057
:101D9000998388831F830E830E94A125B8010E9426
:101DA000922682508C83DF91CF911F910F910895DD
:101DB00085E08093B10180E48093900080EE98E00C
:101DC000909399008093980008950F931F93CF9359
:101DD000DF93EC010E94A12502E010E0B8010E940F
:101DE00092268A870E94A125B8010E9492268F839D
:101DF0000E94A12564E270E00E9492260D969D83C8
:101E00008C838F8181110FC08FEF9FEF9B838A831B
:101E100083E090E0998788870E94A125B8010E94FD
:101E200092268F5F0EC0813069F481E890E09B8339
:101E30008A83198708870E94A125B8010E949226EB
:101E400082508E83DF91CF911F910F910895FC01F5
:101E5000468122813381240F311D47FD3A9533831A
:101E60002283141624F4293C310534F408954423C4
:101E700029F02C393F4F14F40C94E50E0895EF929D
:101E8000FF920F931F93CF93DF93EC010E94A12544
:101E900023E0E22EF12CB7010E9492268A870E944D
:101EA000A12502E010E0B8010E9492268F830E94D3
:101EB000A12564E270E00E9492260D969D838C839A
:101EC0008F8181110DC08FEF9FEF9B838A83F986ED
:101ED000E8860E94A125B8010E9492268F5F0EC05D
:101EE000813069F481E890E09B838A8319870887B1
:101EF0000E94A125B8010E94922682508E83DF9114
:101F0000CF911F910F91FF90EF900895FC014681B2
:101F100022813381240F311D47FD3A95338322837B
:101F2000141624F4213B310534F40895442329F098
:101F30002E3C3F4F14F40C943F0F0895CF93DF9342
:101F4000EC0102960E94990E89E491E099838883BE
:101F50000E94A125CE01DF91CF910C943F0FEF920B
:101F6000FF920F931F93CF93DF931F92CDB7DEB7EE
:101F70007C01FC0100811181C80169830E940D264A
:101F80006981681719F0C8010E941526C7010F90D2
:101F9000DF91CF911F910F91FF90EF90089580E016
:101FA000ECECF1E081118FEF002481938193819318
:101FB00081930394D1F7EDEBF6E0128A118A108A2F
:101FC000178608952091C706282329F49091C60604
:101FD000982381E009F480E00895EF92FF920F9337
:101FE0001F93CF93DF93CDB7DEB72C970FB6F8943E
:101FF000DEBF0FBECDBF49835A836B837C839E8334
:10200000EF82F88609871A872B873C87E981FA8156
:102010006B817C814F81588529853A85DF01A80F26
:10202000B11D4A175B07A4F48B85480F511DE417B7
:10203000F50774F48E81AB01480F511D2417350745
:102040003CF48C85280F311D81E0621773070CF07A
:1020500080E02C960FB6F894DEBF0FBECDBFDF91A7
:10206000CF911F910F91FF90EF900895AF92BF9283
:10207000CF92DF92EF92FF920F931F93CF93DF9354
:10208000CDB7DEB72C970FB6F894DEBF0FBECDBF2D
:102090005C0186E0EFE4F1E0DE01179601900D921D
:1020A0008A95E1F7C090CA01D090CB0182E0C816B2
:1020B000D10468F42115310551F478876F834E5FA0
:1020C0005F4F5A87498788E08B8784E017C0C60135
:1020D0000297029768F42115310551F46E5F7F4F26
:1020E00078876F835A87498784E08B8788E006C0AA
:1020F00078876F835A87498788E08B878C87FE01B2
:10210000319686E0DF011D928A95E9F7F50180811D
:1021100091819A838983828193819C838B8321150A
:102120003105D1F4E980FA800B811C8121E031E096
:102130004F81588569857A858B859C850E94ED0F36
:102140008823C1F181E0D50116962D913C91179716
:102150002C153D0571F52EC021303105C1F4E98003
:10216000FA800B811C8121E031E04F81588569851F
:102170007A858B859C850E94ED0F8823D9F081E0BC
:10218000F501268137812C153D05A1F412C02230BE
:10219000310579F4E980FA800B811C8121E031E07E
:1021A0004F81588569857A858B859C850E94ED0FC6
:1021B00001C080E02C960FB6F894DEBF0FBECDBFF5
:1021C000DF91CF911F910F91FF90EF90DF90CF9013
:1021D000BF90AF900895009769F0FC010190002036
:1021E000E9F73197AF01481B590BBC018DEB96E025
:1021F0000C94650980E090E008950F931F93CF93AE
:10220000DF938C01C0E0D0E0F801EC0FFD1F64917A
:10221000662371F0E091BD06F091BE060190F08159
:10222000E02D8DEB96E00995892B11F02196ECCFEE
:10223000CE01DF91CF911F910F9108952F923F9280
:102240004F925F926F927F928F929F92AF92BF92C6
:10225000CF92DF92EF92FF920F931F93CF93DF9372
:10226000CDB7DEB728970FB6F894DEBF0FBECDBF4F
:102270005A01822E912C9C01280D391D37FDC4C0B6
:10228000803891050CF0C0C09B01200F311D37FD37
:10229000BBC0603471050CF0B7C0AB0177FF04C060
:1022A00044275527461B570B477055279B0177FF3F
:1022B00002C0295F3F4FE3E035952795EA95E1F7A6
:1022C00077FF08C02150310968E070E0DB01A41BF2
:1022D000B50BAD01602F66956695669570E0077049
:1022E00011F06F5F7F4FDB01A20FB31FBA83A98389
:1022F00039017694762C662477946794680E791E5B
:10230000E12CF12C00E010E02301B0E84B0E511C51
:1023100068E070E0DB01A41BB50BBC83AB83698173
:102320007A812617370709F46FC02830310509F480
:102330006BC02F3FBFEF3B070CF45BC0B201600FD7
:10234000711FDB01A453BE4FBE83AD83D801A60D20
:10235000B71DA453BE4F6C0160E070E068157905AD
:102360000CF047C0E0E8CE16D10409F442C0D7FC17
:1023700034C02F3FFFEF3F0709F442C0FB01EE0DD1
:10238000FF1DEA0DFB1DE491042E01C0EE0F0A941F
:10239000EAF73C90E329EC9341155105F1F0273021
:1023A0003105D9F0FB01EE0DFF1DEA0DFB1DE49197
:1023B0002E2E312CF1010B8002C0F595E7950A9481
:1023C000E2F7F887EF83ED81FE813080EF81F885B9
:1023D000E3291F01ED81FE8120826F5F7F4FED8138
:1023E000FE813196FE83ED83FFEFCF1ADF0A11964F
:1023F000B5CF2F5F3F4F00581F4FE80CF91C8FCF10
:102400004115510579F6E9CF28960FB6F894DEBF4D
:102410000FBECDBFDF91CF911F910F91FF90EF9035
:10242000DF90CF90BF90AF909F908F907F906F90F4
:102430005F904F903F902F900895CF93DF930E942D
:10244000FD10EC0188EA91E00E94EB108C0F9D1FBB
:10245000DF91CF910895ECECF1E0A0E0B8E00080CE
:102460000EBC8111012C1197A0FDFDCF0192B9F78F
:102470000DB40895FC018091C901811103C08FEF53
:102480009FEF08959FB7F89482E08093E900209130
:10249000F20030E01216130614F421E030E02115AA
:1024A000310559F0289884E68093C8018091F100A5
:1024B00080838091F200882319F09FBFC90108959D
:1024C0008BE68093E800F9CF2FB7F89483E08093F0
:1024D000E9009091E800892F807295FF04C09091E7
:1024E000F20080E4891B2FBF08958F929F92AF92D4
:1024F000BF92CF92DF92EF92FF920F931F93CF93F1
:10250000DF935C016B017A0180911201882309F449
:102510005BC08091C901882309F456C08091C7012E
:1025200080FF05C08091E00082608093E000E701B9
:1025300010E00AEF83E0882E9AE3992E2097D9F1D4
:102540000E94641281110AC0015009F43DC061E08B
:1025500070E080E090E00E94400AF0CF282F30E049
:10256000C217D3070CF48C2F4FB7F8948092E90070
:102570009091E80095FF1DC0282F30E0C21BD30BBF
:10258000F601982F915020F081918093F100FACFBD
:10259000C20ED31E112319F09092E80009C0809159
:1025A000E80085FD06C09092E80011E0209709F050
:1025B00010E04FBFC3CF1111C3CF5D9884E6809365
:1025C000C6011E141F0444F081E090E0F5019383DE
:1025D000828380E090E001C0C701DF91CF911F911D
:1025E0000F91FF90EF90DF90CF90BF90AF909F90B2
:1025F0008F9008958091D80681110DC082E080935C
:10260000D40684E08093D5061092D7061092D606A1
:1026100081E08093D80684ED96E00895CF93DF9310
:102620001F92CDB7DEB76983DC01ED91FC9102808A
:10263000F381E02D41E050E0BE016F5F7F4F0995CF
:102640000F90DF91CF91089583E08093E90080910E
:10265000F200882319F08AE38093E8000895FC01D2
:102660008485958597FD0BC09FB7F89482E0809391
:10267000E9008091F2009FBF90E0019608959FB716
:10268000F89482E08093E9008091F2009FBF90E08F
:1026900008954091340750913507209132073091C9
:1026A000330742175307B4F49091E8009570E1F3B3
:1026B0009091E80092FD19C08093F1008091340759
:1026C0009091350701968F739927892B19F48EEF16
:1026D0008093E8008091340790913507019690939C
:1026E00035078093340781E0089580E00895DF92F4
:1026F000EF92FF920F931F93CF93DF93D82E8A010F
:102700007B01E40EF51EEB01CE15DF0571F0D7FE5F
:1027100003C0FE01849101C088810E944913219663
:102720008111F2CF8FEF9FEF01C0C801DF91CF91F0
:102730001F910F91FF90EF90DF900895615030F05E
:102740002091F100FC0120830196F8CF289884E6BF
:102750008093C80108950E94641290E00895CF9379
:10276000DF931F92CDB7DEB7FC018485958597FD79
:1027700005C02FEF3FEF358724870BC0CE010196B0
:102780000E943A12019719F4898190E002C08FEFFC
:102790009FEF0F90DF91CF9108950F931F93CF93E9
:1027A000DF931F92CDB7DEB78C01FC018485958540
:1027B00097FF0EC0CE0101960E943A12019719F4BC
:1027C000298130E002C02FEF3FEFF80135872487E1
:1027D000F801848595850F90DF91CF911F910F911E
:1027E00008950F931F93CF93DF931F92CDB7DEB75A
:1027F00082E0898342E450E067E072E180E80E9471
:1028000077130E94FA12DC0112960D911C91139716
:102810000115110569F0D801ED91FC910280F38159
:10282000E02DBE016F5F7F4FC801099597FF07C07C
:1028300089810F90DF91CF911F910F910895F80139
:1028400000851185E5CF1F920F920FB60F921124CC
:102850008F939F938091E1009091E100937F9093FB
:10286000E10083FF0FC01092E90091E09093EB002C
:102870001092EC0092E39093ED001092C90198E061
:102880009093F00082FF20C093E09093E900909134
:10289000F200992319F09AE39093E8009091C60111
:1028A000992339F09091C60191509093C6019923D4
:1028B00089F19091C801992339F09091C801915004
:1028C0009093C801992341F184FF10C08091E200E8
:1028D0008E7E81608093E2008091E1008F7E809304
:1028E000E1008091C7018E7E806111C080FF16C01B
:1028F0008091E2008E7E80618093E2008091E10011
:102900008E7E8093E1008091C7018E7E81608093EE
:10291000C70104C05D9ACDCF289AD6CF9F918F91E1
:102920000F900FBE0F901F9018951F920F920FB629
:102930000F921124CF92DF92EF92FF920F931F9389
:102940002F933F934F935F936F937F938F939F93B7
:10295000AF93BF93EF93FF93CF93DF93CDB7DEB7E2
:102960006C97DEBFCDBF1092E9008091E80083FF35
:10297000EDC168E0CE0145960E949E1382EF8093E0
:10298000E8008D8987FF05C09091E80090FFFCCF9B
:1029900003C09EEF9093E800982F907609F0C6C090
:1029A0009E892F89188D91110CC0803829F480914F
:1029B00031078093F10002C01092F1001092F100F3
:1029C00048C1422F50E0512B913051F4811141C147
:1029D0004130510509F03DC1809131078D7F0BC019
:1029E000933061F4811135C14130510509F031C195
:1029F000809131078260809331072BC1953041F47B
:102A00008091E80080FFFCCF20682093E30021C183
:102A1000963009F05FC0EB8CFC8C1092E9001092AC
:102A2000350710923407123091F510923307109247
:102A300032070E94F11399E0BE016F5F7F4FDB0107
:102A4000E92F1D92EA95E9F799831A8391E09E8315
:102A500090EA98879AEF998720913407309135074B
:102A6000275F3F4F3C832B838D831092E9001092A8
:102A7000350710923407F0923307E092320749E0AD
:102A800050E080E00E9477130E94F113E2C0F092C0
:102A90003307E09232070E94FA12DC011296ED90A1
:102AA000FC901397E114F10409F4C0C0D701ED9133
:102AB000FC910480F581E02DBE016B5E7F4FC70164
:102AC0000995009719F00CF0C4C0C7C0F701E08465
:102AD000F184E8CF973009F4C0C0983021F481E048
:102AE0008093F100B6C0993009F0B3C0837009F04B
:102AF000B4C0ECE8F1E081E021E036E39081992375
:102B000061F08093E9002093EB0091919093EC00A9
:102B10003093ED008F5F873089F78EE78093EA006E
:102B20001092EA008F898093C90193C08B8D9C8D90
:102B30001092E900109235071092340790933307F2
:102B400080933207898D811156C08E899D89913A73
:102B500059F4813209F081C047E050E06BE071E048
:102B600080E00E94771375C0913209F076C08332FD
:102B700089F4888D90E0982F88272F89822BA0E0F8
:102B8000B0E08093130190931401A0931501B093CA
:102B900016015FC0803269F48091E80082FFFCCFAB
:102BA00067E08BE091E00E949E138BEF8093E8003A
:102BB00006C0823209F04DC08F8980931201809146
:102BC0003007882319F0EEEFFAE002C0E0E0F8E009
:102BD00080910B0190910C01A0910D01B0910E011B
:102BE000803B9440A105B10509F07BC080911201A2
:102BF00080FF93C076C00E94FA12DC0112960D91FC
:102C00001C9113970115110541F1D801ED91FC912B
:102C10000190F081E02DBE016B5E7F4FC8010995E8
:102C2000811117C0F80100851185ECCF113009F42E
:102C30004EC0133091F48F89882309F445C0823047
:102C400081F440E867E08BE692E10E941825882332
:102C500021F08EEF8093E80079C081E28093EB0051
:102C600075C0813029F440E86BE08FE592E1EDCF4B
:102C7000833099F70E94FA12DC011296ED90FC90D5
:102C800013978E010F5F1F4F6801E114F10479F073
:102C9000D701ED91FC910680F781E02DB801C701C5
:102CA0000995080F111DF701E084F184EECFD801DA
:102CB0001C92F60101900020E9F73197BF016C19D1
:102CC0007D0940E0C601C1CF69E472E102C06DE454
:102CD00072E16115710509F2FB01449150E080E851
:102CE00040CF0FB6F894A8958091600088618093DA
:102CF0006000109260000FBEA895EE3F2AE0F20738
:102D000039F08091FE0A9091FF0A91838083A1CFD0
:102D10001092FF0A1092FE0A9CCFEE3F8AE0F8075D
:102D200031F0808191819093FF0A8093FE0A87E7BA
:102D300097E7918380839BE088E10FB6F894A8958C
:102D4000809360000FBE9093600083CF6C960FB6A7
:102D5000F894DEBF0FBECDBFDF91CF91FF91EF9111
:102D6000BF91AF919F918F917F916F915F914F91A3
:102D70003F912F911F910F91FF90EF90DF90CF9097
:102D80000F900FBE0F901F901895CF93DF93CDB784
:102D9000DEB7A1970FB6F894DEBF0FBECDBF789413
:102DA00084B5826084BD84B5816084BD85B5826050
:102DB00085BD85B5816085BD80916E008160809301
:102DC0006E0010928100809181008260809381006A
:102DD000809181008160809381008091800081607A
:102DE0008093800080919100826080939100809117
:102DF0009100816080939100809190008160809328
:102E000090008091C10084608093C1008091C100D6
:102E100082608093C1008091C10081608093C10075
:102E20008091C30081608093C3008091C000826064
:102E30008093C0008091C20081608093C200809125
:102E40007A00846080937A0080917A008260809317
:102E50007A0080917A00816080937A0080917A0074
:102E6000806880937A001092C90110923107109205
:102E7000C7018091D70081608093D70080EA80935A
:102E8000D80089B5806189BD89B5826089BD09B4E2
:102E900000FEFDCF61E070E080E090E00E94400A1B
:102EA0008091D8008F7C80618093D8008091E00071
:102EB000807F8093E0008091E1008E7E8093E1002E
:102EC0008DE08093E200559A209AEEEFFFE785911E
:102ED00094918B3F9C4D19F481E08093300781ECF5
:102EE00080937C0085B1806F85B984B1877E84B979
:102EF00084B1876E84B95E9A5F988AB1806D8AB911
:102F0000769A6E9881B3806F81BB899880B38D70FB
:102F100080BB80E58CBD81E08DBD85E090E00E94A6
:102F2000200D5F9A85E090E00E94200D5E985C98ED
:102F3000EAE7F1E08DE08E0F94919EBD00000DB4A4
:102F400007FEFDCF31968E13F7CF5C9A81E8809310
:102F500064008091650081608093650080E00E943C
:102F60002B120E94250D87FF15C05C9885EA8EBD47
:102F700000000DB407FEFDCF5C9A2E982F982D9877
:102F80008091640080628093640081E083BF8895B3
:102F900013BEFCCF02E010E00E94250D82FF42C06C
:102FA0002D980E94250D84788438C9F00E94250D43
:102FB0008471843191F50E941E0D88EC90E00E948E
:102FC000200D2E981A83098360E0CE0101960E949D
:102FD000AF0F84EF91E00E94200D2E9A19C00E943D
:102FE0001E0D88EC90E00E94200D2F981A83098313
:102FF0006FEFCE0101960E94AF0F84EF91E00E9427
:10300000200D2F9A0E94250D84788438D9F3CECFD5
:103010000E94250D84718431D9F388EC90E00E94E0
:10302000200DBACF0E941E0D82E090E00E940D2676
:10303000882319F00E942D0D04C01092AC013E9817
:103040003F9881E090E00E940D2682FB112710F945
:1030500081E090E00E940D2681FF44C011112E985E
:1030600040EFE42EFF24FA940E94250D86FF04C051
:103070002E9A2F9A2D9A36C0112331F034E0E316A0
:10308000F10411F42E9A2F9881E00E942B1200E196
:1030900028E54AEC50E0B70184E190E00E941E115F
:1030A00080E00E942B128FE090E00E94200D8FEFB5
:1030B000E81AF80A99E1E916F104B1F6112311F0C2
:1030C0002F9A2D9880E991E00E94200D0E941E0DFC
:1030D000E091C106F091C2060190F081E02D81ECF3
:1030E00096E0099582E390E00E94200D0E94250D54
:1030F0008111F8CF82E48093C8060E94CF0F10920E
:10310000BF011092BE0182E090E09093CB018093CA
:10311000CA0180E190E00E940D26182F81E190E025
:103120000E940D26133511F4843521F180E190E0E1
:103130009A83898363E5CE0101960E94AF0F81E1F6
:1031400090E09A83898364E5CE0101960E94AF0FD7
:1031500082E190E09A83898360E0CE0101960E942B
:10316000AF0F83E190E09A83898360E0CE010196FE
:103170000E94AF0F82E190E00E940D268093B6017D
:1031800083E190E00E940D268093B7012AE0422E51
:10319000512C612C712C32E0A32EB12C95E1292EFB
:1031A000312C8FB7F8944091AD015091AE016091F0
:1031B000AF017091B0018FBF8091C906A42FA81BE9
:1031C0008A2F9091CA06992331F0A093CB061092D2
:1031D000CA060C94F1229091C806A91758F48F5F83
:1031E000891710F00C94F12281E083BF889513BEFB
:1031F0000C94F12281E08093CA064093C906809125
:10320000C4069091C50601969093C5068093C406A6
:103210008091C6068093C7060E94250D8093C6063E
:103220000E94CF0F8091B101882339F081508093A3
:10323000B101882311F40C94FB220E942D0D0CEC9B
:1032400015E0812C912C81E4C82E81E0D82EE12C50
:10325000F12CF60181916F01811102C020E004C0C0
:10326000823041F4D8012C9149EA5BE0B701C401F6
:103270000E94A90CB0E1EB0EF11CE0E4EE16F104A3
:1032800041F7F0E18F0E911C0F5F1F4F20E882166F
:103290009104C9F6B2E0EB2EB1E0FB2E00E010E0A5
:1032A000D7012D917D01D090BD0149EA5BE06AEF25
:1032B0007FEFC8018D1991090E94A90C005F1F4F73
:1032C0000039110569F781E08D0D803119F0809387
:1032D000BD012BC01092BD010E94A12520910301C8
:1032E0002093020120910401209303012091050104
:1032F00020930401209106012093050120910701EC
:1033000020930601209108012093070120910901D3
:103310002093080120910A012093090163E070E0E5
:103320000E9492268F5F80930A0180E80E94E20F3C
:10333000182F882311F40C94FF2280E20E94E20FE0
:1033400081110C94FF2280E40E94E20F81110C9401
:10335000FF221092CB011092CA018091C0018F5FB1
:10336000893118F48093C00102C01092C001E0912D
:10337000BE01F091BF01E730F10510F00C94EE2290
:10338000EA5AFF4F0C94A62680910101109100018A
:10339000882309F1123068F080919206909193068B
:1033A0009093B7068093B606809194069091950607
:1033B00008C08CE390E09093B7068093B6068EE049
:1033C00090E09093B9068093B8061092BB061092D5
:1033D000C001109201018091CA019091CB0182300D
:1033E000910521F41092B5068FEF05C0039729F4DB
:1033F00081E08093B5068093BA068091BC0689313E
:1034000008F451C02091B8063091B906283331052F
:10341000BCF54091BA068091B6069091B706840F2C
:10342000911D47FD9A959093B7068093B6064091FB
:10343000C001437051F44091B406240F311D47FD83
:103440003A953093B9062093B80697FF0AC081E0F9
:103450008093BA068093B5061092B7061092B6060E
:1034600014C0893791058CF08FEF8093BA061092C3
:10347000B50688E790E09093B7068093B60605C03E
:103480008091BB068F5F8093BB068091BB068F3116
:1034900068F01092C00181E080930101B092BF01F9
:1034A000A092BE0103C08F5F8093BC066091B806F6
:1034B0007091B9068091B6069091B706123068F007
:1034C0002091BC06293148F426956450710947E0E3
:1034D0005AE004970E94A90C0AC02091B50645EF56
:1034E00059E00E94A90C123010F40C94EE220AE666
:1034F00016E0C8010E94810EC8010E94360E085FC6
:103500001F4FB6E002391B07A1F7F9E4EF2EF6E0F2
:10351000FF2E99249394A5E0CA2ED12CD701ED91CA
:10352000FC910280F381E02DC7010995D701ED914F
:10353000FC910190F081E02DC7010995D701ED9133
:10354000FC914091B8065091B9066091B606709111
:10355000B7060480F581E02D08E010E028E030E0B7
:10356000C7010995882331F090920101D092BF01E3
:10357000C092BE01BBE0EB0EF11CEFE5EE16E6E0FB
:10358000FE0661F6E0913306F09134060084F18581
:10359000E02D83E396E00995E0913306F09134063F
:1035A0000680F781E02D83E396E00995E0913306EC
:1035B000F09134064091B8065091B9066091B60674
:1035C0007091B7060284F385E02D08E010E028E052
:1035D00030E083E396E00995882311F40C94EE2201
:1035E00081E08093010185E090E09093BF0180939A
:1035F000BE010C94EE22809101018823E1F08091BC
:10360000B6069091B70608979093AC068093AB06E8
:103610008091B8069091B90608979093AE06809372
:10362000AD061092B3068091B5068093AA0610925B
:10363000C001109201018091CA019091CB01A0912B
:10364000AB06B091AC068090AD069090AE0682308D
:10365000910531F481E08093AA06CD01029706C05E
:10366000039771F41092AA06CD010A969093B006C2
:103670008093AF06C40104979093B2068093B1067D
:103680008091C0016FE00E948626911105C0809153
:10369000B3068F5F8093B3068091B3068F3158F0E5
:1036A0001092C00181E08093010123E030E030936B
:1036B000BF012093BE016091AA06E3EBF9E00491FB
:1036C000E4EBF9E0E490662319F1402F50E08E2DF1
:1036D000869586958695282F30E081E090E07E2DB6
:1036E000777011F480E090E0820F931F489F900163
:1036F000499F300D589F300D1124629FA001639F98
:10370000500D11249A012F58364F4B54564F04C078
:1037100021E739E045EB59E0CC24C394B401CD0155
:103720000E94C40A8091AA06813031F46091B106EA
:103730007091B20621E007C081110DC06091B10601
:103740007091B20620E04FE559E08091AF0690916C
:10375000B0060E94A90CEAE6EE2EE6E0FE2E8701F6
:10376000C8010E94810EC8010E94360E4091B10628
:103770005091B2066091AF067091B00621E030E042
:10378000C8010E943610882389F0C8010E94450EA6
:10379000209100018091BB019091BC01820F911D8D
:1037A0009093BC018093BB010E94D80E085F1F4F0D
:1037B00036E002391307A1F680910001823008F447
:1037C0000DC7C7010E94810EC7010E94360E88E016
:1037D000E80EF11C92E9E91696E0F90691F709E482
:1037E00016E073E3E72E76E0F72ED801ED91FC9119
:1037F0000280F381E02DC8010995D801ED91FC917B
:103800000190F081E02DC8010995D701ED91FC915F
:103810000084F185E02DC7010995D701ED91FC9158
:103820000680F781E02DC7010995055F1F4FBBE0BA
:10383000EB0EF11CE6E00F351E07B9F6CFC68091FE
:1038400001018823B1F08091AB069091AC06909372
:10385000A1068093A0068091AD069091AE0690934C
:10386000A3068093A206109201011092A70610925F
:10387000A8062091A8066091A2067091A3068091E7
:10388000A0069091A1062D3120F426954DE757E032
:103890001AC02091BA01222391F01091B901E12FB1
:1038A000F0E0E85CFE4F30812091A606230F4BEF3D
:1038B00056E00E94A90C1F5F1093B90106C0209129
:1038C000A6064BEF56E00E94A90C8091B901893001
:1038D00020F01092BA011092B9018091BA018111C1
:1038E00018C08091CA019091CB01009719F41092F1
:1038F000A6060FC08230910511F481E008C0813026
:10390000910511F482E003C0039719F483E08093DA
:10391000A6061091C001912F93708091A806911175
:103920000CC08D3150F02091A0063091A10621509D
:1039300031093093A1062093A0068E3120F48F5FC9
:103940008093A80602C01092A90684E00E94E20FAC
:10395000882359F08091A906811107C08CC6813057
:1039600008F09AC68CEF8093A5062091A40660917A
:10397000A0067091A106620F711D27FD7A957093C4
:10398000A1066093A0069091A5064091A2065091D1
:10399000A306490F511D97FD5A955093A3064093D6
:1039A000A206121614F4215003C0222319F02F5F2F
:1039B0002093A406191614F4915003C0992319F00A
:1039C0009F5F9093A506693771053CF088E790E00A
:1039D0009093A1068093A00616C077FF05C01092B1
:1039E000A1061092A0060FC0433351051CF082E3DC
:1039F00090E005C04730510534F487E090E09093A3
:103A0000A3068093A206812F6FE00E948626911163
:103A100005C08091A7068F5F8093A7068091A706B7
:103A20008F3158F01092C00181E08093010184E051
:103A300090E09093BF018093BE010AE616E0C801B2
:103A40000E94810EC8010E94360E4091A20650913C
:103A5000A3066091A0067091A10620E030E0C801A5
:103A60000E943610882389F0C8010E94450E2091DB
:103A700000018091BB019091BC01820F911D909338
:103A8000BC018093BB010E94D80E085F1F4FF6E077
:103A900002391F07A1F659E4E52E56E0F52E9924C8
:103AA000939465E0C62ED12CD701ED91FC91028054
:103AB000F381E02DC7010995D701ED91FC910190AB
:103AC000F081E02DC7010995D701ED91FC9140915E
:103AD000A2065091A3066091A0067091A1060480F1
:103AE000F581E02D08E010E028E030E0C7010995FD
:103AF000882329F08091A906882309F4D1C5BBE069
:103B0000EB0EF11CEAE6EE16E6E0FE0669F666C587
:103B10001092B8012091BB013091BC018091B60197
:103B20009091B7018217930710F40E94CF0F8EE196
:103B300090E09093CD068093CC069093CF0680932F
:103B4000CE068CEE96E00E94FD1080EE96E00E947C
:103B5000FD108CE390E09093CD068093CC0688E234
:103B600090E09093CF068093CE062091BB013091D8
:103B7000BC0140E050E019A28E010F5D1F4FCA0149
:103B8000B901A30192010E945526605DD8016E9390
:103B90008D01211531054105510589F7CD010E949F
:103BA000EB1011E01093000188E00E94E20F8823DF
:103BB00009F47DC52091BB013091BC018091B60113
:103BC0009091B7012817390708F071C510930101CA
:103BD00001C500E220E640E655E06AE070E080E1E1
:103BE00090E00E941E1102E210E01093CD060093B7
:103BF000CC068DE290E09093CF068093CE0682E9CA
:103C000091E00E94EB101093CD060093CC0687E361
:103C100090E09093CF068093CE068DE991E00E94CC
:103C2000EB1084E00E94E20F882379F18091640018
:103C30008E7F8093640080917A00806480937A0004
:103C400080917A0086FDFCCF009178001091790078
:103C50000E941B0A20E030E0980111270027600F26
:103C6000711F821F931F611571058105910511F068
:103C70000E94042680916400816080936400E1E0EA
:103C8000F0E0F093BF01E093BE010BE016E0C80145
:103C90000E94810EC8010E94360E085F1F4FF6E099
:103CA00003331F07A1F70AEE15E0D801ED91FC914F
:103CB0000280F381E02DC8010995D801ED91FC91B6
:103CC0000190F081E02DC8010995055F1F4FB6E016
:103CD0000B301B0751F704ED15E0D801ED91FC9175
:103CE0000084F185E02DC8010995D801ED91FC9182
:103CF0000680F781E02DC8010995055F1F4FB5E0EB
:103D00000A3E1B0751F788E00E94E20F882309F45E
:103D100065C486E090E09093BF018093BE0110924D
:103D2000B5015CC480910101882309F11092BC06A1
:103D30002091A0063091A10630939306209392061D
:103D40008091A2069091A306909395068093940685
:103D50003093970620939606089690939906809341
:103D6000980610929D0610929E06109201012091D5
:103D70009E068091920690919306609194067091B0
:103D800095062D3020F426954EE255E037C030914F
:103D9000B401332301F12331F0F01091B301E12F8D
:103DA000F0E0E05DFE4F0081202F4CEC54E00E94DB
:103DB000A90C24E0200F60919806709199064CECB4
:103DC00054E080919606909197060E94A90C1F5F7F
:103DD0001093B30115C020919C064CEC54E00E9456
:103DE000A90C20919C062E5F60919806709199060F
:103DF0004CEC54E080919606909197060E94A90C95
:103E00008091B301883020F01092B4011092B30178
:103E100080919E06843118F48F5F80939E060091F6
:103E2000B401011112C08091CA019091CB0182307E
:103E3000910521F410929C068FEF05C0039729F499
:103E400081E080939C0680939A061091C001812F97
:103E500069E00E948626911110C08091940690918D
:103E600095069C012F5F3F4F309395062093940653
:103E70000996909399068093980684E00E94E20F39
:103E8000882389F001110FC081E08093B4018091F3
:103E90009C06811110C48EEF80939B0680919A0638
:103EA000835080939A060E94250D2091B40183FFD0
:103EB00003C0222309F407C490919A062223C9F073
:103EC0004091960650919706292F092E000C330B2E
:103ED000420F531F509397064093960640919206C7
:103EE00050919306240F351F30939306209392062A
:103EF00003C0812F837021F380919B06482F082EE9
:103F0000000C550B2091940630919506240F351F17
:103F100030939506209394066091980670919906C7
:103F2000460F571F5093990640939806923014F00D
:103F3000915003C09F3F24F49F5F90939A0605C061
:103F400087FF03C08F5F80939B06809192069091BC
:103F50009306893791055CF088E790E0909393068B
:103F600080939206909397068093960626C097FFBB
:103F700009C0109293061092920610929706109222
:103F800096061BC02A3231054CF089E290E09093EE
:103F900095068093940681E390E00BC024303105B0
:103FA00064F484E090E090939506809394068CE00E
:103FB00090E09093990680939806812F6FE00E947D
:103FC0008626911105C080919D068F5F80939D0686
:103FD00080919D068F3180F01092C00181E0809326
:103FE0000101809100018F5F80930001E1E0F0E02A
:103FF000F093BF01E093BE010AE616E0C8010E94FB
:10400000810EC8010E94360E409198065091990683
:10401000609196067091970622E030E0C8010E94F8
:104020003610882389F0C8010E94450E20910001B6
:104030008091BB019091BC01820F911D9093BC01B6
:104040008093BB010E94D80E085F1F4FF6E0023933
:104050001F07A1F689E4E82E86E0F82EDD24D3942C
:1040600095E0892E912CD701ED91FC910280F3818E
:10407000E02DC7010995D701ED91FC910190F081E8
:10408000E02DC7010995D701ED91FC91409194066F
:10409000509195064C5F5F4F609192067091930628
:1040A0000480F581E02D04E010E028E030E0C70155
:1040B0000995882331F0D09201019092BF0180923E
:1040C000BE01D701ED91FC9140919806509199065F
:1040D00060919606709197060480F581E02D08E0C6
:1040E00010E028E030E0C70109958823C9F0D70126
:1040F000ED91FC9140919406509195064C5F5F4F75
:1041000060919206709193060480F581E02D04E0A1
:1041100010E028E030E0C7010995882309F4D7C2F0
:10412000BBE0EB0EF11CEFE5EE16E6E0FE0609F053
:104130009ACFE0913306F09134060084F185E02DAA
:1041400083E396E00995E0913306F091340606800A
:10415000F781E02D83E396E00995E0913306F09135
:10416000340640919406509195064C5F5F4F6091E4
:104170009206709193060284F385E02D0CE010E026
:1041800026CA80E80E94E20F1091B501882311F041
:10419000115006C080E10E94E20F882319F01F5FD2
:1041A0001093B50188E00E94E20F882329F08091E6
:1041B000B5018F5F8093B501E091B5018E2FEE0FB1
:1041C000990BAA0BBB0B8830910508F0F6C1FC01D6
:1041D000E35AFF4F0C94A62620E04AEB54E064E13A
:1041E00070E081E090E00E94A90C0DE010E01093D7
:1041F000CD060093CC0684E190E09093CF068093A7
:10420000CE0688EA94E00E941D121093CD0600931A
:10421000CC068EE190E09093CF068093CE0689E99C
:1042200094E00E941D121093CD060093CC0688E204
:1042300090E09093CF068093CE068DE894E03CC04A
:1042400020E04BE454E068E170E08CEF9FEF0E94C7
:10425000A90C20E049E354E064E170E084E090E0E0
:104260000E94A90C0DE010E01093CD060093CC063F
:1042700084E190E09093CF068093CE0687E294E0AD
:104280000E941D121093CD060093CC068EE190E0A3
:104290009093CF068093CE0682E194E00E941D1297
:1042A0001093CD060093CC0688E290E09093CF0661
:1042B0008093CE0686E094E00E94FD107EC11091AE
:1042C000B201E12FF0E0E95DFE4F208144E853E0C8
:1042D00064E170E081E090E00E94A90C1F5F19305A
:1042E00018F41093B20102C01092B2010DE010E078
:1042F0001093CD060093CC0684E190E09093CF0616
:104300008093CE0680E793E00E941D121093CD06A5
:104310000093CC068EE190E09093CF068093CE067A
:104320008EE593E00E941D121093CD060093CC06FB
:1043300088E290E09093CF068093CE0689E493E0E4
:10434000BBCF1091B201E12FF0E0E15EFE4F0081A2
:10435000202F47EE52E06AE070E082E090E00E9499
:10436000A90C24E0200F47EE52E062E170E082E009
:1043700090E00E94A90C20E047EE52E06EE170E070
:1043800082E090E00E94A90C22E047EE52E066E253
:1043900070E082E090E00E94A90C1F5F183018F4D2
:1043A0001093B20102C01092B2010DE010E0109320
:1043B000CD060093CC0684E190E09093CF068093E5
:1043C000CE0683ED92E00E941D121093CD0600935D
:1043D000CC068EE190E09093CF068093CE068BEBD7
:1043E00092E00E941D121093CD060093CC0688E245
:1043F00090E09093CF068093CE0686EA92E05CCF61
:1044000020E044E752E06DE070E082E090E00E943E
:10441000A90C21E044E752E06DE070E08EE090E00E
:104420000E94A90C22E044E752E06DE070E088E1D0
:1044300090E00E94A90C05E010E01093CD060093D7
:10444000CC063092CF062092CE068EE592E00E94F6
:104450001D121093CD060093CC068FE190E090934F
:10446000CF068093CE068FE492E00E941D12109337
:10447000CD060093CC0689E290E09093CF0680931E
:10448000CE0680E492E097C020E04EEF51E06DE070
:1044900070E08AE090E00E94A90C22E04EEF51E02B
:1044A0006DE070E082E090E00E94A90C21E04EEF08
:1044B00051E06DE070E08CE190E00E94A90C23E0F7
:1044C0004EEF51E06DE070E084E190E00E94A90CB5
:1044D00005E010E01093CD060093CC063092CF0695
:1044E0002092CE068BEE91E00E941D121093CD0615
:1044F0000093CC068FE190E09093CF068093CE0698
:1045000081EE91E058C041E067E170E087E090E023
:104510000E94330D0DE010E01093CD060093CC0601
:1045200084E190E09093CF068093CE0680ED91E0F9
:104530000E941D121093CD060093CC068EE190E0F0
:104540009093CF068093CE0683EC91E00E941D12DB
:104550001093CD060093CC0688E290E09093CF06AE
:104560008093CE0682EC91E0A7CEB092CD06A092C9
:10457000CC063092CF062092CE068CEA91E00E94C3
:104580001D12B092CD06A092CC068FE190E09093E0
:10459000CF068093CE068BE991E00E941D12B09267
:1045A000CD06A092CC0689E290E09093CF0680934E
:1045B000CE0687E891E00E941D128091B5018830F7
:1045C00020F01092BF011092BE0184E00E94E20F21
:1045D000882321F01092BF011092BE0180E00E945A
:1045E0002B1280E090E0892B11F40C94D1180E94DA
:1045F00000000C94CE18109290000C941D1980E1CC
:104600000E94E20F082F882391F080E20E94E20FBF
:1046100081110DC080E40E94E20F811108C021E0E9
:1046200030E03093CB012093CA010C94AD1980E4A3
:104630000E94E20F882361F011110AC0011108C025
:1046400083E090E09093CB018093CA010C94AD1964
:1046500080E20E94E20F882311F40C94AD1911112D
:104660000C94AD1901110C94AD19B092CB01A0922C
:10467000CA010C94AD1981E08093BA018091A6061D
:10468000813009F06CC98CEF04C0833009F06DC92A
:1046900084E08093A40669C98230B9F784E063C9D5
:1046A00090920101D092BF01C092BE0128CA81E060
:1046B0008093B80193CF813009F0F5CB8EEF8093D2
:1046C0009B0683E0EECB82E080939B06F5CBC7018F
:1046D0000E943F0F0E94D80E209100018091BB01E3
:1046E0009091BC01A3E02A9F800D911D112490930D
:1046F000BC018093BB0114CD0F931F93CF93DF9325
:104700008C0181E090E00E940D2680FF32C08AE09B
:1047100090E00E940D269FEF980F9E3F50F522E3F8
:1047200030E0D80150963C932E931F9728E330E059
:1047300052963C932E935197CBE0D0E0D801ED9167
:10474000FC910190F081E02D682FC8010995CE0100
:104750000E940D262196C131D10581F780E00E948B
:104760002B1288EE93E0DF91CF911F910F910C9463
:10477000200DDF91CF911F910F91089504970C9414
:104780007C23CF93DF931092E3061092E20688EE2B
:1047900093E0A0E0B0E08093E4069093E506A09358
:1047A000E606B093E70689E591E09093E1068093F1
:1047B000E0068FEF9FEF9093ED068093EC060E944A
:1047C000A125C3E0D0E0BE010E9492268C5F8093B9
:1047D000CC050E94A125BE010E9492268C5F809389
:1047E000CD050E94A125BE010E9492268C5F809378
:1047F000CE050E94A125BE010E9492268C5F809367
:10480000CF050E94A125BE010E9492268C5F809355
:10481000D0050E94A125BE010E9492268C5F809344
:10482000D1050E94A125BE010E9492268C5F809333
:10483000D2050E94A125BE010E9492268C5F809322
:10484000D30581E08093B40699E19093BC062EE3F2
:1048500030E03093B7062093B60620E130E0309385
:10486000B9062093B8068093B5061092BA06109246
:10487000BB061092AC061092AB061092AE061092D8
:10488000AD061092AA061092B3064AE050E050938B
:10489000B0064093AF066CEF7FEF7093B206609363
:1048A000B1061092A6061092A7061092A806809351
:1048B000A9065093A1064093A0064EE150E0509304
:1048C000A3064093A20610929C0610929D06109299
:1048D0009E0680939F068CE390E0909393068093CE
:1048E00092063093950620939406909397068093B2
:1048F000960688E190E09093990680939806CAE620
:10490000D6E0CE010E94990E289686E0C239D807DB
:10491000C1F789E496E00E949E0F84E596E00E942C
:104920009E0F8FE596E00E949E0F83E396E00E9423
:104930009E0FCBE6D1E0D0933406C09333060E949D
:10494000A12583E396E00E94E50E8EE396E00E94A7
:104950009E0FD0933F06C0933E060E94A1258EE392
:1049600096E00E94E50ECBE0D6E0CE010E94990EC3
:10497000289686E0C333D807C1F78AEE95E00E94F7
:104980009E0F85EF95E00E949E0F80E096E00E94CA
:104990009E0F84ED95E00E949E0FCBE6D1E0D09370
:1049A000D505C093D4050E94A12584ED95E00E9411
:1049B000E50E8FED95E00E949E0FD093E005C09329
:1049C000DF050E94A1258FED95E00E94E50E109273
:1049D000C0061092BF061092C6061092C70680E16C
:1049E0008093C8061092C5061092C4061092CA069B
:1049F0008BE791E09093BE068093BD0689E891E035
:104A00009093C2068093C1061092CD061092CC06F8
:104A10001092CF061092CE0681E08093D0061092BD
:104A2000D1068093D2061092D306DF91CF910895DC
:104A3000CF92DF92EF92FF920F931F93CF93DF936A
:104A40001F92CDB7DEB7182F062FE42E862F880FC2
:104A50008E5F99830E94491383E00E944913F12ECF
:104A6000C12E9981D92E8C2D8F19801798F4F601BB
:104A7000E7FE02C0849101C080810E944913182F73
:104A800080E00E9449138123FFEFCF1ADF0A8111D2
:104A9000EACF01C081E00F90DF91CF911F910F917C
:104AA000FF90EF90DF90CF9008958F929F92AF92FA
:104AB000BF92CF92DF92EF92FF92CF93DF93EC0100
:104AC000688179818A819B816115710581059105D4
:104AD00021F464E279ED8BE597E02DE133EF41E0DD
:104AE00050E00E94232649015A019B01AC01A7EA2C
:104AF000B1E40E9442266B017C01ACEEB4EFA5014B
:104B000094010E945026DC01CB018C0D9D1DAE1D31
:104B1000BF1DB7FF03C00197A109B04888839983DF
:104B2000AA83BB839F77DF91CF91FF90EF90DF90B7
:104B3000CF90BF90AF909F908F9008950E94552581
:104B4000089587E191E00E9455250895A0E0B0E026
:104B50008093170190931801A0931901B0931A0143
:104B600008958F929F92AF92BF92CF92DF92EF9271
:104B7000FF92CF93DF93EC01688179818A819B81D9
:104B8000611571058105910521F464E279ED8BE5EC
:104B900097E02DE133EF41E050E00E9423264901E8
:104BA0005A019B01AC01A7EAB1E40E9442266B01C5
:104BB0007C01ACEEB4EFA50194010E945026DC010B
:104BC000CB018C0D9D1DAE1DBF1DB7FF03C001970E
:104BD000A109B04888839983AA83BB83BC01CD0116
:104BE0009F77DF91CF91FF90EF90DF90CF90BF90B4
:104BF000AF909F908F9008950E94B12508958BE10A
:104C000091E00E94B125089560931B0170931C01EF
:104C100080931D0190931E010895F999FECF92BDD6
:104C200081BDF89A992780B50895262FF999FECF6E
:104C30001FBA92BD81BD20BD0FB6F894FA9AF99AB9
:104C40000FBE01960895052E97FB1EF400940E9456
:104C50003A2657FD07D00E94552607FC03D04EF494
:104C60000C943A2650954095309521953F4F4F4FE3
:104C70005F4F089590958095709561957F4F8F4F08
:104C80009F4F08950E947726A59F900DB49F900D89
:104C9000A49F800D911D11240895B7FF0C94422606
:104CA0000E944226821B930B0895A1E21A2EAA1B92
:104CB000BB1BFD010DC0AA1FBB1FEE1FFF1FA217CC
:104CC000B307E407F50720F0A21BB30BE40BF50BC9
:104CD000661F771F881F991F1A9469F76095709552
:104CE000809590959B01AC01BD01CF010895A29FD5
:104CF000B001B39FC001A39F700D811D1124911DB0
:104D0000B29F700D811D1124911D0895991B79E0AA
:104D100004C0991F961708F0961B881F7A95C9F74B
:104D20008095089597FB072E16F4009407D077FD21
:104D300009D00E94AC2607FC05D03EF490958195E1
:104D40009F4F0895709561957F4F0895EE0FFF1F57
:104D50000590F491E02D0994AA1BBB1B51E107C0FB
:104D6000AA1FBB1FA617B70710F0A61BB70B881FFB
:104D7000991F5A95A9F780959095BC01CD0108958A
:0E4D800081E090E0F8940C94C526F894FFCFE3
:104D8E00010101020103030201020300E100000020
:104D9E00000000FFFFFFFF01000000010000000403
:104DAE0005060707060504000400080C0C0C080095
:104DBE000405060707060504000400080C0C0C0881
:104DCE000001000002000000000F0D860FD909023D
:104DDE000002000202000000000E137512AB132435
:104DEE00132F13AF13CD13000000000F0D860FD934
:104DFE0009E60C270F9709000000004B0D6509927C
:104E0E000991097C23FCFF0000BE2300C1808100B4
:104E1E0000004220546F205374617274004120666A
:0C4E2E006F722068656C70000D0A0000B7
:00000001FF
