:100000000C9433090C945B090C945B090C945B0908
:100010000C945B090C945B090C945B090C945B09D0
:100020000C945B090C945B090C9403140C947514E8
:100030000C945B090C945B090C945B090C945B09B0
:100040000C945B090C945B090C945B090C945B09A0
:100050000C945B090C945B090C945B090C94730A77
:100060000C945B090C945B090C945B090C945B0980
:100070000C945B090C945B090C945B090C945B0970
:100080000C945B090C945B090C945B090C945B0960
:100090000C945B090C945B090C945B090C945B0950
:1000A0000C945B090C945B090C945B09FB1DAC1967
:1000B000F41A201CA41EB51DFA202B215F219E21BD
:1000C000E7214D229322D4220623F0F89C8E8783C9
:1000D000878E9CF8F00000FEFF0303030303070E66
:1000E000FCF80000FEFF0303030303070EFCF80007
:1000F00000FFFF00000000000000FFFF0000FEFF07
:100100008383838383C7EE7C380000F8FC0E0703EB
:100110000303070EFCF800003F7FE0C08080C0E0D2
:100120007F3FFFFF01010101010101FFFF0000FF0F
:10013000FF0C0C0C0C1C3E77E3C100007FFFC0C01D
:10014000C0C0C0E0703F1F00001F3F70E0C0C0C0D3
:10015000E0703F1F00007FFFC1C1C1C1C1E3773E16
:100160001C00001F3F70E0C0C0C0E0703F1F0000D7
:1001700000000001FFFF01000000D5F08D14A1C8B0
:1001800081CFD9F1AF20006772616E742068696712
:100190006865722073636F726573004C6976696E6F
:1001A00067206C6966652077696C6C0041206A6520
:1001B0006C6C692062656C6C206973207765616B7B
:1001C000200000796F7572206D6F7574682E2000A5
:1001D000466F6F642C20636174636820696E202011
:1001E00000616C6C20636F737473006269674669A9
:1001F00073682C2061766F696420617420000808A0
:100200007C487868302020207C245E766C2C0800A6
:100210004438103038786A4E331E0C0C1E56636B0F
:10022000202020306878487C00082C6C765E247C86
:100230004E6A7838301038446B63561E0C0C1E33EF
:100240007468652074656E7461636C65732E0063F9
:10025000616E2063617463682077697468006C69FB
:100260006C466973682C2061766F696420756E74C2
:10027000696C200008083C187D673F366C483C18C4
:100280001D3F363C664238103A7C68302020486C6E
:10029000363F677D183C42663C363F1D183C2020A7
:1002A00030687C3A103842207377696D73203C3E89
:1002B00020746F206D6F76652E2000666F6F64204E
:1002C000776974682054656E7461636C65732E2061
:1002D0004220004164756C74204A656C6C692C2066
:1002E000636174636820000808E0B0D0F0F0F0F0BB
:1002F000E0E0F0F0F0F0D0B0E01F608F708738439E
:100300005C5C433887708F601FE0B0D0F0F0F0F095
:10031000E0C0B0D8F8F8F8F0C000F0CCFCFCFCF07D
:10032000000030CCFEFEFC30001F603FC0C03F60CC
:100330001F033C47F8F8473C0300077FF8F87F07A6
:100340000000000FFEFE0F00007377696D732E3CF6
:100350005E3E7620746F206D6F76652E2000746F80
:100360002061766F696420666973682E20422000E0
:10037000596F756E67204D65647573612C207377B6
:10038000696D2000080820380C3C0C3C1820000047
:100390003C7E56D5000004183C303C301C04000064
:1003A000AB6A7E3C0000181C0C1C0C1C0C180000D6
:1003B0007EFFD50000001830383038303818000083
:1003C00000ABFF7E000000380C7C7C0C3800000085
:1003D0003C7E5A5A1800001C303E3E301C0000186B
:1003E0005A5A7E3C000000182C7C7C2C180000001F
:1003F0003C7E5A3C18000018343E3E341800001869
:100400003C5A7E3C00003C203E20746F206D6F768D
:10041000650077697468207468652074656E74611E
:10042000636C65732E2000506F6C79702C206361B3
:1004300074636820666F6F64000808E0180691AD69
:10044000A252484852A2AD910618E01010000000D8
:100450000000C0F068C4C444C4E8F000000000001C
:10046000001E37B4FEE7930807010000000000F00B
:10047000E8C444C4C468F0C00000000000000000EC
:1004800001070893E7FEB4371E000000003C203E41
:1004900020746F206D6F76650074686520736561E8
:1004A000666C6F6F722E20004C617276612C206337
:1004B0006F61737420746F202000080880F07C56F0
:1004C0006B351D0E0E1D356B567CF0800808E0B0B4
:1004D000D0F0F0F0F0E0E0F0F0F0F0D0B0E01F602D
:1004E0008F708738435C5C433887708F601FE0B043
:1004F000D0F0F0F0F0E0C0B0D8F8F8F8F0C000F0BC
:10050000CCFCFCFCF0000030CCFEFEFC30001F6098
:100510003FC0C03F601F033C47F8F8473C0300075B
:100520007FF8F87F070000000FFEFE0F00000808AC
:1005300020380C3C0C3C1820183C061E061E2C18BB
:100540001C3E2E1E0E3E3E1C2E1F1F2F0F3F1F2E29
:100550006E1F1D7F1F7F1F6EEE1B1DEF1FEF1FEE17
:10056000000000000000000000000000000000008B
:10057000808000000000000000000000000000007B
:100580000000000080C0C08000000080C0C080006B
:10059000000080C0C08000000000808080808080DB
:1005A000808000000000000000000000000000004B
:1005B00000000000000000000080C0C080000000BB
:1005C0000000000000000000000000000080FEFFAE
:1005D000FFFF070000C0E0E0E070F070F0F0E0C066
:1005E000000000F0FFFFFF3F0000F0FFFFFF1F00D3
:1005F00000E0F3FFFF130000F0FFFFFFFF83B39F56
:1006000083C7FFFF7E0000000080C0E0E0707070D4
:10061000F0F0E0C000000000E0F3FFFF1300000076
:100620000000000060F0F0F0E0808080E0FFFFFF5D
:100630003F010018FFFFFFFFCE8EAE9ECFEFCF1F12
:100640006680FCFFFFFF070080FCFFFFFF0F00C07C
:10065000FEFFFF7F070080FEFFFFFF9F8383B38BBA
:10066000C7FFFEFE7C0000003EFFFFFF81908EC1B1
:10067000F0FFFF7F1F00C0FEFFFFFF030000000030
:1006800000000018080F0103BFC733030F097901E9
:100690003E0000C2424739031FD373031F1171008C
:1006A000005F07037B07007807033FE303000003B5
:1006B0007F03030000CC77030383DF733F23031F13
:1006C00013F10F08180020180F0101FB0703330F67
:1006D00001013E0000FC0773131F00000000000032
:1006E000596F752053636F7265643A0008082038AB
:1006F0000C3C0C3C182000003C7E56D50000041831
:100700003C303C301C040000AB6A7E3C0000181CEE
:100710000C1C0C1C0C1800007EFFD50000001830CB
:10072000383038303818000000ABFF7E0000003849
:100730000C7C7C0C380000003C7E5A5A1800001CCF
:10074000303E3E301C0000185A5A7E3C0000001813
:100750002C7C7C2C180000003C7E5A3C18000018B1
:10076000343E3E34180000183C5A7E3C0000101005
:100770000000000304FBFCFCFFFCFB040300000082
:100780000000000000008FFFFF8F0000000000004D
:100790000000000304FBACFCFFACFB040300000002
:1007A0000000000000008FFAFA8F00000000000037
:1007B0000000000304FBAC54AF54FB040300000032
:1007C0000000000000008FF6F98F0000000000001C
:1007D0000000000306FDAE55AE55FE050300000007
:1007E0000000000000008FF6F98F000000000000FC
:1007F000000000073EF5AE75AE75EE3D0700000047
:100800000000000000018FFDFB8F010000000000D0
:100810000000031DEE75AE75AE75AEF51E0300004B
:10082000000000000007BBFDFBBD0700000000004A
:1008300000000CD45894589458945894D80C000044
:1008400000000000073BDDEBDDEB3D070000000092
:10085000000000C4589458945894589CC400000058
:1008600000000000073BDDEBDDEB3D070000000072
:10087000000000C04E9C589E589E588EC00000003C
:1008800000000000073BDDEBDDEB3D070000000052
:10089000000000C0428E589E589E4C82C00000004E
:1008A00000000000073BDDEBDDEB3D070000000032
:1008B00000000080840C981C981C8C0480000000B0
:1008C000000000010E77BAD7BAD77A0F01000000F6
:1008D00000000000040E1E1E1E1E0E04000000007C
:1008E000000000031DEE75AE75AEF51E030000009E
:1008F000000000000C0C1E1E1E1E0C0C0000000050
:10090000000000063ADCEA5CEA5CEA3C0600000013
:1009100000000000081C0E1E1E0E1C080000000037
:10092000000000063ADCEA5CEA5CEA3C06000000F3
:1009300000000000101C061E061E0C100000000027
:100940000000000C74B8D4B8D4B8D4780C000000FF
:100950000808E0180691ADA252484852A2AD91068F
:1009600018E0101000000000C0F0F8FCFEFEFEFED3
:10097000FCF8F0000000001E3FFFFFFFFFFF9F0F8D
:100980000701000000F0F8FCFEFEFEFEFCF8F0C0DF
:1009900000000000000001070F9FFFFFFFFFFF3F67
:1009A0001E00000010100000000000C0F068C4C469
:1009B00044C4E8F00000000000001E37B4FEE793D6
:1009C0000807010000000000F0E8C444C4C468F057
:1009D000C0000000000000000001070893E7FEB41B
:1009E000371E00000000080880F07C566B351D0E95
:1009F0000E1D356B567CF080101000000000E0B03A
:100A0000D0F0F0F0F0E000000000000000005C43D7
:100A10003887708F601F0000000000000000E0B009
:100A2000D0F0F0F0F0E000000000000000001E2117
:100A3000421F025F611E0000000000000000E0B0E5
:100A4000D0F0F0F0F0E000000000000000001E27F1
:100A5000231F231F231E0000000000000000E0B041
:100A6000D0F0F0F0F0E000000000000000000E17F1
:100A70000B0F131F130E0000000000000000E0B079
:100A8000D0F0F0F0F0E00000000000000000060FE1
:100A90000B0F0B0F0B060000000000000000E0B081
:100AA000D0F0F0F0F0E000000000000000000307CC
:100AB0000507050705030000000000000000C0E076
:100AC000A0E0E0E0E0C00000000000000000010342
:100AD000020302030201000000000000000000C049
:100AE000E0A0E0E0C0000000000000000000000105
:100AF000030203020100000000000000000000C02B
:100B0000E0A0E0E0C00000000000000000000001E4
:100B1000030203020100000000000000000000C00A
:100B2000E0A0F0F0D0E000000000000000000307AB
:100B3000070203020100000000000000000000C0E6
:100B4000E0A0F0F0D0E00000000000000000080786
:100B5000070607020100000000000000000000007E
:100B6000C0A0F0F0D0E00000000000000000080786
:100B7000070607020100000000000000000000005E
:100B8000C060B050D0E00000000000000000080F7E
:100B9000070506030100000000001010000000001F
:100BA0000000000000000000000000000000000045
:100BB00000000000000000000000000080004080F5
:100BC00080000000000040808000008020418249B9
:100BD00050A18242228A0A71808122118040408085
:100BE00000000040808000000000808040089000ED
:100BF00021A28211100881922291881080000000A9
:100C0000804020408000804040408080102142424F
:100C10004120100811224148241222440000000003
:100C200000000000000000000000000009629A06B9
:100C3000619A0601629A0601629A0661000000004C
:100C4000000000000000000000000000314E823271
:100C50004901314E8232490101314E8100000000CC
:100C60000000000000000000000000000501718A83
:100C7000052101728A05210902728A0508083C18BB
:100C80007D673F366C483C181D3F363C6642381045
:100C90003A7C68302020486C363F677D183C4266BD
:100CA0003C363F1D183C202030687C3A103808083C
:100CB0007C487868302020207C245E766C2C0800EC
:100CC0004438103038786A4E331E0C0C1E56636B55
:100CD000202020306878487C00082C6C765E247CCC
:100CE0004E6A7838301038446B63561E0C0C1E3335
:100CF00000000000003E5B4F5B3E3E6B4F6B3E1CB6
:100D00003E7C3E1C183C7E3C181C577D571C1C5ECC
:100D10007F5E1C00183C1800FFE7C3E7FF001824A3
:100D20001800FFE7DBE7FF30483A060E262979294D
:100D300026407F050507407F05253F5A3CE73C5A82
:100D40007F3E1C1C08081C1C3E7F14227F22145F5F
:100D50005F005F5F06097F017F006689956A6060BA
:100D600060606094A2FFA29408047E040810207EB4
:100D7000201008082A1C08081C2A08081E10101039
:100D8000100C1E0C1E0C30383E3830060E3E0E067F
:100D9000000000000000005F0000000700070014D2
:100DA0007F147F14242A7F2A122313086462364991
:100DB0005620500008070300001C22410000412279
:100DC0001C002A1C7F1C2A08083E0808008070307E
:100DD00000080808080800006060002010080402ED
:100DE0003E5149453E00427F4000724949494621F3
:100DF00041494D331814127F1027454545393C4A67
:100E0000494931412111090736494949364649497D
:100E1000291E0000140000004034000000081422C5
:100E20004114141414140041221408020159090633
:100E30003E415D594E7C1211127C7F494949363E34
:100E4000414141227F4141413E7F494949417F091A
:100E50000909013E414151737F0808087F00417F25
:100E600041002040413F017F081422417F40404023
:100E7000407F021C027F7F0408107F3E4141413EBB
:100E80007F090909063E4151215E7F09192946263D
:100E90004949493203017F01033F4040403F1F2041
:100EA00040201F3F4038403F631408146303047818
:100EB00004036159494D43007F4141410204081038
:100EC00020004141417F0402010204404040404073
:100ED000000307080020545478407F2844443838E1
:100EE00044444428384444287F3854545418000853
:100EF0007E090218A4A49C787F0804047800447D2D
:100F000040002040403D007F1028440000417F40C9
:100F1000007C047804787C0804047838444444381D
:100F2000FC1824241818242418FC7C0804040848FD
:100F30005454542404043F44243C4040207C1C204E
:100F400040201C3C4030403C44281028444C9090A9
:100F5000907C4464544C4400083641000000770003
:100F600000004136080002010204023C2623263C10
:100F70001EA1A161123A4040207A3854545559219B
:100F80005555794121545478412155547840205485
:100F90005579400C1E5272123955555559395454D1
:100FA000545939555454580000457C410002457D40
:100FB000420001457C40F0292429F0F0282528F042
:100FC0007C545545002054547C547C0A097F493296
:100FD000494949323248484832324A4848303A4111
:100FE00041217A3A42402078009DA0A07D394444B6
:100FF00044393D4040403D3C24FF2424487E494341
:10100000662B2FFC2F2BFF0929F620C0887E0903B1
:1010100020545479410000447D413048484A3238D8
:101020004040227A007A0A0A727D0D19317D262904
:10103000292F28262929292630484D4020380808FC
:10104000080808080808382F10C8ACBA2F10283430
:10105000FA00007B000008142A142222142A140823
:101060009500220095AA005500AAAA55AA55AA00E3
:101070000000FF00101010FF00141414FF001010E7
:10108000FF00FF1010F010F0141414FC001414F7FB
:1010900000FF0000FF00FF1414F404FC14141710E8
:1010A0001F10101F101F1414141F00101010F00038
:1010B0000000001F101010101F10101010F0100072
:1010C0000000FF101010101010101010FF10000082
:1010D00000FF140000FF00FF00001F10170000FCBD
:1010E00004F414141710171414F404F40000FF008F
:1010F000F714141414141414F700F7141414171418
:1011000010101F101F141414F4141010F010F0001D
:10111000001F101F0000001F14000000FC1400003E
:10112000F010F01010FF10FF141414FF1410101022
:101130001F00000000F010FFFFFFFFFFF0F0F0F0D5
:10114000F0FFFFFF0000000000FFFF0F0F0F0F0F69
:1011500038444438447C2A2A3E147E0202060602A1
:101160007E027E0263554941633844443C04407E1C
:10117000201E2006027E020299A5E7A5991C2A4995
:101180002A1C4C7201724C304A4D4D303048784820
:1011900030BC625A463D3E494949007E0101017E0C
:1011A0002A2A2A2A2A44445F444440514A4440405F
:1011B000444A51400000FF0103E080FF000008089E
:1011C0006B6B083612362436060F090F060000181E
:1011D000180000001010003040FF0101001F010145
:1011E0001E00191D1712003C3C3C3C000000000092
:1011F0000102040810204080080B000202020100D6
:101200000904000001020200000524001001052469
:1012100001010104240206052406000107058103DB
:1012200010004009040100020A0000000705020244
:101230004000000705830240000004030904120176
:101240000002EF0201404123368000010102030148
:1012500041726475696E6F204C4C43004172647535
:10126000626F7900F52311241FBECFEFDAE0DEBFF5
:10127000CDBF11E0A0E0B1E0E2E1FEE402C00590E4
:101280000D92A43BB107D9F727E0A4EBB1E001C070
:101290001D92A738B207E1F719E0C3E3D9E004C013
:1012A0002197FE010E94E826C233D107C9F70E94A8
:1012B000A5160C9407270C940000CF92DF92EF92B2
:1012C000FF920F931F93CF93DF936C017A018B01F1
:1012D000C0E0D0E0CE15DF0589F0D8016D918D0119
:1012E000D601ED91FC910190F081E02DC6010995A8
:1012F000892B11F47E0102C02196ECCFC701DF914A
:10130000CF911F910F91FF90EF90DF90CF900895B4
:101310000895089580E090E008950E940227EF92DA
:10132000FF920F931F93CF93DF93CDB7DEB72C9728
:101330000FB6F894DEBF0FBECDBFFC0178876F8378
:101340005A8749872B870C874185528524813581AF
:10135000828193812F5F3F4F452B09F408979A8331
:1013600089833C832B8380E18D8386E08E83E980B3
:10137000FA800B811C812D813E814F8158856985C2
:101380007A858B859C850E94CD0F2C960FB6F8949C
:10139000DEBF0FBECDBFDF91CF911F910F91FF90A8
:1013A000EF900895EF92FF920F931F93CF93DF93E7
:1013B000CDB7DEB72C970FB6F894DEBF0FBECDBF0A
:1013C00078876F835A8749872B870C87FE01319670
:1013D00026E0DF011D922A95E9F7FC012281338185
:1013E0002F5F3F4FE22E3A832983848195810196B6
:1013F000082F9C838B83FA801C8126E036E04F8186
:10140000588569857A858B859C850E94CD0F2C96A1
:101410000FB6F894DEBF0FBECDBFDF91CF911F9105
:101420000F91FF90EF9008953FB7F8948091CC0111
:101430009091CD01A091CE01B091CF0126B5A89B8E
:1014400005C02F3F19F00196A11DB11D3FBFBA2F56
:10145000A92F982F8827820F911DA11DB11DBC01B6
:10146000CD0142E0660F771F881F991F4A95D1F77B
:1014700008958F929F92AF92BF92CF92DF92EF9298
:10148000FF926B017C010E94140A4B015C01C114A4
:10149000D104E104F104F1F00E94140ADC01CB0153
:1014A00088199909AA09BB09883E9340A105B1058D
:1014B00070F321E0C21AD108E108F10888EE880E25
:1014C00083E0981EA11CB11CC114D104E104F104F5
:1014D00019F7DDCFFF90EF90DF90CF90BF90AF90E6
:1014E0009F908F9008951F920F920FB60F92112424
:1014F0002F933F938F939F93AF93BF938091B501A9
:101500009091B601A091B701B091B8013091CB0193
:1015100023E0230F2D3720F40196A11DB11D05C036
:1015200026E8230F0296A11DB11D2093CB018093C5
:10153000B5019093B601A093B701B093B801809123
:10154000CC019091CD01A091CE01B091CF01019637
:10155000A11DB11D8093CC019093CD01A093CE012C
:10156000B093CF01BF91AF919F918F913F912F91F8
:101570000F900FBE0F901F9018954F925F927F9221
:101580008F929F92AF92BF92CF92DF92EF92FF9293
:101590000F931F93CF93DF9300D000D0CDB7DEB76A
:1015A00029011C2DA02EB12C9C012A0D3B1D1216C9
:1015B00013060CF0B3C1803891050CF0AFC1FB01EC
:1015C000EE0DF11D1E161F060CF0A8C1603471054A
:1015D0000CF0A4C14115510509F4A0C1E62FE77034
:1015E000FE2EFB0177FD3796A3E0F595E795AA95CA
:1015F000E1F7AE2F77FF04C0FF2011F0AFEFAE0F81
:1016000097FF05C0EE27FF27E81BF90B02C0E0E0BB
:10161000F0E02038310524F020E8722E781A01C05D
:10162000702E7E1A6A2F0A2E000C770BAF3F1CF427
:10163000D62ED09401C0D12C21E03E2D377009F474
:1016400020E0E694E694E694E20E6E0D711D69309A
:1016500071051CF028E0E22EEA1AED183D2D3A0F34
:10166000DC0120E83203A00DB11D1124AE0FBF1F15
:10167000D09EE00DF11D11244E0F5F1F81E090E020
:101680004C010F2C02C0880C991C0A94E2F713300D
:1016900009F403C1A0F4113009F4B5C0123009F007
:1016A0003DC18FEF889DB001899D700D112460951B
:1016B00070957C836B835C802E2D230F2BC01A3F8B
:1016C00031F01B3F09F02AC12E2D230F88C02E2D8B
:1016D000230F51C0FA01E00FF11FE491E89D600172
:1016E000E99DD00C1124DA82C98237FD07C0FC01C4
:1016F000E080EE2DE623CE2AFC01C082F11013C05B
:101700000F5F1F4F0196071528F33F5F4A0D5B1DC2
:10171000A058BF4F321709F401C1CD018A529E4F24
:1017200000E010E0F0CF37305CF7FC01E058FF4FED
:10173000D080D520CA80DC28D082E2CFFA01E60F23
:10174000F71FE491E89D8001E99D100D11241A8393
:10175000098337FD04C0FC011081012B0083F110C7
:1017600013C06F5F7F4F0196671540F33F5F4A0DCF
:101770005B1DA058BF4F321709F4D0C0CD018A526B
:101780009E4F60E070E0F0CF37305CF78C0100587E
:101790001F4FF801E080EA81EE2AF801E082E1CFF4
:1017A000FA01E00FF11FE491E89DC001E99D900D61
:1017B00011249A83898337FD05C08095FB019081B0
:1017C00089238083F11014C00F5F1F4F6F5F7F4F1D
:1017D000071530F33F5F4A0D5B1DA058BF4F32170E
:1017E00009F49CC0BD016A527E4F00E010E0F0CFCA
:1017F000373054F7FB01E058FF4F8A818095908184
:1018000089238083E1CFC2018E0F9F1F2E2D230FCE
:10181000321709F483C0BD016A527E4F6B0100E0AC
:1018200010E0071590F5FC01E00FF11FE491E89D31
:10183000B001E99D700D1124609570957C836B83D8
:10184000FA01E00FF11FE491E89D2001E99D500CA1
:1018500011245A82498237FD05C0F6017081672341
:10186000462A4082FF2059F037304CF4F601E05808
:10187000FF4F70816C8167237A81672B60830F5FD4
:101880001F4FFFEFCF1ADF0ACCCF3F5F4A0D5B1D22
:101890008A0D9B1DA058BF4FBBCFC72CD12CE40F86
:1018A000F51FAA52BE4F60E870E06C197D09AC18B4
:1018B000BD088501000F111F572D2E2DCF93DF93EB
:1018C000ED01EF96EF962296A590C590FF2059F076
:1018D000A89C5001C89C600137302CF4E880D0945B
:1018E000ED20EB28E99233233AF0EC90C094EC2001
:1018F000EA28ED920C947D0C11965A9529F72A95B9
:1019000051F0572D33951124E00FF11DA60FB11D95
:10191000C60FD11DD9CFDF91CF9111240F900F9019
:101920000F900F90DF91CF911F910F91FF90EF904B
:10193000DF90CF90BF90AF909F908F907F905F90FF
:101940004F900895CF92DF92EF920F93CF93DF9352
:101950004115510569F1FA0104913196E4904E5F09
:101960005F4F2223F9F0C02FD0E0AE2DA695A695AB
:10197000A695EA2FF0E0A1E0B0E03E2D377011F41B
:10198000A0E0B0E0AE0FBF1FCA9F6001CB9FD00C9C
:10199000DA9FD00C11242C9DF0012D9DF00D112407
:1019A0004E0F5F1F2AEFC22E20E030E00E94BD0ADA
:1019B000DF91CF910F91EF90DF90CF900895CF936B
:1019C000DF93EC012985220F220F8D85280F6C8172
:1019D0007D814EEA5CE08A819B810E94A20C498550
:1019E0005A852D856C817D818A819B812E5F411571
:1019F000510521F44EEA5CE0089706C0440F440FFD
:101A0000240F4EEA5CE00896DF91CF910C94A20C73
:101A1000FC012185822F880F280F8585280F64817E
:101A200075814CE75CE0828193810C94A20C2D9A25
:101A30000895BC0180E090E00C94390A8FB1809544
:101A4000807F669B88601C9B846008953E9A3F9AC5
:101A500081E08093B4010895E0EFF1E190E1969F79
:101A6000D001A0781124A80F6770E60FF11D9491A2
:101A7000AA52BE4F442319F08C91982B03C0909525
:101A80008C9198239C9308952F923F924F925F924E
:101A90006F927F928F929F92AF92BF92CF92DF927E
:101AA000EF92FF920F931F93CF93DF93CDB7DEB7E3
:101AB00027970FB6F894DEBF0FBECDBFFC016A308A
:101AC00069F425898189928938E0239F800D911DD1
:101AD0001124928B818B108A1786A6C06D3009F471
:101AE000A3C09F838E8335882489298333893A83D1
:101AF00061887288E784F08880E8E816F104C4F011
:101B0000AE81BF8155962C915597422F50E01F967C
:101B10008D919C915097B6E02B9F800D911D1124C3
:101B2000EE81FF81908B87872689211167C07CC059
:101B3000F0E46F16710424F7C70125E0329E800D92
:101B4000911D112418161906DCF6432C512CC301E3
:101B500038E0339E800D911D11241816190684F665
:101B600085E0689F800111240051134F20E0F801A7
:101B70002490253009F4212C430158E020FC02C0B8
:101B8000398101C03A8131110BC0F9818A81F81382
:101B900007C026945150840C951C5111EFCF25C0DD
:101BA00067018C2D8E198315A0F754018A2D881991
:101BB0008315B8F490E8C916D10478F4A0E4AA1605
:101BC000B10458F4432FB501C6012C833B835D83D8
:101BD0000E942C0D5D813B812C81BFEFAB1ABB0AAB
:101BE000E5CFEFEFCE1ADE0ADCCF2F5FE40CF51C59
:101BF0000F5F1F4F263009F0BACF82CF6AEF640320
:101C00009001659F300D112420583F4F2817390748
:101C10005CF4AE81BF81ED91FC9111970190F08150
:101C2000E02D6AE0CD01099581E090E027960FB69E
:101C3000F894DEBF0FBECDBFDF91CF911F910F9102
:101C4000FF90EF90DF90CF90BF90AF909F908F90DC
:101C50007F906F905F904F903F902F9008950C94DD
:101C60004F26FC01628173818081918180389105CA
:101C700030F46034710518F441E00C942C0D089593
:101C80000F931F93CF93DF93EC010E94E32502E0B3
:101C900010E0B8010E94D42698878F830E94E32524
:101CA00068E270E00E94D42641969B838A838F81EC
:101CB0009885009779F48FEF9FEF9983888383E06D
:101CC00090E09A8789870E94E325B8010E94D42674
:101CD00001960EC0019771F481E890E099838883A2
:101CE0001A8709870E94E325B8010E94D42602972B
:101CF0009D838C83DF91CF911F910F910895FC01FB
:101D00004481558120813181240F351F3183208307
:101D10001416150624F42338310534F40895452BA0
:101D200029F02E3F3F4F14F40C94400E08950F936A
:101D30001F93CF93DF93EC018EE190E0998388832A
:101D40000E94E32560E370E00E94D4260A969B83FC
:101D50008A830E94E32502E010E0B8010E94D426A5
:101D600098878F83009779F48FEF9FEF998388830B
:101D700083E090E09A8789870E94E325B8010E945A
:101D8000D42601960EC0019771F480E890E0998303
:101D900088831A8709870E94E325B8010E94D42608
:101DA00002979D838C83DF91CF911F910F910895AE
:101DB00085E08093B90180E48093900080EE98E004
:101DC000909399008093980008950F931F93CF9359
:101DD000DF93EC010E94E32502E010E0B8010E94CD
:101DE000D4268D870E94E325B8010E94D4269A87C5
:101DF00089870E94E32564E270E00E94D4260D9654
:101E00009D838C8389859A85009779F48FEF9FEF66
:101E10009B838A8383E090E09C878B870E94E325E5
:101E2000B8010E94D42601960EC0019771F481E892
:101E300090E09B838A831C870B870E94E325B8016F
:101E40000E94D42602979F838E83DF91CF911F91AA
:101E50000F910895FC014681578122813381240F1F
:101E6000351F338322831416150624F4293C3105CB
:101E700034F40895452B29F02C393F4F14F40C9479
:101E8000E50E0895EF92FF920F931F93CF93DF9388
:101E9000EC010E94E32523E0E22EF12CB7010E9421
:101EA000D4268D870E94E32502E010E0B8010E944D
:101EB000D4269A8789870E94E32564E270E00E9415
:101EC000D4260D969D838C8389859A85009769F425
:101ED0008FEF9FEF9B838A83FC86EB860E94E3252E
:101EE000B8010E94D42601960EC0019771F481E8D2
:101EF00090E09B838A831C870B870E94E325B801AF
:101F00000E94D42602979F838E83DF91CF911F91E9
:101F10000F91FF90EF900895FC0146815781228137
:101F20003381240F351F338322831416150624F4BE
:101F3000213B310534F40895452B29F02E3C3F4FC9
:101F400014F40C94420F0895CF93DF93EC010296A2
:101F50000E94970E89E491E0998388830E94E3258B
:101F6000CE01DF91CF910C94420F80E0E6EDF1E0DD
:101F700081118FEF00248193819381938193039446
:101F8000D1F7089520911807282329F49091170775
:101F9000982381E009F480E00895EF92FF920F9377
:101FA0001F93CF93DF93CDB7DEB72C970FB6F8947E
:101FB000DEBF0FBECDBF49835A836B837C839E8374
:101FC000EF82F88609871A872B873C87E981FA8197
:101FD0006B817C814F81588529853A85DF01A80F67
:101FE000B11D4A175B07A4F48B85480F511DE417F8
:101FF000F50774F48E81AB01480F511D2417350786
:102000003CF48C85280F311D81E0621773070CF0BA
:1020100080E02C960FB6F894DEBF0FBECDBFDF91E7
:10202000CF911F910F91FF90EF900895AF92BF92C3
:10203000CF92DF92EF92FF920F931F93CF93DF9394
:10204000CDB7DEB72C970FB6F894DEBF0FBECDBF6D
:102050005C0186E0EFE4F1E0DE01179601900D925D
:102060008A95E1F7C090D401D090D50182E0C816DE
:10207000D10468F42115310551F478876F834E5FE0
:102080005F4F5A87498788E08B8784E017C0C60175
:102090000297029768F42115310551F46E5F7F4F66
:1020A00078876F835A87498784E08B8788E006C0EA
:1020B00078876F835A87498788E08B878C87FE01F2
:1020C000319686E0DF011D928A95E9F7F50180815E
:1020D00091819A838983828193819C838B8321154B
:1020E0003105D1F4E980FA800B811C8121E031E0D7
:1020F0004F81588569857A858B859C850E94CD0F97
:102100008823C1F181E0D50119962D913C911A9750
:102110002C153D0571F52EC021303105C1F4E98043
:10212000FA800B811C8121E031E04F81588569855F
:102130007A858B859C850E94CD0F8823D9F081E01C
:10214000F501218532852C153D05A1F412C0223000
:10215000310579F4E980FA800B811C8121E031E0BE
:102160004F81588569857A858B859C850E94CD0F26
:1021700001C080E02C960FB6F894DEBF0FBECDBF35
:10218000DF91CF911F910F91FF90EF90DF90CF9053
:10219000BF90AF900895009769F0FC010190002076
:1021A000E9F73197AF01481B590BBC018EE097E06E
:1021B0000C945D0980E090E008950F931F93CF93F6
:1021C000DF938C01C0E0D0E0F801EC0FFD1F6491BB
:1021D000662371F0E0910E07F0910F070190F081F6
:1021E000E02D8EE097E00995892B11F02196ECCF38
:1021F000CE01DF91CF911F910F9108952F923F92C1
:102200004F925F926F927F928F929F92AF92BF9206
:10221000CF92DF92EF92FF920F931F93CF93DF93B2
:10222000CDB7DEB728970FB6F894DEBF0FBECDBF8F
:102230005A01822E912C9C01280D391D37FDC4C0F6
:10224000803891050CF0C0C09B01200F311D37FD77
:10225000BBC0603471050CF0B7C0AB0177FF04C0A0
:1022600044275527461B570B477055279B0177FF7F
:1022700002C0295F3F4FE3E035952795EA95E1F7E6
:1022800077FF08C02150310968E070E0DB01A41B32
:10229000B50BAD01602F66956695669570E0077089
:1022A00011F06F5F7F4FDB01A20FB31FBA83A983C9
:1022B00039017694762C662477946794680E791E9B
:1022C000E12CF12C00E010E02301B0E84B0E511C92
:1022D00068E070E0DB01A41BB50BBC83AB836981B4
:1022E0007A812617370709F46FC02830310509F4C1
:1022F0006BC02F3FBFEF3B070CF45BC0B201600F18
:10230000711FDB01AA52BE4FBE83AD83D801A60D5B
:10231000B71DAA52BE4F6C0160E070E068157905E8
:102320000CF047C0E0E8CE16D10409F442C0D7FC57
:1023300034C02F3FFFEF3F0709F442C0FB01EE0D11
:10234000FF1DEA0DFB1DE491042E01C0EE0F0A945F
:10235000EAF73C90E329EC9341155105F1F0273061
:102360003105D9F0FB01EE0DFF1DEA0DFB1DE491D7
:102370002E2E312CF1010B8002C0F595E7950A94C1
:10238000E2F7F887EF83ED81FE813080EF81F885F9
:10239000E3291F01ED81FE8120826F5F7F4FED8178
:1023A000FE813196FE83ED83FFEFCF1ADF0A11968F
:1023B000B5CF2F5F3F4F00581F4FE80CF91C8FCF50
:1023C0004115510579F6E9CF28960FB6F894DEBF8E
:1023D0000FBECDBFDF91CF911F910F91FF90EF9076
:1023E000DF90CF90BF90AF909F908F907F906F9035
:1023F0005F904F903F902F900895CF93DF930E946E
:10240000DD10EC0181EB91E00E94CB108C0F9D1F41
:10241000DF91CF910895E6EDF1E0A0E0B8E0008013
:102420000EBC8111012C1197A0FDFDCF0192B9F7CF
:102430000DB40895FC018091D301811103C08FEF89
:102440009FEF08959FB7F89482E08093E900209170
:10245000F20030E01216130614F421E030E02115EA
:10246000310559F0289884E68093D2018091F100DB
:1024700080838091F200882319F09FBFC9010895DD
:102480008BE68093E800F9CF2FB7F89483E0809330
:10249000E9009091E800892F807295FF04C0909127
:1024A000F20080E4891B2FBF08958F929F92AF9214
:1024B000BF92CF92DF92EF92FF920F931F93CF9331
:1024C000DF935C016B017A0180911201882309F48A
:1024D0005BC08091D301882309F456C08091D1015B
:1024E00080FF05C08091E00082608093E000E701FA
:1024F00010E00AEF83E0882E9AE3992E2097D9F115
:102500000E94441281110AC0015009F43DC061E0EB
:1025100070E080E090E00E94390AF0CF282F30E090
:10252000C217D3070CF48C2F4FB7F8948092E900B0
:102530009091E80095FF1DC0282F30E0C21BD30BFF
:10254000F601982F915020F081918093F100FACFFD
:10255000C20ED31E112319F09092E80009C0809199
:10256000E80085FD06C09092E80011E0209709F090
:1025700010E04FBFC3CF1111C3CF5D9884E68093A5
:10258000D0011E141F0444F081E090E0F501938314
:10259000828380E090E001C0C701DF91CF911F915D
:1025A0000F91FF90EF90DF90CF90BF90AF909F90F2
:1025B0008F9008958091290781110DC082E080934A
:1025C000250784E08093260710922807109227079A
:1025D00081E08093290785E297E00895CF93DF9308
:1025E0001F92CDB7DEB76983DC01ED91FC910280CB
:1025F000F381E02D41E050E0BE016F5F7F4F099510
:102600000F90DF91CF91089583E08093E90080914E
:10261000F200882319F08AE38093E8000895FC0112
:102620008485958597FD0BC09FB7F89482E08093D1
:10263000E9008091F2009FBF90E0019608959FB756
:10264000F89482E08093E9008091F2009FBF90E0CF
:102650000895409185075091860720918307309116
:10266000840742175307B4F49091E8009570E1F3A2
:102670009091E80092FD19C08093F1008091850748
:102680009091860701968F739927892B19F48EEF05
:102690008093E8008091850790918607019690933A
:1026A00086078093850781E0089580E00895DF9292
:1026B000EF92FF920F931F93CF93DF93D82E8A014F
:1026C0007B01E40EF51EEB01CE15DF0571F0D7FEA0
:1026D00003C0FE01849101C088810E9429132196C4
:1026E0008111F2CF8FEF9FEF01C0C801DF91CF9131
:1026F0001F910F91FF90EF90DF900895615030F09F
:102700002091F100FC0120830196F8CF289884E6FF
:102710008093D20108950E94441290E00895CF93CF
:10272000DF931F92CDB7DEB7FC018485958597FDB9
:1027300005C02FEF3FEF358724870BC0CE010196F0
:102740000E941A12019719F4898190E002C08FEF5C
:102750009FEF0F90DF91CF9108950F931F93CF9329
:10276000DF931F92CDB7DEB78C01FC018485958580
:1027700097FF0EC0CE0101960E941A12019719F41C
:10278000298130E002C02FEF3FEFF8013587248721
:10279000F801848595850F90DF91CF911F910F915E
:1027A00008950F931F93CF93DF931F92CDB7DEB79A
:1027B00082E0898342E450E068EF71E180E80E94A2
:1027C00057130E94DA12DC0112960D911C91139797
:1027D0000115110569F0D801ED91FC910280F3819A
:1027E000E02DBE016F5F7F4FC801099597FF07C0BD
:1027F00089810F90DF91CF911F910F910895F8017A
:1028000000851185E5CF1F920F920FB60F9211240C
:102810008F939F938091E1009091E100937F90933B
:10282000E10083FF0FC01092E90091E09093EB006C
:102830001092EC0092E39093ED001092D30198E097
:102840009093F00082FF20C093E09093E900909174
:10285000F200992319F09AE39093E8009091D00147
:10286000992339F09091D00191509093D001992300
:1028700089F19091D201992339F09091D201915030
:102880009093D201992341F184FF10C08091E2001E
:102890008E7E81608093E2008091E1008F7E809344
:1028A000E1008091D1018E7E806111C080FF16C051
:1028B0008091E2008E7E80618093E2008091E10051
:1028C0008E7E8093E1008091D1018E7E8160809325
:1028D000D10104C05D9ACDCF289AD6CF9F918F9118
:1028E0000F900FBE0F901F9018951F920F920FB66A
:1028F0000F921124CF92DF92EF92FF920F931F93CA
:102900002F933F934F935F936F937F938F939F93F7
:10291000AF93BF93EF93FF93CF93DF93CDB7DEB722
:102920006C97DEBFCDBF1092E9008091E80083FF75
:10293000EDC168E0CE0145960E947E1382EF809340
:10294000E8008D8987FF05C09091E80090FFFCCFDB
:1029500003C09EEF9093E800982F907609F0C6C0D0
:102960009E892F89188D91110CC0803829F480918F
:1029700082078093F10002C01092F1001092F100E2
:1029800048C1422F50E0512B913051F4811141C187
:102990004130510509F03DC1809182078D7F0BC008
:1029A000933061F4811135C14130510509F031C1D5
:1029B000809182078260809382072BC1953041F419
:1029C0008091E80080FFFCCF20682093E30021C1C4
:1029D000963009F05FC0EB8CFC8C1092E9001092ED
:1029E000860710928507123091F510928407109295
:1029F00083070E94D11399E0BE016F5F7F4FDB0117
:102A0000E92F1D92EA95E9F799831A8391E09E8355
:102A100090EA98879AEF99872091850730918607E9
:102A2000275F3F4F3C832B838D831092E9001092E8
:102A3000860710928507F0928407E092830749E0A9
:102A400050E080E00E9457130E94D113E2C0F09240
:102A50008407E09283070E94DA12DC011296ED905F
:102A6000FC901397E114F10409F4C0C0D701ED9173
:102A7000FC910480F581E02DBE016B5E7F4FC701A4
:102A80000995009719F00CF0C4C0C7C0F701E084A5
:102A9000F184E8CF973009F4C0C0983021F481E088
:102AA0008093F100B6C0993009F0B3C0837009F08B
:102AB000B4C0ECE8F1E081E021E036E390819923B5
:102AC00061F08093E9002093EB0091919093EC00EA
:102AD0003093ED008F5F873089F78EE78093EA00AF
:102AE0001092EA008F898093D30193C08B8D9C8DC7
:102AF0001092E90010928607109285079093840740
:102B000080938307898D811156C08E899D89913A62
:102B100059F4813209F081C047E050E06BE071E088
:102B200080E00E94571375C0913209F076C083325D
:102B300089F4888D90E0982F88272F89822BA0E038
:102B4000B0E08093130190931401A0931501B0930A
:102B500016015FC0803269F48091E80082FFFCCFEB
:102B600067E08BE091E00E947E138BEF8093E8009A
:102B700006C0823209F04DC08F8980931201809186
:102B80008107882319F0EEEFFAE002C0E0E0F8E0F8
:102B900080910B0190910C01A0910D01B0910E015B
:102BA000803B9440A105B10509F07BC080911201E2
:102BB00080FF93C076C00E94DA12DC0112960D915C
:102BC0001C9113970115110541F1D801ED91FC916C
:102BD0000190F081E02DBE016B5E7F4FC801099529
:102BE000811117C0F80100851185ECCF113009F46F
:102BF0004EC0133091F48F89882309F445C0823088
:102C000081F440E867E08CE592E10E945A25882330
:102C100021F08EEF8093E80079C081E28093EB0091
:102C200075C0813029F440E86BE080E592E1EDCF9A
:102C3000833099F70E94DA12DC011296ED90FC9035
:102C400013978E010F5F1F4F6801E114F10479F0B3
:102C5000D701ED91FC910680F781E02DB801C70105
:102C60000995080F111DF701E084F184EECFD8011A
:102C70001C92F60101900020E9F73197BF016C1911
:102C80007D0940E0C601C1CF6AE372E102C06EE394
:102C900072E16115710509F2FB01449150E080E891
:102CA00040CF0FB6F894A89580916000886180931A
:102CB0006000109260000FBEA895EE3F2AE0F20778
:102CC00039F08091FE0A9091FF0A91838083A1CF11
:102CD0001092FF0A1092FE0A9CCFEE3F8AE0F8079E
:102CE00031F0808191819093FF0A8093FE0A87E7FB
:102CF00097E7918380839BE088E10FB6F894A895CD
:102D0000809360000FBE9093600083CF6C960FB6E7
:102D1000F894DEBF0FBECDBFDF91CF91FF91EF9151
:102D2000BF91AF919F918F917F916F915F914F91E3
:102D30003F912F911F910F91FF90EF90DF90CF90D7
:102D40000F900FBE0F901F901895CF93DF93CDB7C4
:102D5000DEB7A1970FB6F894DEBF0FBECDBF789453
:102D600084B5826084BD84B5816084BD85B5826090
:102D700085BD85B5816085BD80916E008160809341
:102D80006E001092810080918100826080938100AA
:102D900080918100816080938100809180008160BA
:102DA0008093800080919100826080939100809157
:102DB0009100816080939100809190008160809368
:102DC00090008091C10084608093C1008091C10017
:102DD00082608093C1008091C10081608093C100B6
:102DE0008091C30081608093C3008091C0008260A5
:102DF0008093C0008091C20081608093C200809166
:102E00007A00846080937A0080917A008260809357
:102E10007A0080917A00816080937A0080917A00B4
:102E2000806880937A001092D301109282071092EA
:102E3000D1018091D70081608093D70080EA809390
:102E4000D80089B5806189BD89B5826089BD09B422
:102E500000FEFDCF61E070E080E090E00E94390A62
:102E60008091D8008F7C80618093D8008091E000B1
:102E7000807F8093E0008091E1008E7E8093E1006E
:102E80008DE08093E200559A209AEEEFFFE785915E
:102E900094918B3F9C4D19F481E08093810781ECE4
:102EA00080937C0085B1806F85B984B1877E84B9B9
:102EB00084B1876E84B95E9A5F988AB1806D8AB951
:102EC000769A6E9881B3806F81BB899880B38D703C
:102ED00080BB80E58CBD81E08DBD85E090E00E94E7
:102EE000190D5F9A85E090E00E94190D5E985C983C
:102EF000EAE7F1E08DE08E0F94919EBD00000DB4E5
:102F000007FEFDCF31968E13F7CF5C9A81E8809350
:102F100064008091650081608093650080E00E947C
:102F20000B120E941E0D87FF24C05C9885EA8EBD9F
:102F300000000DB407FEFDCF5C9A2E982F982D98B7
:102F40008091640080628093640081E083BF8895F3
:102F500013BEFCCF2D980E941E0D8478843871F02A
:102F60000E941E0D8471843131F188EC90E00E9442
:102F7000190D0E941E0D82FDEDCF3AC00E94170D63
:102F800088EC90E00E94190D2F9882E090E00E945A
:102F90004F268F3F29F06FEF82E090E00E94572686
:102FA00084EF91E00E94190D2F9A0E941E0D8478E3
:102FB0008438D9F3D5CF0E94170D88EC90E00E9499
:102FC000190D2E9882E090E00E944F26882329F068
:102FD00060E082E090E00E94572684EF91E00E943A
:102FE000190D2E9A0E941E0D84718431D9F3BDCF24
:102FF0000E94170D82E090E00E944F26882319F06E
:103000000E94260D04C01092B4013E983F9881E0C2
:1030100090E00E942F0E82FB112710F981FF44C01F
:1030200011112E9830EFE32EFF24FA940E941E0D0A
:1030300086FF04C02E9A2F9A2D9A36C0112331F0A4
:1030400034E0E316F10411F42E9A2F9881E00E94E7
:103050000B1200E128E54AEC50E0B70184E190E072
:103060000E94FE1080E00E940B128FE090E00E9410
:10307000190D6FEFE61AF60A89E1E816F104B1F6C8
:10308000112311F02F9A2D9880E991E00E94190DDB
:103090000E94170DE0911207F09113070190F08143
:1030A000E02D82E197E0099582E390E00E94190DFE
:1030B0000E941E0D8111F8CF82E4809319070E94AF
:1030C000B50F1092200710921F0710921E07109242
:1030D0001D071092C9011092C80182E090E0909300
:1030E000D5018093D4019AE0292E312C412C512C0A
:1030F00022E0822E912CAA24A394B12C8FB7F894AD
:103100004091B5015091B6016091B7017091B8013D
:103110008FBF80911A07942F981B892F90911B07BE
:10312000992329F080931C0710921B07F9C09091F6
:103130001907891748F48F5F891708F0F1C081E0FB
:1031400083BF889513BEECC081E080931B0740933A
:103150001A0780911507909116070196909316070C
:103160008093150780911707809318070E941E0D02
:10317000809317070E94B50F1092200710921F0727
:1031800010921E0710921D078091B901882331F01B
:1031900081508093B901882309F4CAC00E94260D8A
:1031A00006ED602E05E0702EE12CF12C11E4C12E0D
:1031B00011E0D12E00E010E0D6018D916D0181115A
:1031C00002C020E004C0823041F4F30120814AE9CA
:1031D0005BE0B801C7010E94A20C005F1F4F0034E2
:1031E000110551F7F0E1EF0EF11C2FEF621A720A90
:1031F00030E8E316F104D1F6B2E06B2EB1E07B2E9D
:10320000E12CF12CD3012D913D010091C6011091CB
:10321000C7014AE95BE06AEF7FEFC701801B910BB2
:103220000E94A20CB0E1EB0EF11CE0E9EE16F104F5
:1032300049F70F5F1F4F0031110529F01093C701A7
:103240000093C6012DC01092C7011092C6010E94C2
:10325000E325209103012093020120910401209392
:103260000301209105012093040120910601209380
:103270000501209107012093060120910801209368
:103280000701209109012093080120910A01209350
:10329000090163E070E00E94D4268F5F80930A01E9
:1032A00080E80E94C20F182F882361F080E20E94FC
:1032B000C20F811107C080E40E94C20F882311F45D
:1032C0000C94472380E10E94C20F082F882329F025
:1032D00080E20E94C20F882371F180E40E94C20F35
:1032E000882321F0112311F40C944D2380E20E94D5
:1032F000C20F882321F0112311F40C9458238091DC
:10330000CA018F5F893108F58093CA01E091C80135
:10331000F091C901E730F105D8F080E00E940B126E
:1033200080E090E0892B09F4E9CE0E940000E3CE12
:103330001092900033CF80E40E94C20F8111CDCF54
:10334000B092D501A092D401DACF1092CA01DECF9B
:10335000EA5AFF4F0C94E826809101011091000178
:10336000882319F1123068F08091D8069091D9061F
:1033700090930607809305078091DA069091DB060B
:1033800008C08CE390E090930607809305078EE0D9
:1033900090E0909308078093070710920C07109213
:1033A0000B071092CA01109201018091D4019091F3
:1033B000D5018230910549F4109204078FEF9FEFF9
:1033C00090930A078093090709C0039739F481E0B5
:1033D00080930407B0920A07A092090780910D0715
:1033E000893108F45CC02091070730910807283321
:1033F0003105E4F5409105075091060780910907D2
:1034000090910A07840F951F9093060780930507F4
:103410004091CA01437051F440910307240F311DBC
:1034200047FD3A95309308072093070797FF0CC094
:10343000B0920A07A092090781E0809304071092D6
:103440000607109205071BC089379105C4F08FEF5E
:103450009FEF90930A07809309071092040788E76B
:1034600090E0909306078093050709C080910B07B1
:1034700090910C07019690930C0780930B07809115
:103480000B0790910C074F976CF01092CA0181E0E6
:10349000809301019092C9018092C80103C08F5F9F
:1034A00080930D07609107077091080780910507C9
:1034B00090910607123068F020910D07293148F4E9
:1034C00026956450710948EF59E004970E94A20CB8
:1034D00009C02091040746EE59E00E94A20C123068
:1034E00008F41BCF01EA16E0C8010E947F0EC80154
:1034F0000E94310E055F1F4FF6E0083D1F07A1F740
:10350000F7E7EF2EF6E0FF2E77247394A5E0CA2E9E
:10351000D12CD701ED91FC910280F381E02DC70100
:103520000995D701ED91FC910190F081E02DC70143
:103530000995D701ED91FC9140910707509108073B
:1035400060910507709106070480F581E02D08E081
:1035500010E028E030E0C7010995882331F070922F
:103560000101D092C901C092C801BEE0EB0EF11C6E
:10357000E3E9EE16E6E0FE0661F6E0915B06F09107
:103580005C060084F185E02D8BE596E00995E091DD
:103590005B06F0915C060680F781E02D8BE596E0F6
:1035A0000995E0915B06F0915C0640910707509108
:1035B000080760910507709106070284F385E02DE6
:1035C00008E010E028E030E08BE596E009958823DC
:1035D00009F4A3CE81E08093010185E090E090930F
:1035E000C9018093C80199CE809101018823F1F02F
:1035F000809105079091060708979093FA068093AB
:10360000F906809107079091080708979093FC06A8
:103610008093FB0610920207109201078091040725
:103620008093F8061092CA01109201018091D40192
:103630009091D501A091F906B091FA066090FB0631
:103640007090FC068230910531F481E08093F80699
:10365000CD01029706C0039771F41092F806CD01D0
:103660000A969093FE068093FD06C30104979093FB
:1036700000078093FF068091CA016FE00E94C82670
:10368000911109C0809101079091020701969093D2
:1036900002078093010780910107909102074F97DD
:1036A0005CF01092CA0181E08093010123E030E0D8
:1036B0003093C9012093C8016091F806E4EAF9E06B
:1036C0000491E5EAF9E0E490662319F1402F50E017
:1036D0008E2D869586958695282F30E081E090E0A6
:1036E0007E2D777011F480E090E0820F931F489F49
:1036F0009001499F300D589F300D1124629FA00109
:10370000639F500D11249A012E59364F4A55564F3A
:1037100004C022E639E046EA59E0CC24C394B30160
:10372000CD010E94BD0A8091F806813031F460918C
:10373000FF067091000721E007C081110DC0609164
:10374000FF067091000720E040E559E08091FD06FA
:103750009091FE060E94A20CE1EAEE2EE6E0FE2E1B
:103760008701C8010E947F0EC8010E94310E40915E
:10377000FF06509100076091FD067091FE0621E062
:1037800030E0C8010E941610882389F0C8010E9409
:10379000400E209100018091C4019091C501820FDB
:1037A000911D9093C5018093C4010E94D80E055FBE
:1037B0001F4F36E0083D1307A1F6809100018230CB
:1037C00008F4ABCDC7010E947F0EC7010E94310EE5
:1037D0006BE0E60EF11C88EDE81686E0F80691F73E
:1037E00007E716E07BE5E72E76E0F72ED801ED91AE
:1037F000FC910280F381E02DC8010995D801ED917B
:10380000FC910190F081E02DC8010995D701ED915F
:10381000FC910084F185E02DC7010995D701ED9158
:10382000FC910680F781E02DC7010995025F1F4FCB
:10383000BEE0EB0EF11CE6E003391E07B9F66DCDD4
:10384000809101018823C1F08091F9069091FA06D8
:103850009093EB068093EA068091FB069091FC061C
:103860009093ED068093EC06109201011092F506FC
:103870001092F4061092F6062091F6066091EC067E
:103880007091ED068091EA069091EB062D3120F4BF
:1038900026954EE657E01EC02091C3012223B1F0C9
:1038A0000091C1011091C201F801E85CFE4F309116
:1038B000F2062081230F4CEE56E00E94A20C0F5F0F
:1038C0001F4F1093C2010093C10106C02091F20660
:1038D0004CEE56E00E94A20C8091C1019091C20171
:1038E000099734F01092C3011092C2011092C101E5
:1038F0008091C301811122C08091D4019091D501A2
:10390000009729F41092F3061092F20617C0823045
:10391000910529F4B092F306A092F2060FC081300F
:10392000910529F49092F3068092F20607C0833045
:10393000910521F49093F3068093F2061091CA0149
:10394000912F93708091F60691110CC08D3150F03B
:103950002091EA063091EB06215031093093EB06B5
:103960002093EA068E3120F48F5F8093F60602C022
:103970001092F70684E00E94C20F882389F080919C
:10398000F70681110DC09DC6823091050CF0B1C6BD
:10399000892B31F48CEF9FEF9093F1068093F00622
:1039A0004091EE065091EF06E091EA06F091EB06A9
:1039B000E40FF51FF093EB06E093EA062091F00682
:1039C0003091F1066091EC067091ED06620F731F65
:1039D0007093ED066093EC06141615061CF4415026
:1039E000510905C04115510531F04F5F5F4F5093AC
:1039F000EF064093EE06121613061CF4215031090F
:103A000005C02115310531F02F5F3F4F3093F1068E
:103A10002093F006E937F1053CF088E790E09093B9
:103A2000EB068093EA0616C0F7FF05C01092EB067E
:103A30001092EA060FC0633371051CF082E390E038
:103A400005C06730710534F487E090E09093ED068F
:103A50008093EC06812F6FE00E94C826911109C067
:103A60008091F4069091F50601969093F506809367
:103A7000F4068091F4069091F5064F975CF0109251
:103A8000CA0181E08093010184E090E09093C90134
:103A90008093C80101EA16E0C8010E947F0EC801A8
:103AA0000E94310E4091EC065091ED066091EA06BD
:103AB0007091EB0620E030E0C8010E9416108823C8
:103AC00089F0C8010E94400E209100018091C4013C
:103AD0009091C501820F911D9093C5018093C401FF
:103AE0000E94D80E055F1F4FF6E0083D1F07A1F6A4
:103AF00057E7E52E56E0F52E7724739465E0C62E41
:103B0000D12CD701ED91FC910280F381E02DC7010A
:103B10000995D701ED91FC910190F081E02DC7014D
:103B20000995D701ED91FC914091EC065091ED067D
:103B30006091EA067091EB060480F581E02D08E0C3
:103B400010E028E030E0C7010995882329F0809132
:103B5000F706882309F4D3C5BEE0EB0EF11CE1EAB9
:103B6000EE16E6E0FE0669F6D8CB82E991E00E9407
:103B7000CB108EE190E090931E0780931D079093E9
:103B8000200780931F0780EE96E00E94DD108CE3F3
:103B900090E090931E0780931D0788E290E0909339
:103BA000200780931F072091C4013091C50140E098
:103BB00050E019A28E010F5D1F4FCA01B901A20189
:103BC00091010E949726605DD8016E938D012115A9
:103BD00031054105510589F7CD010E94CB1011E057
:103BE0001093000188E00E94C20F882309F495CB4E
:103BF0001093010146C500E220E640E655E06AE088
:103C000070E080E190E00E94FE1002E210E010936C
:103C10001E0700931D078DE290E09093200780938C
:103C20001F078BE991E00E94CB1010931E070093B1
:103C30001D0787E390E09093200780931F0786EA93
:103C400091E00E94CB1084E00E94C20F882369F1AA
:103C5000809164008E7F8093640080917A008064FC
:103C600080937A0080917A0086FDFCCF00917800E5
:103C7000109179000E94140A20E030E09801112789
:103C80000027600F711F821F931F61157105810549
:103C9000910511F00E944626809164008160809316
:103CA0006400B092C901A092C80104E216E0C80104
:103CB0000E947F0EC8010E94310E055F1F4FB6E0C3
:103CC0000B351B07A1F70AEF15E0D801ED91FC9128
:103CD0000280F381E02DC8010995D801ED91FC9196
:103CE0000190F081E02DC8010995025F1F4FB6E0F9
:103CF00004321B0751F70EED15E0D801ED91FC9150
:103D00000084F185E02DC8010995D801ED91FC9161
:103D10000680F781E02DC8010995025F1F4FB5E0CD
:103D20000A3F1B0751F788E00E94C20F882309F45D
:103D3000F4CA86E090E09093C9018093C801109284
:103D4000C0011092BF01E9CA80910101882319F1D5
:103D500010920D072091EA063091EB063093D906B8
:103D60002093D8068091EC069091ED069093DB06A7
:103D70008093DA063093DD062093DC060896909354
:103D8000DF068093DE061092E7061092E606109298
:103D9000E806109201012091E8068091D8069091E2
:103DA000D9066091DA067091DB062D3020F4269555
:103DB0004EE255E03BC03091BE01332321F1233167
:103DC00010F10091BC011091BD01F801E05DFE4FC2
:103DD000F0802F2D4CEC54E00E94A20C24E02F0D1B
:103DE0006091DE067091DF064CEC54E08091DC06B9
:103DF0009091DD060E94A20C0F5F1F4F1093BD0132
:103E00000093BC0115C02091E4064CEC54E00E94E4
:103E1000A20C2091E4062E5F6091DE067091DF0611
:103E20004CEC54E08091DC069091DD060E94A20CDF
:103E30008091BC019091BD01089734F01092BE01B1
:103E40001092BD011092BC018091E806843118F4F3
:103E50008F5F8093E8060091BE0101111CC0809124
:103E6000D4019091D5018230910559F41092E50664
:103E70001092E4068FEF9FEF9093E1068093E006A7
:103E80000AC0039741F4B092E506A092E406B0920E
:103E9000E106A092E0061091CA01812F69E00E941C
:103EA000C826911110C08091DA069091DB069C0122
:103EB0002F5F3F4F3093DB062093DA0609969093ED
:103EC000DF068093DE0684E00E94C20F8823D9F0CB
:103ED000011119C081E08093BE018091E4069091A8
:103EE000E506009709F012C48EEF9FEF9093E3066A
:103EF0008093E2068091E0069091E106039790930B
:103F0000E1068093E0060E941E0D9091BE0183FFA2
:103F100003C0992309F40AC42091E0063091E10618
:103F20009923A9F08091DC069091DD06820F931F02
:103F30009093DD068093DC068091D8069091D90697
:103F4000820F931F9093D9068093D80603C0812FC8
:103F5000837041F34091E2065091E3068091DA06C6
:103F60009091DB06840F951F9093DB068093DA0611
:103F70006091DE067091DF06640F751F7093DF0697
:103F80006093DE06223031051CF02150310906C055
:103F90002F3FFFEF3F073CF42F5F3F4F3093E10689
:103FA0002093E00608C057FF06C04F5F5F4F509355
:103FB000E3064093E2062091D8063091D9062937CE
:103FC00031055CF088E790E09093D9068093D8069D
:103FD0009093DD068093DC0625C037FF09C0109260
:103FE000D9061092D8061092DD061092DC061AC08F
:103FF0008A3291054CF089E290E09093DB06809341
:10400000DA0681E390E00AC0049764F484E090E06B
:104010009093DB068093DA068CE090E09093DF06C5
:104020008093DE06812F6FE00E94C826911109C09F
:104030008091E6069091E70601969093E7068093BB
:10404000E6068091E6069091E7064F9774F010928D
:10405000CA0181E080930101809100018F5F80930C
:104060000001B092C901A092C80101EA16E0C8019E
:104070000E947F0EC8010E94310E4091DE065091D1
:10408000DF066091DC067091DD0622E030E0C801B9
:104090000E941610882389F0C8010E94400E2091CA
:1040A00000018091C4019091C501820F911D9093F0
:1040B000C5018093C4010E94D80E055F1F4F26E002
:1040C000083D1207A1F687E7E82E86E0F82EDD24EA
:1040D000D39495E0692E712CD701ED91FC9102806B
:1040E000F381E02DC7010995D701ED91FC91019075
:1040F000F081E02DC7010995D701ED91FC91409128
:10410000DA065091DB064C5F5F4F6091D8067091E4
:10411000D9060480F581E02D04E010E028E030E0CD
:10412000C7010995882331F0D09201017092C9012D
:104130006092C801D701ED91FC914091DE0650914B
:10414000DF066091DC067091DD060480F581E02DCC
:1041500008E010E028E030E0C70109958823C9F0A5
:10416000D701ED91FC914091DA065091DB064C5F4E
:104170005F4F6091D8067091D9060480F581E02DDB
:1041800004E010E028E030E0C7010995882309F435
:10419000D2C2BEE0EB0EF11CE3E9EE16E6E0FE064D
:1041A00009F09ACFE0915B06F0915C060084F185FE
:1041B000E02D8BE596E00995E0915B06F0915C06B9
:1041C0000680F781E02D8BE596E00995E0915B068E
:1041D000F0915C064091DA065091DB064C5F5F4F30
:1041E0006091D8067091D9060284F385E02D0CE029
:1041F00010E0E8C980E80E94C20F0091BF01109151
:10420000C001882319F00150110907C080E10E9404
:10421000C20F882331F00F5F1F4F1093C00100932E
:10422000BF0188E00E94C20F882349F08091BF013E
:104230009091C00101969093C0018093BF01E091DD
:10424000BF01F091C001E830F10508F009C2E35A5E
:10425000FF4F0C94E82620E04AEB54E064E170E064
:1042600081E090E00E94A20C0DE010E010931E0788
:1042700000931D0784E190E09093200780931F072F
:1042800088EA94E00E94FD1110931E0700931D0719
:104290008EE190E09093200780931F0789E994E0D6
:1042A0000E94FD1110931E0700931D0788E290E005
:1042B0009093200780931F078DE894E03CC020E096
:1042C0004BE454E068E170E08CEF9FEF0E94A20C99
:1042D00020E049E354E064E170E084E090E00E9473
:1042E000A20C0DE010E010931E0700931D0784E15F
:1042F00090E09093200780931F0787E294E00E944C
:10430000FD1110931E0700931D078EE190E090931E
:10431000200780931F0782E194E00E94FD11109313
:104320001E0700931D0788E290E09093200780937A
:104330001F0786E094E00E94DD1092C10091BA014F
:104340001091BB01F801E95DFE4F208144E853E084
:1043500064E170E081E090E00E94A20C0F5F1F4FCB
:10436000093011052CF41093BB010093BA0104C06D
:104370001092BB011092BA010DE010E010931E07DD
:1043800000931D0784E190E09093200780931F071E
:1043900080E793E00E94FD1110931E0700931D0714
:1043A0008EE190E09093200780931F078EE593E0C5
:1043B0000E94FD1110931E0700931D0788E290E0F4
:1043C0009093200780931F0789E493E0B4CF009176
:1043D000BA011091BB01F801E15EFE4FF0802F2D74
:1043E00047EE52E06AE070E082E090E00E94A20CAA
:1043F00024E02F0D47EE52E062E170E082E090E0B1
:104400000E94A20C20E047EE52E06EE170E082E0F4
:1044100090E00E94A20C22E047EE52E066E270E0DB
:1044200082E090E00E94A20C0F5F1F4F0830110540
:104430002CF41093BB010093BA0104C01092BB018D
:104440001092BA010DE010E010931E0700931D07B3
:1044500084E190E09093200780931F0783ED92E022
:104460000E94FD1110931E0700931D078EE190E03E
:104470009093200780931F078BEB92E00E94FD1121
:1044800010931E0700931D0788E290E09093200789
:1044900080931F0786EA92E04ECF20E044E752E087
:1044A0006DE070E082E090E00E94A20C21E044E721
:1044B00052E06DE070E08EE090E00E94A20C22E0FD
:1044C00044E752E06DE070E088E190E00E94A20CC9
:1044D00005E010E010931E0700931D0725E130E072
:1044E0003093200720931F078EE592E00E94FD1174
:1044F00010931E0700931D078FE190E09093200713
:1045000080931F078FE492E00E94FD1110931E0715
:1045100000931D0789E290E09093200780931F0786
:1045200080E492E09BC020E04EEF51E06DE070E04F
:104530008AE090E00E94A20C22E04EEF51E06DE094
:1045400070E082E090E00E94A20C21E04EEF51E08A
:104550006DE070E08CE190E00E94A20C23E04EEF51
:1045600051E06DE070E084E190E00E94A20C05E073
:1045700010E010931E0700931D0785E190E09093D3
:10458000200780931F078BEE91E00E94FD1110938E
:104590001E0700931D078FE190E090932007809302
:1045A0001F0781EE91E05AC041E067E170E087E0CB
:1045B00090E00E942C0D0DE010E010931E07009378
:1045C0001D0784E190E09093200780931F0780ED02
:1045D00091E00E94FD1110931E0700931D078EE1CC
:1045E00090E09093200780931F0783EC91E00E9456
:1045F000FD1110931E0700931D0788E290E0909331
:10460000200780931F0782EC91E095CE90921E07C1
:1046100080921D07A5E1B0E0B0932007A0931F078B
:104620008CEA91E00E94FD1190921E0780921D0776
:104630008FE190E09093200780931F078BE991E032
:104640000E94FD1190921E0780921D0789E290E062
:104650009093200780931F0787E891E00E94FD1147
:104660008091BF019091C001089720F01092C9017C
:104670001092C80184E00E94C20F882311F40C94A8
:104680008D191092C9011092C8010C948D191092C5
:10469000D5011092D4010C947F1901110C94761954
:1046A000E3E0F0E0F093D501E093D4010C947F199E
:1046B00001110C947F199092D5018092D4010C9431
:1046C0007F1981E08093C3018091F2069091F306F7
:1046D0008130910509F058C98CEF9FEF05C0039711
:1046E00009F05EC984E090E09093EF068093EE06B7
:1046F00057C98230910599F784E090E04DC97092D6
:104700000101D092C901C092C80126CA019709F0DF
:10471000FACB8EEF9FEF9093E3068093E206E3E0FF
:10472000F0E0F093E106E093E006EDCB9092E30633
:104730008092E206F1CBC7010E94420F0E94D80E80
:10474000209100018091C4019091C501F3E02F9F59
:10475000800D911D11249093C5018093C40119CD42
:104760000F931F93CF93DF938C0181E090E00E9421
:104770002F0E80FF32C08AE090E00E942F0E9FEF44
:10478000980F9E3F50F522E330E0D80150963C93BD
:104790002E931F9728E330E052963C932E93519727
:1047A000CBE0D0E0D801ED91FC910190F081E02DBB
:1047B000682FC8010995CE010E942F0E2196C131A4
:1047C000D10581F780E00E940B1288EE93E0DF9123
:1047D000CF911F910F910C94190DDF91CF911F91E3
:1047E0000F91089504970C94B023CF93DF93109208
:1047F00034071092330788EE93E0A0E0B0E0809396
:10480000350790933607A0933707B093380789E5AB
:1048100091E090933207809331078FEF9FEF909351
:104820003E0780933D070E94E325C3E0D0E0BE0130
:104830000E94D4268C5F8093D6050E94E325BE019A
:104840000E94D4268C5F8093D7050E94E325BE0189
:104850000E94D4268C5F8093D8050E94E325BE0178
:104860000E94D4268C5F8093D9050E94E325BE0167
:104870000E94D4268C5F8093DA050E94E325BE0156
:104880000E94D4268C5F8093DB050E94E325BE0145
:104890000E94D4268C5F8093DC050E94E325BE0134
:1048A0000E94D4268C5F8093DD0581E0809303070E
:1048B00099E190930D072EE330E0309306072093A3
:1048C000050720E130E03093080720930707809325
:1048D000040710920A071092090710920C07109211
:1048E0000B071092FA061092F9061092FC0610922D
:1048F000FB061092F80610920207109201074AE098
:1049000050E05093FE064093FD066CEF7FEF7093EE
:1049100000076093FF061092F3061092F2061092C1
:10492000F5061092F4061092F6068093F70650935F
:10493000EB064093EA064EE150E05093ED064093BB
:10494000EC061092E5061092E4061092E70610922B
:10495000E6061092E8068093E9068CE390E09093D7
:10496000D9068093D8063093DB062093DA0690931D
:10497000DD068093DC0688E190E09093DF0680936B
:10498000DE06C1EAD6E0CE010E94970E2B9686E0A5
:10499000C83DD807C1F787E796E00E94A40F85E8D5
:1049A00096E00E94A40F83E996E00E94A40F8BE595
:1049B00096E00E94A40FCBE6D1E0D0935C06C093B2
:1049C0005B060E94E3258BE596E00E94E50E89E6F2
:1049D00096E00E94A40FD0936A06C09369060E94D5
:1049E000E32589E696E00E94E50EC4E2D6E0CE011A
:1049F0000E94970E2B9686E0CB35D807C1F78AEF39
:104A000095E00E94A40F88E096E00E94A40F86E142
:104A100096E00E94A40F8EED95E00E94A40FCBE6D5
:104A2000D1E0D093DF05C093DE050E94E3258EED33
:104A300095E00E94E50E8CEE95E00E94A40FD093C5
:104A4000ED05C093EC050E94E3258CEE95E00E94F5
:104A5000E50E10921107109210071092170710928E
:104A6000180780E180931907109216071092150716
:104A700010921B078BE791E090930F0780930E072E
:104A800089E891E0909313078093120710921E0714
:104A900010921D071092200710921F0781E080934B
:104AA0002107109222078093230710922407DF9199
:104AB000CF910895CF92DF92EF92FF920F931F93C1
:104AC000CF93DF931F92CDB7DEB7182F062FE42EBA
:104AD000862F880F8E5F99830E94291383E00E949E
:104AE0002913F12EC12E9981D92E8C2D8F19801763
:104AF00098F4F601E7FE02C0849101C080810E9413
:104B00002913182F80E00E9429138123FFEFCF1A69
:104B1000DF0A8111EACF01C081E00F90DF91CF91D0
:104B20001F910F91FF90EF90DF90CF9008958F929B
:104B30009F92AF92BF92CF92DF92EF92FF92CF936C
:104B4000DF93EC01688179818A819B816115710510
:104B50008105910521F464E279ED8BE597E02DE183
:104B600033EF41E050E00E94652649015A019B0164
:104B7000AC01A7EAB1E40E9484266B017C01ACEE93
:104B8000B4EFA50194010E949226DC01CB018C0DAB
:104B90009D1DAE1DBF1DB7FF03C00197A109B04801
:104BA00088839983AA83BB839F77DF91CF91FF90FE
:104BB000EF90DF90CF90BF90AF909F908F9008952F
:104BC0000E949725089587E191E00E949725089516
:104BD000A0E0B0E08093170190931801A093190111
:104BE000B0931A0108958F929F92AF92BF92CF9285
:104BF000DF92EF92FF92CF93DF93EC01688179818E
:104C00008A819B81611571058105910521F464E21A
:104C100079ED8BE597E02DE133EF41E050E00E9424
:104C2000652649015A019B01AC01A7EAB1E40E9443
:104C300084266B017C01ACEEB4EFA50194010E94C7
:104C40009226DC01CB018C0D9D1DAE1DBF1DB7FF53
:104C500003C00197A109B04888839983AA83BB83C5
:104C6000BC01CD019F77DF91CF91FF90EF90DF9056
:104C7000CF90BF90AF909F908F9008950E94F325A2
:104C800008958BE191E00E94F325089560931B0144
:104C900070931C0180931D0190931E010895F99952
:104CA000FECF92BD81BDF89A992780B50895262F31
:104CB000F999FECF1FBA92BD81BD20BD0FB6F89401
:104CC000FA9AF99A0FBE01960895052E97FB1EF4E5
:104CD00000940E947C2657FD07D00E94972607FC6F
:104CE00003D04EF40C947C26509540953095219538
:104CF0003F4F4F4F5F4F0895909580957095619508
:104D00007F4F8F4F9F4F08950E94B926A59F900D0A
:104D1000B49F900DA49F800D911D11240895B7FF9D
:104D20000C9484260E948426821B930B0895A1E292
:104D30001A2EAA1BBB1BFD010DC0AA1FBB1FEE1F15
:104D4000FF1FA217B307E407F50720F0A21BB30B60
:104D5000E40BF50B661F771F881F991F1A9469F7DC
:104D600060957095809590959B01AC01BD01CF0138
:104D70000895A29FB001B39FC001A39F700D811D34
:104D80001124911DB29F700D811D1124911D089554
:104D9000991B79E004C0991F961708F0961B881F8D
:104DA0007A95C9F78095089597FB072E16F400941D
:104DB00007D077FD09D00E94EE2607FC05D03EF40F
:104DC000909581959F4F0895709561957F4F0895B7
:104DD000EE0FFF1F0590F491E02D0994AA1BBB1B59
:104DE00051E107C0AA1FBB1FA617B70710F0A61BEB
:104DF000B70B881F991F5A95A9F780959095BC010C
:104E0000CD01089581E090E0F8940C940727F89480
:024E1000FFCFD2
:104E1200010101020103030201020300E10000009B
:104E2200000000FFFFFFFF0100000001000000047E
:104E320005060707060504000400080C0C0C080010
:104E42000405060707060504000400080C0C0C08FC
:104E5200000100000200000000080D8C0FD20902C0
:104E6200000200020200000000EE1255128B130431
:104E7200130F138F13AD1300000000080D8C0FD217
:104E820009DF0C2A0F8F0900000000440D5D098A1A
:104E9200098909B023FCFF0000F22300C1808100D0
:104EA200000047414D454F564552004220546F2065
:104EB2005374617274004120666F722068656C7071
:044EC200000D0A00D5
:00000001FF
