:100000000C94B1050C94D9050C94D9050C94D90520
:100010000C94D9050C94D9050C94D9050C94D905E8
:100020000C94D9050C94D9050C94D30D0C94450E61
:100030000C94D9050C94D9050C94D9050C94D905C8
:100040000C94D9050C94D9050C94D9050C94D905B8
:100050000C94D9050C94D9050C94D9050C946F0710
:100060000C94D9050C94D9050C94D9050C94D90598
:100070000C94D9050C94D9050C94D9050C94D90588
:100080000C94D9050C94D9050C94D9050C94D90578
:100090000C94D9050C94D9050C94D9050C94D90568
:1000A0000C94D9050C94D9050C94D905F0F89C8EC4
:1000B0008783878E9CF8F00000FEFF030303030391
:1000C000070EFCF80000FEFF0303030303070EFC0A
:1000D000F80000FFFF00000000000000FFFF00002C
:1000E000FEFF8383838383C7EE7C380000F8FC0E19
:1000F00007030303070EFCF800003F7FE0C0808089
:10010000C0E07F3FFFFF01010101010101FFFF008E
:1001100000FFFF0C0C0C0C1C3E77E3C100007FFFBE
:10012000C0C0C0C0C0E0703F1F00001F3F70E0C0F3
:10013000C0C0E0703F1F00007FFFC1C1C1C1C1E36B
:10014000773E1C00001F3F70E0C0C0C0E0703F1F42
:10015000000000000001FFFF01000000D5F08D1439
:10016000A1C881CFD9F1AF20000808E0B0D0F0F0ED
:10017000F0F0E0E0F0F0F0F0D0B0E01F608F7087BA
:1001800038435C5C433887708F601FE0B0D0F0F07C
:10019000F0F0E0C0B0D8F8F8F8F0C000F0CCFCFC0B
:1001A000FCF0000030CCFEFEFC30001F603FC0C001
:1001B0003F601F033C47F8F8473C0300077FF8F80F
:1001C0007F070000000FFEFE0F0000080820380C1B
:1001D0003C0C3C182000003C7E56D5000004183C26
:1001E000303C301C040000AB6A7E3C0000181C0C44
:1001F0001C0C1C0C1800007EFFD5000000183038C5
:100200003038303818000000ABFF7E000000380C9A
:100210007C7C0C380000003C7E5A5A1800001C30D0
:100220003E3E301C0000185A5A7E3C000000182C3C
:100230007C7C2C180000003C7E5A3C1800001834CE
:100240003E3E34180000183C5A7E3C00001010005E
:1002500000000304FBFCFCFFFCFB040300000000A7
:1002600000000000008FFFFF8F0000000000000072
:1002700000000304FBACFCFFACFB04030000000027
:1002800000000000008FFAFA8F000000000000005C
:1002900000000304FBAC54AF54FB04030000000057
:1002A00000000000008FF6F98F0000000000000041
:1002B00000000306FDAE55AE55FE0503000000002C
:1002C00000000000008FF6F98F0000000000000021
:1002D0000000073EF5AE75AE75EE3D07000000006C
:1002E00000000000018FFDFB8F01000000000000F6
:1002F00000031DEE75AE75AE75AEF51E0300000071
:100300000000000007BBFDFBBD070000000000006F
:10031000000CD45894589458945894D80C00000069
:10032000000000073BDDEBDDEB3D070000000000B7
:100330000000C4589458945894589CC4000000007D
:10034000000000073BDDEBDDEB3D07000000000097
:100350000000C04E9C589E589E588EC00000000061
:10036000000000073BDDEBDDEB3D07000000000077
:100370000000C0428E589E589E4C82C00000000073
:10038000000000073BDDEBDDEB3D07000000000057
:10039000000080840C981C981C8C048000000000D5
:1003A0000000010E77BAD7BAD77A0F01000000001B
:1003B000000000040E1E1E1E1E0E040000000000A1
:1003C0000000031DEE75AE75AEF51E0300000000C3
:1003D0000000000C0C1E1E1E1E0C0C000000000075
:1003E0000000063ADCEA5CEA5CEA3C060000000039
:1003F000000000081C0E1E1E0E1C0800000000005D
:100400000000063ADCEA5CEA5CEA3C060000000018
:10041000000000101C061E061E0C1000000000004C
:1004200000000C74B8D4B8D4B8D4780C000000081C
:1004300008E0180691ADA252484852A2AD910618A4
:10044000E0101000000000C0F0F8FCFEFEFEFEFC14
:10045000F8F0000000001E3FFFFFFFFFFF9F0F07A7
:1004600001000000F0F8FCFEFEFEFEFCF8F0C0000B
:10047000000000000001070F9FFFFFFFFFFF3F1E6E
:1004800000000010100000000000C0F068C4C44468
:10049000C4E8F00000000000001E37B4FEE7930837
:1004A00007010000000000F0E8C444C4C468F0C0C4
:1004B000000000000000000001070893E7FEB437C9
:1004C0001E00000000080880F07C566B351D0E0EE3
:1004D0001D356B567CF080101000000000000000FD
:1004E000000000000000000000000000000000000C
:1004F000000000000000000000800040808000003C
:100500000000004080800000802041824950A1828C
:1005100042228A0A718081221180404080000000BE
:100520004080800000000080804008900021A2826E
:1005300011100881922291881080000000804020D4
:100540004080008040404080801021424241201085
:10055000081122414824122244000000000000003B
:1005600000000000000000000009629A06619A067F
:1005700001629A0601629A06610000000000000014
:10058000000000000000000000314E8232490131BD
:100590004E8232490101314E81000000000000000E
:1005A0000000000000000000000501718A05210123
:1005B000728A05210902728A0508083C187D673F86
:1005C000366C483C181D3F363C664238103A7C6811
:1005D000302020486C363F677D183C42663C363FF1
:1005E0001D183C202030687C3A10380000000000C4
:1005F0003E5B4F5B3E3E6B4F6B3E1C3E7C3E1C1891
:100600003C7E3C181C577D571C1C5E7F5E1C0018EE
:100610003C1800FFE7C3E7FF0018241800FFE7DBE2
:10062000E7FF30483A060E2629792926407F05053E
:1006300007407F05253F5A3CE73C5A7F3E1C1C087B
:10064000081C1C3E7F14227F22145F5F005F5F0640
:10065000097F017F006689956A606060606094A28E
:10066000FFA29408047E040810207E201008082AA7
:100670001C08081C2A08081E101010100C1E0C1E46
:100680000C30383E3830060E3E0E060000000000EA
:1006900000005F00000007000700147F147F14248F
:1006A0002A7F2A1223130864623649562050000814
:1006B000070300001C2241000041221C002A1C7F6D
:1006C0001C2A08083E080800807030000808080846
:1006D00008000060600020100804023E5149453EB9
:1006E00000427F400072494949462141494D331833
:1006F00014127F1027454545393C4A49493141216B
:100700001109073649494936464949291E0000144E
:100710000000004034000000081422411414141496
:1007200014004122140802015909063E415D594E48
:100730007C1211127C7F494949363E414141227F5A
:100740004141413E7F494949417F090909013E41F3
:100750004151737F0808087F00417F4100204041DC
:100760003F017F081422417F404040407F021C022D
:100770007F7F0408107F3E4141413E7F0909090601
:100780003E4151215E7F09192946264949493203D4
:10079000017F01033F4040403F1F2040201F3F405A
:1007A00038403F6314081463030478040361594913
:1007B0004D43007F41414102040810200041414166
:1007C0007F0402010204404040404000030708004B
:1007D00020545478407F28444438384444442838CE
:1007E0004444287F385454541800087E090218A441
:1007F000A49C787F0804047800447D400020404099
:100800003D007F1028440000417F40007C047804B4
:10081000787C080404783844444438FC18242418AC
:1008200018242418FC7C0804040848545454240454
:10083000043F44243C4040207C1C2040201C3C4081
:1008400030403C44281028444C9090907C446454A0
:100850004C44000836410000007700000041360893
:100860000002010204023C2623263C1EA1A16112C3
:100870003A4040207A3854545559215555794121F0
:1008800054547841215554784020545579400C1ED9
:100890005272123955555559395454545939555481
:1008A00054580000457C410002457D420001457CD2
:1008B00040F0292429F0F0282528F07C54554500E3
:1008C0002054547C547C0A097F49324949493232C8
:1008D00048484832324A4848303A4141217A3A42FF
:1008E000402078009DA0A07D39444444393D4040DB
:1008F000403D3C24FF2424487E4943662B2FFC2F97
:100900002BFF0929F620C0887E0903205454794121
:100910000000447D413048484A32384040227A0045
:100920007A0A0A727D0D19317D2629292F28262958
:1009300029292630484D40203808080808080808AA
:1009400008382F10C8ACBA2F102834FA00007B00EA
:100950000008142A142222142A1408950022009553
:10096000AA005500AAAA55AA55AA000000FF001027
:100970001010FF00141414FF001010FF00FF1010DF
:10098000F010F0141414FC001414F700FF0000FF22
:1009900000FF1414F404FC141417101F10101F107F
:1009A0001F1414141F00101010F0000000001F107E
:1009B0001010101F10101010F010000000FF101089
:1009C00010101010101010FF10000000FF14000095
:1009D000FF00FF00001F10170000FC04F4141417A0
:1009E00010171414F404F40000FF00F71414141486
:1009F000141414F700F7141414171410101F101FF8
:100A0000141414F4141010F010F000001F101F0044
:100A100000001F14000000FC140000F010F0101083
:100A2000FF10FF141414FF141010101F000000001A
:100A3000F010FFFFFFFFFFF0F0F0F0F0FFFFFF000E
:100A400000000000FFFF0F0F0F0F0F384444384421
:100A50007C2A2A3E147E02020606027E027E026381
:100A6000554941633844443C04407E201E20060220
:100A70007E020299A5E7A5991C2A492A1C4C7201FD
:100A8000724C304A4D4D303048784830BC625A463E
:100A90003D3E494949007E0101017E2A2A2A2A2A2F
:100AA00044445F444440514A444040444A51400019
:100AB00000FF0103E080FF000008086B6B0836129E
:100AC000362436060F090F06000018180000001023
:100AD00010003040FF0101001F01011E00191D1709
:100AE00012003C3C3C3C00000000000102040810E5
:100AF000204080080B0002020201000904000001EE
:100B00000202000005240010010524010101042453
:100B100002060524060001070581031000400904B0
:100B20000100020A0000000705020240000007055C
:100B300083024000000403090412010002EF0201D5
:100B4000404123368000010102030141726475694E
:100B50006E6F204C4C430041726475626F790000E7
:100B60008C1911241FBECFEFDAE0DEBFCDBF11E03C
:100B7000A0E0B1E0ECE9F8E302C005900D92A437E3
:100B8000B107D9F726E0A4E7B1E001C01D92A23A6F
:100B9000B207E1F715E0C1EBD5E004C02197FE01F3
:100BA0000E94411CC03BD107C9F70E9475100C94EC
:100BB0004C1C0C940000CF92DF92EF92FF920F93A7
:100BC0001F93CF93DF936C017A018B01C0E0D0E0DB
:100BD000CE15DF0589F0D8016D918D01D601ED911B
:100BE000FC910190F081E02DC6010995892B11F44B
:100BF0007E0102C02196ECCFC701DF91CF911F91FA
:100C00000F91FF90EF90DF90CF900895EBEEFAE018
:100C100090E1969FD001A0781124A80F6770E60F8D
:100C2000F11D9491AF56BE4F442319F08C91982B2F
:100C300003C090958C9198239C9308952F923F9296
:100C40004F925F926F927F928F929F92AF92BF92DC
:100C5000CF92DF92EF92FF920F931F93CF93DF9388
:100C6000CDB7DEB727970FB6F894DEBF0FBECDBF66
:100C7000FC016A3069F425898189928938E0239FD3
:100C8000800D911D1124928B818B108A1786A6C02E
:100C90006D3009F4A3C09F838E833588248929830E
:100CA00033893A8361887288E784F08880E8E8169F
:100CB000F104C4F0AE81BF8155962C915597422F17
:100CC00050E01F968D919C915097B6E02B9F800D20
:100CD000911D1124EE81FF81908B87872689211138
:100CE00067C07CC0F0E46F16710424F7C70125E0EB
:100CF000329E800D911D112418161906DCF6432C26
:100D0000512CC30138E0339E800D911D112418161B
:100D1000190684F685E0689F8001112405511A4F59
:100D200020E0F8012490253009F4212C430158E0FB
:100D300020FC02C0398101C03A8131110BC0F98118
:100D40008A81F81307C026945150840C951C5111C8
:100D5000EFCF25C067018C2D8E198315A0F75401A4
:100D60008A2D88198315B8F490E8C916D10478F44F
:100D7000A0E4AA16B10458F4432FB501C6012C8390
:100D80003B835D830E9406065D813B812C81BFEF22
:100D9000AB1ABB0AE5CFEFEFCE1ADE0ADCCF2F5F2E
:100DA000E40CF51C0F5F1F4F263009F0BACF82CF3D
:100DB0006AEF64039001659F300D112420583F4F66
:100DC000281739075CF4AE81BF81ED91FC91119732
:100DD0000190F081E02D6AE0CD01099581E090E07D
:100DE00027960FB6F894DEBF0FBECDBFDF91CF912F
:100DF0001F910F91FF90EF90DF90CF90BF90AF9039
:100E00009F908F907F906F905F904F903F902F902A
:100E100008950895089580E090E008950E94471C89
:100E20003FB7F8948091870190918801A091890142
:100E3000B0918A0126B5A89B05C02F3F19F00196F5
:100E4000A11DB11D3FBFBA2FA92F982F8827820F50
:100E5000911DA11DB11DBC01CD0142E0660F771FA0
:100E6000881F991F4A95D1F708958F929F92AF924C
:100E7000BF92CF92DF92EF92FF926B017C010E94B2
:100E800010074B015C01C114D104E104F104F1F03D
:100E90000E941007DC01CB0188199909AA09BB0936
:100EA000883E9340A105B10570F321E0C21AD10834
:100EB000E108F10888EE880E83E0981EA11CB11CA1
:100EC000C114D104E104F10419F7DDCFFF90EF90D4
:100ED000DF90CF90BF90AF909F908F9008951F921A
:100EE0000F920FB60F9211242F933F938F939F93DE
:100EF000AF93BF938091740190917501A091760199
:100F0000B09177013091860123E0230F2D3720F433
:100F10000196A11DB11D05C026E8230F0296A11D53
:100F2000B11D209386018093740190937501A09365
:100F30007601B09377018091870190918801A0910B
:100F40008901B0918A010196A11DB11D809387018D
:100F500090938801A0938901B0938A01BF91AF91CA
:100F60009F918F913F912F910F900FBE0F901F90E7
:100F700018954F925F927F928F929F92AF92BF92FD
:100F8000CF92DF92EF92FF920F931F93CF93DF9355
:100F900000D000D0CDB7DEB729011C2DA02EB12C7A
:100FA0009C012A0D3B1D121613060CF0B3C18038AC
:100FB00091050CF0AFC1FB01EE0DF11D1E161F06D1
:100FC0000CF0A8C1603471050CF0A4C141155105A5
:100FD00009F4A0C1E62FE770FE2EFB0177FD3796DE
:100FE000A3E0F595E795AA95E1F7AE2F77FF04C04A
:100FF000FF2011F0AFEFAE0F97FF05C0EE27FF27E0
:10100000E81BF90B02C0E0E0F0E02038310524F0E5
:1010100020E8722E781A01C0702E7E1A6A2F0A2ECE
:10102000000C770BAF3F1CF4D62ED09401C0D12C0E
:1010300021E03E2D377009F420E0E694E694E69432
:10104000E20E6E0D711D693071051CF028E0E22E74
:10105000EA1AED183D2D3A0FDC0120E83203A00D0D
:10106000B11D1124AE0FBF1FD09EE00DF11D112444
:101070004E0F5F1F81E090E04C010F2C02C0880CE6
:10108000991C0A94E2F7133009F403C1A0F411305B
:1010900009F4B5C0123009F03DC18FEF889DB00151
:1010A000899D700D1124609570957C836B835C80A5
:1010B0002E2D230F2BC01A3F31F01B3F09F02AC100
:1010C0002E2D230F88C02E2D230F51C0FA01E00FC3
:1010D000F11FE491E89D6001E99DD00C1124DA82B2
:1010E000C98237FD07C0FC01E080EE2DE623CE2A41
:1010F000FC01C082F11013C00F5F1F4F019607154E
:1011000028F33F5F4A0D5B1DA058BF4F321709F40B
:1011100001C1CD018F569E4F00E010E0F0CF373077
:101120005CF7FC01E058FF4FD080D520CA80DC2856
:10113000D082E2CFFA01E60FF71FE491E89D80012B
:10114000E99D100D11241A83098337FD04C0FC01A9
:101150001081012B0083F11013C06F5F7F4F019648
:10116000671540F33F5F4A0D5B1DA058BF4F321714
:1011700009F4D0C0CD018F569E4F60E070E0F0CFF3
:1011800037305CF78C0100581F4FF801E080EA818E
:10119000EE2AF801E082E1CFFA01E00FF11FE491BD
:1011A000E89DC001E99D900D11249A83898337FD44
:1011B00005C08095FB01908189238083F11014C0C4
:1011C0000F5F1F4F6F5F7F4F071530F33F5F4A0D73
:1011D0005B1DA058BF4F321709F49CC0BD016F566C
:1011E0007E4F00E010E0F0CF373054F7FB01E058BD
:1011F000FF4F8A818095908189238083E1CFC2014E
:101200008E0F9F1F2E2D230F321709F483C0BD01AF
:101210006F567E4F6B0100E010E0071590F5FC0162
:10122000E00FF11FE491E89DB001E99D700D1124DC
:10123000609570957C836B83FA01E00FF11FE49158
:10124000E89D2001E99D500C11245A82498237FD06
:1012500005C0F60170816723462A4082FF2059F0BD
:1012600037304CF4F601E058FF4F70816C816723F2
:101270007A81672B60830F5F1F4FFFEFCF1ADF0A62
:10128000CCCF3F5F4A0D5B1D8A0D9B1DA058BF4F01
:10129000BBCFC72CD12CE40FF51FAF56BE4F60E873
:1012A00070E06C197D09AC18BD088501000F111F95
:1012B000572D2E2DCF93DF93ED01EF96EF962296CB
:1012C000A590C590FF2059F0A89C5001C89C6001D2
:1012D00037302CF4E880D094ED20EB28E9923323CA
:1012E0003AF0EC90C094EC20EA28ED920C94790945
:1012F00011965A9529F72A9551F0572D33951124B7
:10130000E00FF11DA60FB11DC60FD11DD9CFDF9182
:10131000CF9111240F900F900F900F90DF91CF91EC
:101320001F910F91FF90EF90DF90CF90BF90AF9003
:101330009F908F907F905F904F900895CF92DF9213
:10134000EF920F93CF93DF934115510569F1FA01A5
:1013500004913196E4904E5F5F4F2223F9F0C02F45
:10136000D0E0AE2DA695A695A695EA2FF0E0A1E0D7
:10137000B0E03E2D377011F4A0E0B0E0AE0FBF1F1B
:10138000CA9F6001CB9FD00CDA9FD00C11242C9DFA
:10139000F0012D9DF00D11244E0F5F1F2AEFC22E7C
:1013A00020E030E00E94B907DF91CF910F91EF90DC
:1013B000DF90CF9008952D9A0895BC0180E090E0D1
:1013C0000C9435078FB18095807F669B88601C9B4D
:1013D000846008950C94941BFC0162817381808168
:1013E00091818038910530F46034710518F441E042
:1013F0000C94060608950F931F93CF93DF93EC018F
:101400000E94281B02E010E0B8010E94191C988776
:101410008F830E94281B68E270E00E94191C41968D
:101420009B838A838F819885009779F48FEF9FEF54
:101430009983888383E090E09A8789870E94281B9C
:10144000B8010E94191C01960EC0019771F481E841
:1014500090E0998388831A8709870E94281BB80126
:101460000E94191C02979D838C83DF91CF911F915D
:101470000F910895FC014481558120813181240F11
:10148000351F318320831416150624F423383105C3
:1014900034F40895452B29F02E3F3F4F14F40C945B
:1014A000FB0908950F931F93CF93DF93EC010E94E4
:1014B000281B60E370E00E94191C0A969B838A83B4
:1014C0000E94281B02E010E0B8010E94191C9887B6
:1014D0008F83009779F48FEF9FEF9983888383E060
:1014E00090E09A8789870E94281BB8010E94191CE6
:1014F00001960EC0019771F480E890E0998388838B
:101500001A8709870E94281BB8010E94191C02979C
:101510009D838C83DF91CF911F910F910895EF925E
:10152000FF920F931F93CF93DF93EC010E94281B30
:1015300023E0E22EF12CB7010E94191C8B870E9438
:10154000281B02E010E0B8010E94191C98878F83C5
:101550000E94281B64E270E00E94191C0D969B8378
:101560008A838F819885009769F48FEF9FEF998325
:101570008883FA86E9860E94281BB8010E94191CFC
:1015800001960EC0019771F481E890E099838883F9
:101590001A8709870E94281BB8010E94191C02970C
:1015A0009D838C83DF91CF911F910F91FF90EF90DE
:1015B0000895FC014481558120813181240F351F1C
:1015C000318320831416150624F42D39310534F4A3
:1015D0000895452B29F02C3E3F4F14F40C948F0AAC
:1015E0000895FC012781822F880F280F8385280FFB
:1015F0006281738149EB55E0808191810C949E0951
:101600002FB7F89483E08093E9009091E800892F48
:10161000807295FF04C09091F20080E4891B2FBF77
:101620000895CF93DF931F92CDB7DEB76983DC01B6
:10163000ED91FC910280F381E02D41E050E0BE018C
:101640006F5F7F4F09950F90DF91CF91089583E0F1
:101650008093E9008091F200882319F08AE3809357
:10166000E80008950E94000B90E008958F929F92E9
:10167000AF92BF92CF92DF92EF92FF920F931F93A0
:10168000CF93DF935C016B017A0180911101882374
:1016900009F45BC080918E01882309F456C08091C3
:1016A0008C0180FF05C08091E00082608093E000A3
:1016B000E70110E00AEF83E0882E9AE3992E209745
:1016C000D9F10E94000B81110AC0015009F43DC0FC
:1016D00061E070E080E090E00E943507F0CF282FB5
:1016E00030E0C217D3070CF48C2F4FB7F8948092D8
:1016F000E9009091E80095FF1DC0282F30E0C21B43
:10170000D30BF601982F915020F081918093F10036
:10171000FACFC20ED31E112319F09092E80009C02F
:101720008091E80085FD06C09092E80011E02097C6
:1017300009F010E04FBFC3CF1111C3CF5D9884E60D
:1017400080938B011E141F0444F081E090E0F501AA
:101750009383828380E090E001C0C701DF91CF9145
:101760001F910F91FF90EF90DF90CF90BF90AF90BF
:101770009F908F90089580E0E1E9F1E081118FEF73
:10178000002481938193819381930394D1F70895E9
:1017900020913306282329F490913206982381E082
:1017A00009F480E00895CF92DF92EF92FF920F93B9
:1017B0001F93CF93DF938C01E901E0908F01F090AC
:1017C000900122E0E216F10430F4209721F44E5FFC
:1017D0005F4F94E00CC0C7010297029738F420973E
:1017E00029F46E5F7F4F98E034E002C098E038E063
:1017F000F801A081B181C280D3802097D1F4FB0190
:10180000E30FF11DAE17BF070CF054C011966A1715
:101810007B070CF04FC09A01290F311DC216D30669
:101820000CF048C0F60131964E175F070CF042C02D
:1018300032C0C130D105B1F4FB01E30FF11DAE1789
:10184000BF07C4F511966A177B07A4F59A01290F03
:10185000311DC216D30674F5F60131964E175F0797
:101860004CF521C0229731F5FB01E30FF11DAE17B6
:10187000BF0704F511966A177B07E4F49A01290F54
:10188000311DC216D306B4F4F601319681E04E172D
:101890005F078CF00FC081E0F801218532852E159D
:1018A0003F0541F408C081E0F801218532852E15FD
:1018B0003F0509F480E0DF91CF911F910F91FF90D8
:1018C000EF90DF90CF900895DC01ED91FC9111979E
:1018D00012968D919C911397DB011896EA17FB07DE
:1018E0008CF438966E177F076CF4BA01620F711D85
:1018F000861797073CF49C01285F3F4F81E0421711
:1019000053070CF080E00895009769F0FC01019006
:101910000020E9F73197AF01481B590BBC0189E260
:1019200096E00C94DB0580E090E00895E1E9F1E0B9
:10193000A0E0B8E000800EBC8111012C1197A0FD41
:10194000FDCF0192B9F70DB40895FC0180918E018D
:10195000811103C08FEF9FEF08959FB7F89482E045
:101960008093E9002091F20030E01216130614F47F
:1019700021E030E02115310559F0289884E6809364
:101980008D018091F10080838091F200882319F00D
:101990009FBFC90108958BE68093E800F9CFCF93EC
:1019A000DF931F92CDB7DEB7FC018485958597FD47
:1019B00005C02FEF3FEF358724870BC0CE0101967E
:1019C0000E94A50C019719F4898190E002C08FEF65
:1019D0009FEF0F90DF91CF91089580914406811180
:1019E0000DC082E08093400684E08093410610920F
:1019F00043061092420681E08093440680E496E01C
:101A00000895FC018485958597FD0BC09FB7F894D8
:101A100082E08093E9008091F2009FBF90E0019600
:101A200008959FB7F89482E08093E9008091F200D6
:101A30009FBF90E008954091A0065091A10620918B
:101A40009E0630919F0642175307B4F49091E80028
:101A50009570E1F39091E80092FD19C08093F10038
:101A60008091A0069091A10601968F739927892BEA
:101A700019F48EEF8093E8008091A0069091A10662
:101A800001969093A1068093A00681E0089580E0DE
:101A90000895DF92EF92FF920F931F93CF93DF93FE
:101AA000D82E8A017B01E40EF51EEB01CE15DF0571
:101AB00071F0D7FE03C0FE01849101C088810E94AD
:101AC0001B0D21968111F2CF8FEF9FEF01C0C8014E
:101AD000DF91CF911F910F91FF90EF90DF900895CC
:101AE000615030F02091F100FC0120830196F8CF85
:101AF000289884E680938D0108950F931F93CF93C8
:101B0000DF931F92CDB7DEB78C01FC0184859585EC
:101B100097FF0EC0CE0101960E94A50C019719F403
:101B2000298130E002C02FEF3FEFF801358724878D
:101B3000F801848595850F90DF91CF911F910F91CA
:101B400008950F931F93CF93DF931F92CDB7DEB706
:101B500082E0898342E450E063EF7AE080E80E940B
:101B6000490D0E94ED0CDC0112960D911C9113970A
:101B70000115110569F0D801ED91FC910280F38106
:101B8000E02DBE016F5F7F4FC801099597FF07C029
:101B900089810F90DF91CF911F910F910895F801E6
:101BA00000851185E5CF1F920F920FB60F92112479
:101BB0008F939F938091E1009091E100937F9093A8
:101BC000E10083FF0FC01092E90091E09093EB00D9
:101BD0001092EC0092E39093ED0010928E0198E049
:101BE0009093F00082FF20C093E09093E9009091E1
:101BF000F200992319F09AE39093E80090918B01F9
:101C0000992339F090918B01915090938B019923F6
:101C100089F190918D01992339F090918D01915026
:101C200090938D01992341F184FF10C08091E200CF
:101C30008E7E81608093E2008091E1008F7E8093B0
:101C4000E10080918C018E7E806111C080FF16C002
:101C50008091E2008E7E80618093E2008091E100BD
:101C60008E7E8093E10080918C018E7E81608093D6
:101C70008C0104C05D9ACDCF289AD6CF9F918F91C9
:101C80000F900FBE0F901F9018951F920F920FB6D6
:101C90000F921124CF92DF92EF92FF920F931F9336
:101CA0002F933F934F935F936F937F938F939F9364
:101CB000AF93BF93EF93FF93CF93DF93CDB7DEB78F
:101CC0006C97DEBFCDBF1092E9008091E80083FFE2
:101CD000EDC168E0CE0145960E94700D82EF8093C1
:101CE000E8008D8987FF05C09091E80090FFFCCF48
:101CF00003C09EEF9093E800982F907609F0C6C03D
:101D00009E892F89188D91110CC0803829F48091FB
:101D10009D068093F10002C01092F1001092F10034
:101D200048C1422F50E0512B913051F4811141C1F3
:101D30004130510509F03DC180919D068D7F0BC05A
:101D4000933061F4811135C14130510509F031C141
:101D500080919D06826080939D062BC1953041F451
:101D60008091E80080FFFCCF20682093E30021C130
:101D7000963009F05FC0EB8CFC8C1092E900109259
:101D8000A1061092A006123091F510929F061092B3
:101D90009E060E94A10D99E0BE016F5F7F4FDB019F
:101DA000E92F1D92EA95E9F799831A8391E09E83C2
:101DB00090EA98879AEF99872091A0063091A10622
:101DC000275F3F4F3C832B838D831092E900109255
:101DD000A1061092A006F0929F06E0929E0649E0AE
:101DE00050E080E00E94490D0E94A10DE2C0F092F7
:101DF0009F06E0929E060E94ED0CDC011296ED908B
:101E0000FC901397E114F10409F4C0C0D701ED91DF
:101E1000FC910480F581E02DBE016B5E7F4FC70110
:101E20000995009719F00CF0C4C0C7C0F701E08411
:101E3000F184E8CF973009F4C0C0983021F481E0F4
:101E40008093F100B6C0993009F0B3C0837009F0F7
:101E5000B4C0EAE5F1E081E021E036E39081992326
:101E600061F08093E9002093EB0091919093EC0056
:101E70003093ED008F5F873089F78EE78093EA001B
:101E80001092EA008F8980938E0193C08B8D9C8D78
:101E90001092E9001092A1061092A00690939F065E
:101EA00080939E06898D811156C08E899D89913AB5
:101EB00059F4813209F081C047E050E06AE071E0F6
:101EC00080E00E94490D75C0913209F076C08332DE
:101ED00089F4888D90E0982F88272F89822BA0E0A5
:101EE000B0E08093120190931301A0931401B0937A
:101EF00015015FC0803269F48091E80082FFFCCF59
:101F000067E08AE091E00E94700D8BEF8093E8001B
:101F100006C0823209F04DC08F89809311018091F3
:101F20009C06882319F0EEEFFAE002C0E0E0F8E04A
:101F300080910A0190910B01A0910C01B0910D01CB
:101F4000803B9440A105B10509F07BC0809111014F
:101F500080FF93C076C00E94ED0CDC0112960D91BB
:101F60001C9113970115110541F1D801ED91FC91D8
:101F70000190F081E02DBE016B5E7F4FC801099595
:101F8000811117C0F80100851185ECCF113009F4DB
:101F90004EC0133091F48F89882309F445C08230F4
:101FA00081F440E867E087E59BE00E949F1A882360
:101FB00021F08EEF8093E80079C081E28093EB00FE
:101FC00075C0813029F440E86BE08BE49BE0EDCFF5
:101FD000833099F70E94ED0CDC011296ED90FC9095
:101FE00013978E010F5F1F4F6801E114F10479F020
:101FF000D701ED91FC910680F781E02DB801C70172
:102000000995080F111DF701E084F184EECFD80186
:102010001C92F60101900020E9F73197BF016C197D
:102020007D0940E0C601C1CF65E37BE002C069E302
:102030007BE06115710509F2FB01449150E080E8F5
:1020400040CF0FB6F894A895809160008861809386
:102050006000109260000FBEA895EE3F2AE0F207E4
:1020600039F08091FE0A9091FF0A91838083A1CF7D
:102070001092FF0A1092FE0A9CCFEE3F8AE0F8070A
:1020800031F0808191819093FF0A8093FE0A87E767
:1020900097E7918380839BE088E10FB6F894A89539
:1020A000809360000FBE9093600083CF6C960FB654
:1020B000F894DEBF0FBECDBFDF91CF91FF91EF91BE
:1020C000BF91AF919F918F917F916F915F914F9150
:1020D0003F912F911F910F91FF90EF90DF90CF9044
:1020E0000F900FBE0F901F901895CF93DF93CDB731
:1020F000DEB7A3970FB6F894DEBF0FBECDBF7894BE
:1021000084B5826084BD84B5816084BD85B58260FC
:1021100085BD85B5816085BD80916E0081608093AD
:102120006E00109281008091810082608093810016
:102130008091810081608093810080918000816026
:1021400080938000809191008260809391008091C3
:1021500091008160809391008091900081608093D4
:1021600090008091C10084608093C1008091C10083
:1021700082608093C1008091C10081608093C10022
:102180008091C30081608093C3008091C000826011
:102190008093C0008091C20081608093C2008091D2
:1021A0007A00846080937A0080917A0082608093C4
:1021B0007A0080917A00816080937A0080917A0021
:1021C000806880937A0010928E0110929D06109282
:1021D0008C018091D70081608093D70080EA809342
:1021E000D80089B5806189BD89B5826089BD09B48F
:1021F00000FEFDCF61E070E080E090E00E943507D6
:102200008091D8008F7C80618093D8008091E0001D
:10221000807F8093E0008091E1008E7E8093E100DA
:102220008DE08093E200559A209AEEEFFFE78591CA
:1022300094918B3F9C4D19F481E080939C0681EC36
:1022400080937C0085B1806F85B984B1877E84B925
:1022500084B1876E84B95E9A5F988AB1806D8AB9BD
:10226000769A6E9881B3806F81BB899880B38D70A8
:1022700080BB80E58CBD81E08DBD85E090E00E9453
:10228000DD095F9A85E090E00E94DD095E985C9828
:10229000ECE5F1E08DE08E0F94919EBD00000DB451
:1022A00007FEFDCF31968E13F7CF5C9A81E88093BD
:1022B00064008091650081608093650080E00E94E9
:1022C000960C0E94E20987FF24C05C9885EA8EBDC7
:1022D00000000DB407FEFDCF5C9A2E982F982D9824
:1022E0008091640080628093640081E083BF889560
:1022F00013BEFCCF2D980E94E2098478843871F0D7
:102300000E94E2098471843131F188EC90E00E94EE
:10231000DD090E94E20982FDEDCF3AC00E94DB098F
:1023200088EC90E00E94DD092F9882E090E00E9406
:10233000941B8F3F29F06FEF82E090E00E949C1B7E
:1023400084EF91E00E94DD092F9A0E94E2098478CF
:102350008438D9F3D5CF0E94DB0988EC90E00E9445
:10236000DD092E9882E090E00E94941B882329F0DA
:1023700060E082E090E00E949C1B84EF91E00E946C
:10238000DD092E9A0E94E20984718431D9F3BDCF10
:102390000E94DB0982E090E00E94941B882331F0C8
:1023A0003E9A3F9A81E08093780104C010927801B0
:1023B0003E983F9881E090E00E94EA0982FB7724F2
:1023C00070F881FF8EC071102E9800EF1FEF58E05B
:1023D000A52EB12C0E94E20986FF04C02E9A2F9AE6
:1023E0002D9A7FC0772029F00430110511F42E9A20
:1023F0002F9881E00E94960C980117FF04C02227B5
:102400003327201B310B27703327C80117FD079690
:1024100043E0959587954A95E1F717FF05C0019729
:10242000A501421B530B9A017C01F694FE2CEE246D
:10243000F794E79440E050E02501421A530AB701AF
:1024400060587F4F4B018F3F7FEF970744F4019611
:10245000485A5F4F7401403B510589F721C0D701AD
:10246000AB5DBD4F60E070E08F3FEFEF9E0709F47A
:102470007CC1FB01E40FF51FE455FF4FE4916D01B2
:10248000C818D908CE0CDF1CF0E01F01022E01C0D5
:10249000220C0A94EAF7F60160802628208265C1A2
:1024A00080E00E94960C8FE090E00E94DD090F5FB3
:1024B0001F4F0931110509F08DCF772011F02F9AA8
:1024C0002D9880E991E00E94DD090E94DB09E091EE
:1024D0002D06F0912E060190F081E02D8DE296E020
:1024E000099582E390E00E94DD090E94E2098111D2
:1024F000F8CF82E4809334060E94BB0B10923B0617
:1025000010923A0610923906109238061092840101
:102510001092830182E090E09093900180938F016C
:10252000E2E02E2E312CFAE04F2E512C612C712C32
:10253000A5E08A2E912C73E0A72EB12C8FB7F894CA
:10254000409174015091750160917601709177010D
:102550008FBF80913506F42FF81B8F2F9091360690
:10256000992329F0F093370610923606F6C0909121
:102570003406F91748F48F5F891708F0EEC081E040
:1025800083BF889513BEE9C081E0809336064093EF
:102590003506809130069091310601969093310670
:1025A0008093300680913206809333060E94E209C0
:1025B000809332060E94BB0B10923B0610923A06A3
:1025C000109239061092380661E9C62E65E0D62EC3
:1025D000E12CF12C6FE271E07BA36AA300E010E034
:1025E000EAA1FBA18191FBA3EAA3811102C020E033
:1025F00004C0823041F4F601208147ED54E0B80177
:10260000C7010E949E09005F1F4F0034110541F76A
:10261000F0E1EF0EF11C2FEFC21AD20A40E8E416E7
:10262000F104C1F651E0C52E51E0D52EE12CF12C7C
:10263000F60121916F01009181011091820147ED16
:1026400054E06AEF7FEFC701801B910B0E949E0947
:10265000F0E1EF0EF11C20E9E216F10449F70F5FFB
:102660001F4F0031110529F0109382010093810161
:102670002CC010928201109281010E94281B20918F
:102680000201209301012091030120930201209176
:10269000040120930301209105012093040120915E
:1026A0000601209305012091070120930601209146
:1026B0000801209307012091090120930801B50129
:1026C0000E94191C8F5F8093090180E80E94C80B4B
:1026D000182F882359F080E20E94C80B811106C090
:1026E00080E40E94C80B882309F47DC580E10E9424
:1026F000C80B082F882331F080E20E94C80B882382
:1027000009F44EC080E40E94C80B882319F01123FD
:1027100009F46EC580E20E94C80B882319F01123CA
:1027200009F46DC5809185018F5F893108F044C03F
:10273000809385018091830190918401823091057D
:1027400009F4E2C00CF03BC0009709F438C30197CC
:1027500009F459C080E00E94960C80E090E0892B3B
:1027600009F4ECCE0E940000E6CE2115310581F07F
:10277000FB01E40FF51FE455FF4FE491F0E0042C5A
:1027800002C0F595E7950A94E2F7DC90ED29EC9309
:102790006F5F7F4F11966835710509F065CE57CE92
:1027A00080E40E94C80B8111ADCF81E090E090934E
:1027B000900180938F01B6CF10928501BBCF8430FA
:1027C000910509F45DC30CF478C1059709F0C2CFF7
:1027D00080E691E00E94840C8CE390E090933906AF
:1027E000809338068EE190E090933B0680933A0602
:1027F00020917F013091800140E050E019A28E01CC
:102800000F5D1F4FC9C280910001882321F01092F3
:1028100085011092000180918F019091900182308A
:10282000910529F4109220068FEF9FEF07C00397C0
:1028300049F481E08093200681E090E090932606A1
:102840008093250640912306509124064833510574
:10285000A4F52091210630912206809125069091C1
:102860002606820F931F90932206809321063091B3
:102870008501337059F420911F06BA01620F711D52
:1028800027FD7A95709324066093230697FF09C06D
:1028900081E090E0909326068093250680932006A1
:1028A00015C08A37910594F08FEF9FEF909326061D
:1028B000809325061092200609C0809127069091EA
:1028C0002806019690932806809327068091270674
:1028D000909128064F974CF01092850181E08093EB
:1028E000000130928401209283016091230670914F
:1028F00024062091200645EC54E080912106909119
:1029000022060E949E0926CF809100018823D1F0E3
:102910008091210690912206089790931606809345
:102920001506809123069091240608979093180627
:1029300080931706809120068093140610928501DB
:102940001092000120918F01309190018091150625
:102950009091160660911706709118062230310585
:1029600039F421E0209314069C012250310908C05B
:102970002330310581F4109214069C01265F3F4FED
:1029800030931A06209319069B0124503109309385
:102990001C0620931B0620911D0630911E062F5FFA
:1029A0003F4F30931E0620931D0620917F013091EA
:1029B00080012430310548F01092850121E02093F8
:1029C0000001B0928401A092830110911406E3E803
:1029D000F4E00491E4E8F4E0E490112319F1A02F6D
:1029E000B0E02E2D269526952695422F50E021E029
:1029F00030E0EE2DE77011F420E030E0240F351FB9
:102A0000A29FF001A39FF00DB29FF00D11241E9F15
:102A1000A0011F9F500D11249A012F5B3B4F4B5774
:102A20005B4F04C021E434E045E854E0CC24C39477
:102A30000E94B90780911406813031F460911B0621
:102A400070911C0621E007C081110DC060911B062A
:102A500070911C0620E04FE254E08091190690919D
:102A60001A060E949E090DEB15E0C8010E943A0A61
:102A7000C8010E94EC0940911B0650911C06609110
:102A8000190670911A0621E030E0C8010E94D30BAC
:102A9000882361F0C8010E94FB0980917F01909119
:102AA000800101969093800180937F01055F1F4F05
:102AB00075E0043F1707C9F64DCE809100018823C9
:102AC00091F08091150690911606909307068093D9
:102AD0000606809117069091180690930906809338
:102AE000080610920001209112066091080670916C
:102AF000090680910606909107062D3120F426954F
:102B00004DE452E01EC020917E012223B1F00091DD
:102B10007C0110917D01F801EA5DFE4F30910E06B7
:102B20002081230F4BEC51E00E949E090F5F1F4F45
:102B300010937D0100937C0106C020910E064BECA2
:102B400051E00E949E0980917C0190917D0109973E
:102B500034F010927E0110927D0110927C018091E0
:102B60007E01811120C080918F019091900100978A
:102B700029F410920F0610920E0615C082309105AE
:102B800019F481E090E00BC08130910529F4309276
:102B90000F0620920E0607C08330910521F4909312
:102BA0000F0680930E0610918501812F83709091FE
:102BB000120681110CC09D3150F020910606309113
:102BC00007062150310930930706209306069E31EF
:102BD00020F49F5F9093120602C01092130684E0C7
:102BE0000E94C80B882389F08091130681110DC0C3
:102BF0000DC3223031050CF022C3232B31F48CEFAE
:102C00009FEF90930D0680930C0640910A06509119
:102C10000B066091060670910706640F751F70938E
:102C200007066093060620910C0630910D068091F0
:102C3000080690910906820F931F909309068093CE
:102C40000806141615061CF44150510905C041151B
:102C5000510531F04F5F5F4F50930B0640930A06CA
:102C6000121613061CF42150310905C02115310537
:102C700031F02F5F3F4F30930D0620930C066937DC
:102C800071053CF088E790E0909307068093060674
:102C900015C077FF05C010920706109206060EC0F9
:102CA0008F3291051CF08EE290E004C0079734F457
:102CB00087E090E09093090680930806812F6FE0EB
:102CC0000E940D1C911109C080911006909111066F
:102CD00001969093110680931006809110069091B2
:102CE0001106CD975CF01092850181E08093000180
:102CF00084E090E090938401809383010DEB15E0D4
:102D0000C8010E943A0AC8010E94EC0940910806D5
:102D100050910906609106067091070620E030E0A8
:102D2000C8010E94D30B882361F0C8010E94FB09EF
:102D300080917F0190918001019690938001809312
:102D40007F01055F1F4F85E0043F1807C9F609E9B9
:102D500015E0FF24F394C8010E94D90AC8010E941B
:102D6000F10A40910806509109066091060670919B
:102D7000070628E030E0C8010E94640C882329F08F
:102D800080911306882309F460C2045F1F4F95E009
:102D90000D3B190701F7DECCCA01B901A30192016D
:102DA0000E94DC1B605DF80162938F0121153105E3
:102DB0004105510589F7CF010E94840CCBCC8DE2EF
:102DC00090E090933906809338068EE190E09093DE
:102DD0003B0680933A0689E691E00E94840C84E0E9
:102DE0000E94C80B882379F1809164008E7F8093C4
:102DF000640080917A00806480937A0080917A00E8
:102E000086FDFCCF00917800109179000E94100798
:102E100020E030E0980111270027600F711F821F0A
:102E2000931F611571058105910511F00E948B1B9F
:102E30008091640081608093640081E090E09093D1
:102E40008401809383010DEB15E0C8010E943A0ACA
:102E5000C8010E94EC09055F1F4FF5E0043F1F0702
:102E6000A1F709E915E0C8010E94D90AC8010E942A
:102E7000F10A045F1F4F25E00D3B1207A1F76ACC52
:102E8000809100018823D9F0209106063091070631
:102E90003093F5052093F40580910806909109067A
:102EA0009093F7058093F6053093F9052093F80584
:102EB00008969093FB058093FA05109200012091EB
:102EC0007B016091F6057091F7058091F405909172
:102ED000F505222311F10091790110917A01F80191
:102EE000E25EFE4FF0802F2D49E651E00E949E09E0
:102EF00024E02F0D6091FA057091FB0549E651E041
:102F00008091F8059091F9050E949E090F5F1F4F6F
:102F100010937A010093790115C02091000649E6CB
:102F200051E00E949E09209100062E5F6091FA05F3
:102F30007091FB0549E651E08091F8059091F90503
:102F40000E949E098091790190917A01089734F04E
:102F500010927B0110927A011092790100917B010D
:102F6000011114C080918F019091900182309105E0
:102F700029F4109201061092000608C0039731F45C
:102F800081E090E090930106809300061091850106
:102F9000812F69E00E940D1C911110C08091F605EF
:102FA0009091F7059C012F5F3F4F3093F7052093D9
:102FB000F60509969093FB058093FA0584E00E943C
:102FC000C80B8823D9F0011119C081E080937B01DF
:102FD0008091000690910106009709F03DC18EEFA7
:102FE0009FEF9093FF058093FE058091FC059091E3
:102FF000FD0503979093FD058093FC0580917B016F
:103000002091FC053091FD058823A9F08091F805F9
:103010009091F905820F931F9093F9058093F8051D
:103020008091F4059091F505820F931F9093F5051B
:103030008093F40502C0137049F38091FE059091CE
:10304000FF054091F6055091F705480F591F509321
:10305000F7054093F6056091FA057091FB05680F3E
:10306000791F7093FB056093FA05223031051CF03F
:10307000C901019706C02F3F6FEF36073CF4C90125
:1030800001969093FD058093FC0507C097FF05C04E
:1030900001969093FF058093FE058091F405909131
:1030A000F505893791055CF088E790E09093F50588
:1030B0008093F4059093F9058093F8051AC097FF63
:1030C00009C01092F5051092F4051092F9051092BE
:1030D000F8050FC04A3251057CF089E290E09093E8
:1030E000F7058093F60581E390E09093FB058093CC
:1030F000FA050DEB15E00CC044305105D4F784E01F
:1031000090E09093F7058093F6058CE090E0EDCF8A
:10311000C8010E943A0AC8010E94EC094091FA05D0
:103120005091FB056091F8057091F90522E030E0BF
:10313000C8010E94D30B882361F0C8010E94FB09DB
:1031400080917F01909180010196909380018093FE
:103150007F01055F1F4F75E0043F1707C9F609E9B6
:1031600015E0C8010E94D90AC8010E94F10AE09046
:10317000F605F090F70584E0E80EF11CC090F40528
:10318000D090F50524E030E0A701B601C8010E9407
:10319000640C882339F091E09093000190928401AF
:1031A000809283014091FA055091FB056091F805EA
:1031B0007091F90528E030E0C8010E94640C882372
:1031C00051F024E030E0A701B601C8010E94640C70
:1031D000882309F44FC0045F1F4FE5E00D3B1E0735
:1031E00009F0BFCFB7CA1092900110928F019ACA0E
:1031F000011190CAB0929001A0928F0193CA01115F
:1032000091CA3092900120928F018CCA81E0809304
:103210007E0120910E0630910F062130310509F014
:10322000E8CC8CEF9FEF06C02330310509F0EDCCE0
:1032300084E090E090930B0680930A06E6CC22305F
:10324000310591F784E090E0DCCCF092000190929F
:1032500084018092830199CD019709F0CFCE8EEF42
:103260009FEF9093FF058093FE05B092FD05A0921D
:10327000FC05C4CEC8010E948F0A80917F01909105
:10328000800103969093800180937F01A4CF0F93D8
:103290001F93CF93DF938C0181E090E00E94EA09B5
:1032A00080FF32C08AE090E00E94EA099FEF980F09
:1032B0009E3F50F522E330E0D80150963C932E9388
:1032C0001F9728E330E052963C932E935197CBE022
:1032D000D0E0D801ED91FC910190F081E02D682FB4
:1032E000C8010995CE010E94EA092196C131D10594
:1032F00081F780E00E94960C88EE93E0DF91CF91F9
:103300001F910F910C94DD09DF91CF911F910F91C7
:10331000089504970C944719CF93DF9310924F06AA
:1033200010924E0688EE93E0A0E0B0E08093500645
:1033300090935106A0935206B093530687E391E011
:1033400090934D0680934C068FEF9FEF9093590614
:10335000809358060E94281BC3E0D0E0BE010E9463
:10336000191C8C5F809391050E94281BBE010E944E
:10337000191C8C5F809392050E94281BBE010E943D
:10338000191C8C5F809393050E94281BBE010E942C
:10339000191C8C5F809394050E94281BBE010E941B
:1033A000191C8C5F809395050E94281BBE010E940A
:1033B000191C8C5F809396050E94281BBE010E94F9
:1033C000191C8C5F809397050E94281BBE010E94E8
:1033D000191C8C5F8093980581E080931F062EE373
:1033E00030E0309322062093210620E130E0309334
:1033F000240620932306809320061092260610921E
:103400002506109228061092270610921606109292
:1034100015061092180610921706109214061092B4
:103420001E0610921D062AE030E030931A06209303
:1034300019064CEF5FEF50931C0640931B06109249
:103440000F0610920E06109211061092100610929E
:1034500012068093130630930706209306062EE18A
:1034600030E030930906209308061092010610926E
:103470000006109203061092020610920406809332
:10348000050688E290E09093F5058093F40530936B
:10349000F7052093F6059093F9058093F80586E2E9
:1034A00090E09093FB058093FA05CDEBD5E0CE013B
:1034B0000E94520A2B9685E0C43FD807C1F7C9E99C
:1034C000D5E0CE010E94520A0E94281BCE010E9424
:1034D0008F0A2C9685E0CD3BD80799F710922C06E1
:1034E00010922B06109232061092330680E18093E0
:1034F000340610923106109230061092360689E496
:1035000091E090932A068093290687E591E09093B5
:103510002E0680932D0610923906109238061092CE
:103520003B0610923A0681E080933C0610923D06DD
:1035300080933E0610923F06DF91CF910895CF927F
:10354000DF92EF92FF920F931F93CF93DF931F921F
:10355000CDB7DEB7182F062FE42E862F880F8E5F8B
:1035600099830E941B0D83E00E941B0DF12EC12E3A
:103570009981D92E8C2D8F19801798F4F601E7FECA
:1035800002C0849101C080810E941B0D182F80E031
:103590000E941B0D8123FFEFCF1ADF0A8111EACFB2
:1035A00001C081E00F90DF91CF911F910F91FF90AB
:1035B000EF90DF90CF9008958F929F92AF92BF923D
:1035C000CF92DF92EF92FF92CF93DF93EC0168816D
:1035D00079818A819B81611571058105910521F4AD
:1035E00064E279ED8BE597E02DE133EF41E050E0C7
:1035F0000E94AA1B49015A019B01AC01A7EAB1E450
:103600000E94C91B6B017C01ACEEB4EFA5019401D3
:103610000E94D71BDC01CB018C0D9D1DAE1DBF1D73
:10362000B7FF03C00197A109B04888839983AA8393
:10363000BB839F77DF91CF91FF90EF90DF90CF908A
:10364000BF90AF909F908F9008950E94DC1A0895CC
:1036500086E191E00E94DC1A0895A0E0B0E080933A
:10366000160190931701A0931801B09319010895C2
:103670008F929F92AF92BF92CF92DF92EF92FF9282
:10368000CF93DF93EC01688179818A819B816115F9
:1036900071058105910521F464E279ED8BE597E0F0
:1036A0002DE133EF41E050E00E94AA1B49015A018D
:1036B0009B01AC01A7EAB1E40E94C91B6B017C012C
:1036C000ACEEB4EFA50194010E94D71BDC01CB0145
:1036D0008C0D9D1DAE1DBF1DB7FF03C00197A10935
:1036E000B04888839983AA83BB83BC01CD019F77AF
:1036F000DF91CF91FF90EF90DF90CF90BF90AF9090
:103700009F908F9008950E94381B08958AE191E060
:103710000E94381B089560931A0170931B018093D7
:103720001C0190931D010895F999FECF92BD81BDB2
:10373000F89A992780B50895262FF999FECF1FBAD8
:1037400092BD81BD20BD0FB6F894FA9AF99A0FBECA
:1037500001960895052E97FB1EF400940E94C11B4C
:1037600057FD07D00E94DC1B07FC03D04EF40C94DD
:10377000C11B50954095309521953F4F4F4F5F4F5E
:10378000089590958095709561957F4F8F4F9F4FCD
:1037900008950E94FE1BA59F900DB49F900DA49FBD
:1037A000800D911D11240895B7FF0C94C91B0E9430
:1037B000C91B821B930B0895A1E21A2EAA1BBB1BE7
:1037C000FD010DC0AA1FBB1FEE1FFF1FA217B307ED
:1037D000E407F50720F0A21BB30BE40BF50B661F03
:1037E000771F881F991F1A9469F7609570958095C7
:1037F00090959B01AC01BD01CF010895A29FB0013E
:10380000B39FC001A39F700D811D1124911DB29F14
:10381000700D811D1124911D0895991B79E004C03C
:10382000991F961708F0961B881F7A95C9F78095FF
:10383000089597FB072E16F4009407D077FD09D062
:103840000E942D1C07FC05D03EF4909581959F4F5A
:103850000895709561957F4F0895AA1BBB1B51E198
:1038600007C0AA1FBB1FA617B70710F0A61BB70BF0
:10387000881F991F5A95A9F780959095BC01CD0195
:103880000895EE0FFF1F0590F491E02D099481E05B
:0C38900090E0F8940C944C1CF894FFCFCE
:10389C000101020103030201020300E10000000028
:1038AC000000FFFFFFFF0100000001000000040505
:1038BC00060707060504000400080C0C0C080001A0
:1038CC0000000200000000110B360B320B270B011D
:1038DC000DCF0C7D0D000000001E06DB050B070A4A
:1038EC00074719FCFF0000891900C1808100000006
:1038FC0047414D454F564552004220544F2053747A
:04390C006172740070
:00000001FF
