:100000000C947C070C94A4070C94A4070C94A407EC
:100010000C94A4070C94A4070C94A4070C94A407B4
:100020000C94A4070C94A4070C944C0F0C94BE0FD2
:100030000C94A4070C94A4070C94A4070C94A40794
:100040000C94A4070C94A4070C94A4070C94A40784
:100050000C94A4070C94A4070C94A4070C94BF0957
:100060000C94A4070C94A4070C94A4070C94A40764
:100070000C94A4070C94A4070C94A4070C94A40754
:100080000C94A4070C94A4070C94A4070C94A40744
:100090000C94A4070C94A4070C94A4070C94A40734
:1000A0000C94A4070C94A4070C94A407F0F89C8E5D
:1000B0008783878E9CF8F00000FEFF030303030391
:1000C000070EFCF80000FEFF0303030303070EFC0A
:1000D000F80000FFFF00000000000000FFFF00002C
:1000E000FEFF8383838383C7EE7C380000F8FC0E19
:1000F00007030303070EFCF800003F7FE0C0808089
:10010000C0E07F3FFFFF01010101010101FFFF008E
:1001100000FFFF0C0C0C0C1C3E77E3C100007FFFBE
:10012000C0C0C0C0C0E0703F1F00001F3F70E0C0F3
:10013000C0C0E0703F1F00007FFFC1C1C1C1C1E36B
:10014000773E1C00001F3F70E0C0C0C0E0703F1F42
:10015000000000000001FFFF01000000D5F08D1439
:10016000A1C881CFD9F1AF20000808E0B0D0F0F0ED
:10017000F0F0E0E0F0F0F0F0D0B0E01F608F7087BA
:1001800038435C5C433887708F601FE0B0D0F0F07C
:10019000F0F0E0C0B0D8F8F8F8F0C000F0CCFCFC0B
:1001A000FCF0000030CCFEFEFC30001F603FC0C001
:1001B0003F601F033C47F8F8473C0300077FF8F80F
:1001C0007F070000000FFEFE0F0000080820380C1B
:1001D0003C0C3C1820183C061E061E2C181C3E2EFB
:1001E0001E0E3E3E1C2E1F1F2F0F3F1F2E6E1F1D6B
:1001F0007F1F7F1F6EEE1B1DEF1FEF1FEE00000025
:1002000000000000000000000000000000808000EE
:1002100000000000000000000000000000000000DE
:100220000080C0C08000000080C0C080000000804E
:10023000C0C08000000000808080808080808000BE
:1002400000000000000000000000000000000000AE
:1002500000000000000080C0C0800000000000001E
:100260000000000000000000000080FEFFFFFF070C
:100270000000C0E0E0E070F070F0F0E0C0000000CE
:10028000F0FFFFFF3F0000F0FFFFFF1F0000E0F363
:10029000FFFF130000F0FFFFFFFF83B39F83C7FF43
:1002A000FF7E0000000080C0E0E0707070F0F0E0C1
:1002B000C000000000E0F3FFFF130000000000009A
:1002C0000060F0F0F0E0808080E0FFFFFF3F010081
:1002D00018FFFFFFFFCE8EAE9ECFEFCF1F6680FCD4
:1002E000FFFFFF070080FCFFFFFF0F00C0FEFFFFC6
:1002F0007F070080FEFFFFFF9F8383B38BC7FFFE56
:10030000FE7C0000003EFFFFFF81908EC1F0FFFFEA
:100310007F1F00C0FEFFFFFF030000000000000081
:1003200018080F0103BFC733030F0979013E00000E
:10033000C2424739031FD373031F117100005F07C7
:10034000037B07007807033FE3030000037F0303F9
:100350000000CC77030383DF733F23031F13F10FE8
:1003600008180020180F0101FB0703330F01013E9D
:100370000000FC0773131F000000000000080820A5
:10038000380C3C0C3C182000003C7E56D500000484
:10039000183C303C301C040000AB6A7E3C00001866
:1003A0001C0C1C0C1C0C1800007EFFD50000001853
:1003B00030383038303818000000ABFF7E000000C5
:1003C000380C7C7C0C380000003C7E5A5A18000027
:1003D0001C303E3E301C0000185A5A7E3C00000083
:1003E000182C7C7C2C180000003C7E5A3C18000025
:1003F00018343E3E34180000183C5A7E3C00001071
:10040000100000000304FBFCFCFFFCFB04030000E5
:10041000000000000000008FFFFF8F0000000000C0
:10042000000000000304FBACFCFFACFB0403000075
:10043000000000000000008FFAFA8F0000000000AA
:10044000000000000304FBAC54AF54FB04030000A5
:10045000000000000000008FF6F98F00000000008F
:10046000000000000306FDAE55AE55FE050300007A
:10047000000000000000008FF6F98F00000000006F
:1004800000000000073EF5AE75AE75EE3D070000BA
:10049000000000000000018FFDFB8F010000000044
:1004A000000000031DEE75AE75AE75AEF51E0300BF
:1004B00000000000000007BBFDFBBD0700000000BE
:1004C0000000000CD45894589458945894D80C00B8
:1004D0000000000000073BDDEBDDEB3D0700000006
:1004E00000000000C4589458945894589CC40000CC
:1004F0000000000000073BDDEBDDEB3D07000000E6
:1005000000000000C04E9C589E589E588EC00000AF
:100510000000000000073BDDEBDDEB3D07000000C5
:1005200000000000C0428E589E589E4C82C00000C1
:100530000000000000073BDDEBDDEB3D07000000A5
:100540000000000080840C981C981C8C0480000023
:1005500000000000010E77BAD7BAD77A0F01000069
:100560000000000000040E1E1E1E1E0E04000000EF
:1005700000000000031DEE75AE75AEF51E03000011
:1005800000000000000C0C1E1E1E1E0C0C000000C3
:1005900000000000063ADCEA5CEA5CEA3C06000087
:1005A0000000000000081C0E1E1E0E1C08000000AB
:1005B00000000000063ADCEA5CEA5CEA3C06000067
:1005C0000000000000101C061E061E0C100000009B
:1005D000000000000C74B8D4B8D4B8D4780C000073
:1005E000000808E0180691ADA252484852A2AD9109
:1005F0000618E0101000000000C0F0F8FCFEFEFE3F
:10060000FEFCF8F0000000001E3FFFFFFFFFFF9F11
:100610000F0701000000F0F8FCFEFEFEFEFCF8F003
:10062000C000000000000001070F9FFFFFFFFFFF59
:100630003F1E00000010100000000000C0F068C461
:10064000C444C4E8F00000000000001E37B4FEE718
:10065000930807010000000000F0E8C444C4C46827
:10066000F0C0000000000000000001070893E7FE52
:10067000B4371E00000000080880F07C566B351D62
:100680000E0E1D356B567CF080101000000000E04F
:10069000B0D0F0F0F0F0E000000000000000005CDE
:1006A000433887708F601F0000000000000000E0EA
:1006B000B0D0F0F0F0F0E000000000000000001EFC
:1006C00021421F025F611E0000000000000000E0E8
:1006D000B0D0F0F0F0F0E000000000000000001EDC
:1006E00027231F231F231E0000000000000000E03E
:1006F000B0D0F0F0F0F0E000000000000000000ECC
:10070000170B0F131F130E0000000000000000E085
:10071000B0D0F0F0F0F0E0000000000000000006B3
:100720000F0B0F0B0F0B060000000000000000E095
:10073000B0D0F0F0F0F0E000000000000000000396
:10074000070507050705030000000000000000C0C2
:10075000E0A0E0E0E0E0C0000000000000000001D8
:100760000302030203020100000000000000000079
:10077000C0E0A0E0E0C000000000000000000000B9
:10078000010302030201000000000000000000005D
:10079000C0E0A0E0E0C00000000000000000000099
:1007A000010302030201000000000000000000003D
:1007B000C0E0A0F0F0D0E000000000000000000366
:1007C0000707020302010000000000000000000013
:1007D000C0E0A0F0F0D0E000000000000000000841
:1007E00007070607020100000000000000000000EB
:1007F00000C0A0F0F0D0E000000000000000000801
:1008000007070607020100000000000000000000CA
:1008100000C060B050D0E000000000000000000800
:100820000F07050603010000000000101000000083
:1008300000000000000000000000000000000000B8
:1008400000000000000000000000000000800040E8
:1008500080800000000000408080000080204182F5
:100860004950A18242228A0A71808122118040402F
:1008700080000000408080000000008080400890E0
:100880000021A2821110088192229188108000001C
:100890000080402040800080404040808010214205
:1008A0004241201008112241482412224400000035
:1008B0000000000000000000000000000009629A33
:1008C00006619A0601629A0601629A0661000000BA
:1008D00000000000000000000000000000314E8217
:1008E000324901314E8232490101314E810000000E
:1008F0000000000000000000000000000005017181
:100900008A052101728A05210902728A0508083CBC
:10091000187D673F366C483C181D3F363C664238B0
:10092000103A7C68302020486C363F677D183C4286
:10093000663C363F1D183C202030687C3A10380851
:10094000087C487868302020207C245E766C2C0857
:10095000004438103038786A4E331E0C0C1E566333
:100960006B202020306878487C00082C6C765E2450
:100970007C4E6A7838301038446B63561E0C0C1E5F
:100980003300000000003E5B4F5B3E3E6B4F6B3E12
:100990001C3E7C3E1C183C7E3C181C577D571C1C82
:1009A0005E7F5E1C00183C1800FFE7C3E7FF0018DD
:1009B000241800FFE7DBE7FF30483A060E262979C6
:1009C0002926407F050507407F05253F5A3CE73C27
:1009D0005A7F3E1C1C08081C1C3E7F14227F2214D8
:1009E0005F5F005F5F06097F017F006689956A602F
:1009F0006060606094A2FFA29408047E0408102046
:100A00007E201008082A1C08081C2A08081E10103E
:100A100010100C1E0C1E0C30383E3830060E3E0EE8
:100A200006000000000000005F0000000700070053
:100A3000147F147F14242A7F2A1223130864623639
:100A4000495620500008070300001C2241000041C5
:100A5000221C002A1C7F1C2A08083E0808008070FF
:100A60003000080808080800006060002010080432
:100A7000023E5149453E00427F4000724949494685
:100A80002141494D331814127F1027454545393C03
:100A90004A494931412111090736494949364649F0
:100AA00049291E0000140000004034000000081412
:100AB000224114141414140041221408020159098B
:100AC000063E415D594E7C1211127C7F49494936E0
:100AD0003E414141227F4141413E7F494949417F59
:100AE000090909013E414151737F0808087F00410F
:100AF0007F41002040413F017F081422417F404058
:100B000040407F021C027F7F0408107F3E4141412C
:100B10003E7F090909063E4151215E7F0919294698
:100B2000264949493203017F01033F4040403F1FAE
:100B30002040201F3F4038403F63140814630304E3
:100B40007804036159494D43007F41414102040843
:100B50001020004141417F04020102044040404016
:100B600040000307080020545478407F284444384C
:100B70003844444428384444287F38545454180096
:100B8000087E090218A4A49C787F08040478004415
:100B90007D40002040403D007F1028440000417F00
:100BA00040007C047804787C080404783844444489
:100BB00038FC1824241818242418FC7C0804040881
:100BC000485454542404043F44243C4040207C1C9A
:100BD0002040201C3C4030403C44281028444C908D
:100BE00090907C4464544C440008364100000077E7
:100BF0000000004136080002010204023C262326C0
:100C00003C1EA1A161123A4040207A3854545559F3
:100C1000215555794121545478412155547840202B
:100C2000545579400C1E5272123955555559395444
:100C300054545939555454580000457C41000245DC
:100C40007D420001457C40F0292429F0F028252828
:100C5000F07C545545002054547C547C0A097F494B
:100C600032494949323248484832324A4848303A93
:100C70004141217A3A42402078009DA0A07D39442C
:100C80004444393D4040403D3C24FF2424487E49B3
:100C900043662B2FFC2F2BFF0929F620C0887E09E5
:100CA0000320545479410000447D413048484A3281
:100CB000384040227A007A0A0A727D0D19317D2669
:100CC00029292F28262929292630484D402038084F
:100CD00008080808080808382F10C8ACBA2F1028D0
:100CE00034FA00007B000008142A142222142A146B
:100CF000089500220095AA005500AAAA55AA55AA4F
:100D0000000000FF00101010FF00141414FF00106A
:100D100010FF00FF1010F010F0141414FC00141455
:100D2000F700FF0000FF00FF1414F404FC14141774
:100D3000101F10101F101F1414141F00101010F09B
:100D4000000000001F101010101F10101010F010E5
:100D5000000000FF101010101010101010FF1000F5
:100D60000000FF140000FF00FF00001F101700002C
:100D7000FC04F414141710171414F404F40000FF06
:100D800000F714141414141414F700F7141414179F
:100D90001410101F101F141414F4141010F010F07D
:100DA00000001F101F0000001F14000000FC1400B2
:100DB00000F010F01010FF10FF141414FF141010A6
:100DC000101F00000000F010FFFFFFFFFFF0F0F029
:100DD000F0F0FFFFFF0000000000FFFF0F0F0F0FFC
:100DE0000F38444438447C2A2A3E147E0202060608
:100DF000027E027E0263554941633844443C04400C
:100E00007E201E2006027E020299A5E7A5991C2AD3
:100E1000492A1C4C7201724C304A4D4D3030487892
:100E20004830BC625A463D3E494949007E010101B5
:100E30007E2A2A2A2A2A44445F444440514A444094
:100E400040444A51400000FF0103E080FF000008D9
:100E5000086B6B083612362436060F090F060000A1
:100E600018180000001010003040FF0101001F01A1
:100E7000011E00191D1712003C3C3C3C0000000004
:100E8000000102040810204080080B000202020149
:100E90000009040000010202000005240010010501
:100EA000240101010424020605240600010705812E
:100EB0000310004009040100020A000000070502B7
:100EC00002400000070583024000000403090412E9
:100ED000010002EF020140412336800001010203BC
:100EE0000141726475696E6F204C4C43004172641D
:100EF00075626F790000CB1F11241FBECFEFDAE0BF
:100F0000DEBFCDBF11E0A0E0B1E0EEEFF4E402C03F
:100F100005900D92A639B107D9F726E0A6E9B1E010
:100F200001C01D92A83EB207E1F717E0CCE7D7E079
:100F300004C02197FE010E947222CB37D107C9F766
:100F40000E94AE140C947D220C940000CF92DF928C
:100F5000EF92FF920F931F93CF93DF936C017A016F
:100F60008B01C0E0D0E0CE15DF0589F0D8016D918E
:100F70008D01D601ED91FC910190F081E02DC6012B
:100F80000995892B11F47E0102C02196ECCFC7018F
:100F9000DF91CF911F910F91FF90EF90DF90CF9055
:100FA0000895E1E8FEE090E1969FD001A078112439
:100FB000A80F6770E60FF11D9491A654BE4F44230D
:100FC00019F08C91982B03C090958C9198239C9349
:100FD00008952F923F924F925F926F927F928F92DD
:100FE0009F92AF92BF92CF92DF92EF92FF920F93B8
:100FF0001F93CF93DF93CDB7DEB727970FB6F89443
:10100000DEBF0FBECDBFFC016A3069F4258981893E
:10101000928938E0239F800D911D1124928B818B42
:10102000108A1786A6C06D3009F4A3C09F838E83F3
:1010300035882489298333893A8361887288E784D3
:10104000F08880E8E816F104C4F0AE81BF815596BF
:101050002C915597422F50E01F968D919C9150975F
:10106000B6E02B9F800D911D1124EE81FF81908BA6
:1010700087872689211167C07CC0F0E46F16710450
:1010800024F7C70125E0329E800D911D112418160A
:101090001906DCF6432C512CC30138E0339E800D39
:1010A000911D11241816190684F685E0689F8001A9
:1010B00011240F57164F20E0F8012490253009F431
:1010C000212C430158E020FC02C0398101C03A8143
:1010D00031110BC0F9818A81F81307C02694515051
:1010E000840C951C5111EFCF25C067018C2D8E19F2
:1010F0008315A0F754018A2D88198315B8F490E858
:10110000C916D10478F4A0E4AA16B10458F4432F08
:10111000B501C6012C833B835D830E94D1075D81AD
:101120003B812C81BFEFAB1ABB0AE5CFEFEFCE1AA4
:10113000DE0ADCCF2F5FE40CF51C0F5F1F4F26305B
:1011400009F0BACF82CF6AEF64039001659F300D3A
:10115000112420583F4F281739075CF4AE81BF8116
:10116000ED91FC9111970190F081E02D6AE0CD01A5
:10117000099581E090E027960FB6F894DEBF0FBE88
:10118000CDBFDF91CF911F910F91FF90EF90DF9036
:10119000CF90BF90AF909F908F907F906F905F9017
:1011A0004F903F902F9008950895089580E090E02B
:1011B00008950E947822EF92FF920F931F93CF938E
:1011C000DF93CDB7DEB72C970FB6F894DEBF0FBE16
:1011D000CDBFFC0178876F835A8749872B870C879F
:1011E0004185528524813581828193812F5F3F4FD4
:1011F000452B09F408979A8389833C832B8380E1EC
:101200008D8386E08E83E980FA800B811C812D819D
:101210003E814F81588569857A858B859C850E94A2
:1012200006122C960FB6F894DEBF0FBECDBFDF912D
:10123000CF911F910F91FF90EF900895EF92FF9241
:101240000F931F93CF93DF93CDB7DEB72C970FB6D5
:10125000F894DEBF0FBECDBF78876F835A8749876A
:101260002B870C87FE01319626E0DF011D922A951F
:10127000E9F7FC01228133812F5F3F4FE22E3A8351
:101280002983848195810196082F9C838B83FA8022
:101290001C8126E036E04F81588569857A858B85EB
:1012A0009C850E9406122C960FB6F894DEBF0FBEE6
:1012B000CDBFDF91CF911F910F91FF90EF900895D7
:1012C0003FB7F8948091AA019091AB01A091AC0135
:1012D000B091AD0126B5A89B05C02F3F19F001962E
:1012E000A11DB11D3FBFBA2FA92F982F8827820FAC
:1012F000911DA11DB11DBC01CD0142E0660F771FFC
:10130000881F991F4A95D1F708958F929F92AF92A7
:10131000BF92CF92DF92EF92FF926B017C010E940D
:1013200060094B015C01C114D104E104F104F1F046
:101330000E946009DC01CB0188199909AA09BB093F
:10134000883E9340A105B10570F321E0C21AD1088F
:10135000E108F10888EE880E83E0981EA11CB11CFC
:10136000C114D104E104F10419F7DDCFFF90EF902F
:10137000DF90CF90BF90AF909F908F9008951F9275
:101380000F920FB60F9211242F933F938F939F9339
:10139000AF93BF938091970190919801A09199018B
:1013A000B0919A013091A90123E0230F2D3720F449
:1013B0000196A11DB11D05C026E8230F0296A11DAF
:1013C000B11D2093A9018093970190939801A09358
:1013D0009901B0939A018091AA019091AB01A091DB
:1013E000AC01B091AD010196A11DB11D8093AA0180
:1013F0009093AB01A093AC01B093AD01BF91AF91BD
:101400009F918F913F912F910F900FBE0F901F9042
:1014100018954F925F927F928F929F92AF92BF9258
:10142000CF92DF92EF92FF920F931F93CF93DF93B0
:1014300000D000D0CDB7DEB729011C2DA02EB12CD5
:101440009C012A0D3B1D121613060CF0B3C1803807
:1014500091050CF0AFC1FB01EE0DF11D1E161F062C
:101460000CF0A8C1603471050CF0A4C14115510500
:1014700009F4A0C1E62FE770FE2EFB0177FD379639
:10148000A3E0F595E795AA95E1F7AE2F77FF04C0A5
:10149000FF2011F0AFEFAE0F97FF05C0EE27FF273B
:1014A000E81BF90B02C0E0E0F0E02038310524F041
:1014B00020E8722E781A01C0702E7E1A6A2F0A2E2A
:1014C000000C770BAF3F1CF4D62ED09401C0D12C6A
:1014D00021E03E2D377009F420E0E694E694E6948E
:1014E000E20E6E0D711D693071051CF028E0E22ED0
:1014F000EA1AED183D2D3A0FDC0120E83203A00D69
:10150000B11D1124AE0FBF1FD09EE00DF11D11249F
:101510004E0F5F1F81E090E04C010F2C02C0880C41
:10152000991C0A94E2F7133009F403C1A0F41130B6
:1015300009F4B5C0123009F03DC18FEF889DB001AC
:10154000899D700D1124609570957C836B835C8000
:101550002E2D230F2BC01A3F31F01B3F09F02AC15B
:101560002E2D230F88C02E2D230F51C0FA01E00F1E
:10157000F11FE491E89D6001E99DD00C1124DA820D
:10158000C98237FD07C0FC01E080EE2DE623CE2A9C
:10159000FC01C082F11013C00F5F1F4F01960715A9
:1015A00028F33F5F4A0D5B1DA058BF4F321709F467
:1015B00001C1CD0186549E4F00E010E0F0CF3730DE
:1015C0005CF7FC01E058FF4FD080D520CA80DC28B2
:1015D000D082E2CFFA01E60FF71FE491E89D800187
:1015E000E99D100D11241A83098337FD04C0FC0105
:1015F0001081012B0083F11013C06F5F7F4F0196A4
:10160000671540F33F5F4A0D5B1DA058BF4F32176F
:1016100009F4D0C0CD0186549E4F60E070E0F0CF59
:1016200037305CF78C0100581F4FF801E080EA81E9
:10163000EE2AF801E082E1CFFA01E00FF11FE49118
:10164000E89DC001E99D900D11249A83898337FD9F
:1016500005C08095FB01908189238083F11014C01F
:101660000F5F1F4F6F5F7F4F071530F33F5F4A0DCE
:101670005B1DA058BF4F321709F49CC0BD016654D2
:101680007E4F00E010E0F0CF373054F7FB01E05818
:10169000FF4F8A818095908189238083E1CFC201A9
:1016A0008E0F9F1F2E2D230F321709F483C0BD010B
:1016B00066547E4F6B0100E010E0071590F5FC01C9
:1016C000E00FF11FE491E89DB001E99D700D112438
:1016D000609570957C836B83FA01E00FF11FE491B4
:1016E000E89D2001E99D500C11245A82498237FD62
:1016F00005C0F60170816723462A4082FF2059F019
:1017000037304CF4F601E058FF4F70816C8167234D
:101710007A81672B60830F5F1F4FFFEFCF1ADF0ABD
:10172000CCCF3F5F4A0D5B1D8A0D9B1DA058BF4F5C
:10173000BBCFC72CD12CE40FF51FA654BE4F60E8D9
:1017400070E06C197D09AC18BD088501000F111FF0
:10175000572D2E2DCF93DF93ED01EF96EF96229626
:10176000A590C590FF2059F0A89C5001C89C60012D
:1017700037302CF4E880D094ED20EB28E992332325
:101780003AF0EC90C094EC20EA28ED920C94C90B4E
:1017900011965A9529F72A9551F0572D3395112412
:1017A000E00FF11DA60FB11DC60FD11DD9CFDF91DE
:1017B000CF9111240F900F900F900F90DF91CF9148
:1017C0001F910F91FF90EF90DF90CF90BF90AF905F
:1017D0009F908F907F905F904F900895CF92DF926F
:1017E000EF920F93CF93DF934115510569F1FA0101
:1017F00004913196E4904E5F5F4F2223F9F0C02FA1
:10180000D0E0AE2DA695A695A695EA2FF0E0A1E032
:10181000B0E03E2D377011F4A0E0B0E0AE0FBF1F76
:10182000CA9F6001CB9FD00CDA9FD00C11242C9D55
:10183000F0012D9DF00D11244E0F5F1F2AEFC22ED7
:1018400020E030E00E94090ADF91CF910F91EF90E4
:10185000DF90CF900895CF93DF93EC012985220F7D
:10186000220F8D85280F6C817D814FE359E08A819D
:101870009B810E94EE0B49855A852D856C817D8167
:101880008A819B812E5F4115510521F44FE359E078
:10189000089706C0440F440F240F4FE359E0089601
:1018A000DF91CF910C94EE0BFC012185822F880FE4
:1018B000280F8585280F648175814DE059E082816C
:1018C00093810C94EE0B2D9A0895BC0180E090E07A
:1018D0000C9485098FB18095807F669B88601C9BE6
:1018E000846008953E9A3F9A81E08093960108951E
:1018F0000C94C521FC0162817381808191818038C3
:10190000910530F46034710518F441E00C94D1076E
:1019100008950F931F93CF93DF93EC010E945921F9
:1019200002E010E0B8010E944A2298878F830E944B
:10193000592168E270E00E944A2241969B838A8383
:101940008F819885009779F48FEF9FEF9983888333
:1019500083E090E09A8789870E945921B8010E940C
:101960004A2201960EC0019771F481E890E09983B4
:1019700088831A8709870E945921B8010E944A2248
:1019800002979D838C83DF91CF911F910F910895D2
:10199000FC014481558120813181240F351F318321
:1019A00020831416150624F42338310534F40895E1
:1019B000452B29F02E3F3F4F14F40C94890C0895C9
:1019C0000F931F93CF93DF93EC018EE190E0998307
:1019D00088830E94592160E370E00E944A220A969F
:1019E0009B838A830E94592102E010E0B8010E9483
:1019F0004A2298878F83009779F48FEF9FEF99831E
:101A0000888383E090E09A8789870E945921B801F2
:101A10000E944A2201960EC0019771F480E890E07E
:101A2000998388831A8709870E945921B8010E94E7
:101A30004A2202979D838C83DF91CF911F910F9152
:101A4000089584E680939B0180E48093900087EE64
:101A500093E0909399008093980008950F931F93BB
:101A6000CF93DF93EC010E94592102E010E0B8010E
:101A70000E944A228D870E945921B8010E944A2261
:101A80009A8789870E94592164E270E00E944A2265
:101A90000D969D838C8389859A85009779F48FEFC5
:101AA0009FEF9B838A8383E090E09C878B870E94D3
:101AB0005921B8010E944A2201960EC0019771F483
:101AC00081E890E09B838A831C870B870E945921C1
:101AD000B8010E944A2202979F838E83DF91CF91A3
:101AE0001F910F910895FC01468157812281338116
:101AF000240F351F338322831416150624F4293C42
:101B0000310534F40895452B29F02C393F4F14F456
:101B10000C942E0D0895EF92FF920F931F93CF9385
:101B2000DF93EC010E94592123E0E22EF12CB70152
:101B30000E944A228D870E94592102E010E0B801DC
:101B40000E944A229A8789870E94592164E270E0A4
:101B50000E944A220D969D838C8389859A850097E1
:101B600069F48FEF9FEF9B838A83FC86EB860E944C
:101B70005921B8010E944A2201960EC0019771F4C2
:101B800081E890E09B838A831C870B870E94592100
:101B9000B8010E944A2202979F838E83DF91CF91E2
:101BA0001F910F91FF90EF900895FC01468157819E
:101BB00022813381240F351F3383228314161506A7
:101BC00024F4213B310534F40895452B29F02E3CB3
:101BD0003F4F14F40C948B0D0895CF93DF931F9215
:101BE000CDB7DEB76983DC01ED91FC910280F38112
:101BF000E02D41E050E0BE016F5F7F4F09950F90EF
:101C0000DF91CF91089583E08093E9008091F20005
:101C1000882319F08AE38093E8000895FC01848505
:101C2000958597FD0BC09FB7F89482E08093E900FB
:101C30008091F2009FBF90E0019608959FB7F894BD
:101C400082E08093E9008091F2009FBF90E00895C8
:101C50008F929F92AF92BF92CF92DF92EF92FF92BC
:101C60000F931F93CF93DF935C016B017A018091F7
:101C70001601882309F45BC08091B701882309F419
:101C800056C08091B40180FF05C08091E000826061
:101C90008093E000E70110E00AEF83E0882E9AE3EA
:101CA000992E2097D9F10E944E1481110AC001503B
:101CB00009F43DC061E070E080E090E00E94850999
:101CC000F0CF282F30E0C217D3070CF48C2F4FB77A
:101CD000F8948092E9009091E80095FF1DC0282FAC
:101CE00030E0C21BD30BF601982F915020F0819168
:101CF0008093F100FACFC20ED31E112319F09092F7
:101D0000E80009C08091E80085FD06C09092E800D7
:101D100011E0209709F010E04FBFC3CF1111C3CFDE
:101D20005D9884E68093B5011E141F0444F081E0A1
:101D300090E0F5019383828380E090E001C0C701C9
:101D4000DF91CF911F910F91FF90EF90DF90CF9097
:101D5000BF90AF909F908F9008950E944E1490E096
:101D600008950F931F93CF93DF931F92CDB7DEB7E4
:101D70008C01FC018485958597FF0EC0CE010196EC
:101D80000E942414019719F4298130E002C02FEF3A
:101D90003FEFF80135872487F801848595850F90FA
:101DA000DF91CF911F910F910895CF93DF931F92F1
:101DB000CDB7DEB7FC018485958597FD05C02FEF73
:101DC0003FEF358724870BC0CE0101960E94241473
:101DD000019719F4898190E002C08FEF9FEF0F9077
:101DE000DF91CF910895DF92EF92FF920F931F93AF
:101DF000CF93DF93D82E8A017B01E40EF51EEB0111
:101E0000CE15DF0571F0D7FE03C0FE01849101C03D
:101E100088810E94731421968111F2CF8FEF9FEF7A
:101E200001C0C801DF91CF911F910F91FF90EF90FA
:101E3000DF9008950F931F93CF93DF931F92CDB739
:101E4000DEB782E0898342E450E069E87EE080E822
:101E50000E94F30E0E945F14DC0112960D911C91FA
:101E600013970115110569F0D801ED91FC910280DD
:101E7000F381E02DBE016F5F7F4FC801099597FF89
:101E800007C089810F90DF91CF911F910F91089525
:101E9000F80100851185E5CF1F920F920FB60F92C2
:101EA00011248F939F938091E1009091E100937FA3
:101EB0009093E10083FF0FC01092E90091E09093AE
:101EC000EB001092EC0092E39093ED001092B701BA
:101ED00098E09093F00082FF20C093E09093E90097
:101EE0009091F200992319F09AE39093E800909171
:101EF000B501992339F09091B50191509093B501B6
:101F0000992389F19091B601992339F09091B60106
:101F100091509093B601992341F184FF10C08091B4
:101F2000E2008E7E81608093E2008091E1008F7EEE
:101F30008093E1008091B4018E7E806111C080FFAA
:101F400016C08091E2008E7E80618093E2008091D5
:101F5000E1008E7E8093E1008091B4018E7E8160ED
:101F60008093B40104C05D9ACDCF289AD6CF9F91BB
:101F70008F910F900FBE0F901F9018951F920F9288
:101F80000FB60F921124CF92DF92EF92FF920F9330
:101F90001F932F933F934F935F936F937F938F93F1
:101FA0009F93AF93BF93EF93FF93CF93DF93CDB7FF
:101FB000DEB76C97DEBFCDBF1092E9008091E800DC
:101FC00083FFEDC168E0CE0145960E94A11482EF27
:101FD0008093E8008D8987FF05C09091E80090FF0D
:101FE000FCCF03C09EEF9093E800982F907609F005
:101FF000C6C09E892F89188D91110CC0803829F494
:102000008091B3018093F10002C01092F100109210
:10201000F10048C1422F50E0512B913051F4811111
:1020200041C14130510509F03DC18091B3018D7F1F
:102030000BC0933061F4811135C14130510509F075
:1020400031C18091B30182608093B3012BC195307F
:1020500041F48091E80080FFFCCF20682093E300EA
:1020600021C1963009F05FC0EB8CFC8C1092E90026
:102070001092B1011092B001123091F51092AF019F
:102080001092AE010E941A0F99E0BE016F5F7F4F60
:10209000DB01E92F1D92EA95E9F799831A8391E014
:1020A0009E8390EA98879AEF99872091B0013091AA
:1020B000B101275F3F4F3C832B838D831092E90052
:1020C0001092B1011092B001F092AF01E092AE0116
:1020D00049E050E080E00E94F30E0E941A0FE2C037
:1020E000F092AF01E092AE010E945F14DC01129603
:1020F000ED90FC901397E114F10409F4C0C0D701EE
:10210000ED91FC910480F581E02DBE016B5E7F4F67
:10211000C7010995009719F00CF0C4C0C7C0F701BA
:10212000E084F184E8CF973009F4C0C0983021F4FE
:1021300081E08093F100B6C0993009F0B3C083709C
:1021400009F0B4C0E5E3F1E081E021E036E39081FD
:10215000992361F08093E9002093EB009191909393
:10216000EC003093ED008F5F873089F78EE7809326
:10217000EA001092EA008F898093B70193C08B8D9B
:102180009C8D1092E9001092B1011092B0019093D1
:10219000AF018093AE01898D811156C08E899D89D2
:1021A000913A59F4813209F081C047E050E06FE084
:1021B00071E080E00E94F30E75C0913209F076C0A4
:1021C000833289F4888D90E0982F88272F89822B7D
:1021D000A0E0B0E080930B0190930C01A0930D015F
:1021E000B0930E015FC0803269F48091E80082FFF5
:1021F000FCCF67E08FE091E00E94A1148BEF809309
:10220000E80006C0823209F04DC08F898093160124
:102210008091B201882319F0EEEFFAE002C0E0E00D
:10222000F8E080910F0190911001A0911101B091FF
:102230001201803B9440A105B10509F07BC080915B
:10224000160180FF93C076C00E945F14DC011296D5
:102250000D911C9113970115110541F1D801ED91D4
:10226000FC910190F081E02DBE016B5E7F4FC801B3
:102270000995811117C0F80100851185ECCF113047
:1022800009F44EC0133091F48F89882309F445C0B6
:10229000823081F440E867E08DEE9EE00E948E1F60
:1022A000882321F08EEF8093E80079C081E280934B
:1022B000EB0075C0813029F440E86BE081EE9EE0D0
:1022C000EDCF833099F70E945F14DC011296ED90F8
:1022D000FC9013978E010F5F1F4F6801E114F1040A
:1022E00079F0D701ED91FC910680F781E02DB801DE
:1022F000C7010995080F111DF701E084F184EECFA5
:10230000D8011C92F60101900020E9F73197BF0136
:102310006C197D0940E0C601C1CF6BEC7EE002C0C4
:102320006FEC7EE06115710509F2FB01449150E00C
:1023300080E840CF0FB6F894A8958091600088613E
:1023400080936000109260000FBEA895EE3F2AE0D7
:10235000F20739F08091FE0A9091FF0A9183808301
:10236000A1CF1092FF0A1092FE0A9CCFEE3F8AE0A6
:10237000F80731F0808191819093FF0A8093FE0AE3
:1023800087E797E7918380839BE088E10FB6F89415
:10239000A895809360000FBE9093600083CF6C96E9
:1023A0000FB6F894DEBF0FBECDBFDF91CF91FF9186
:1023B000EF91BF91AF919F918F917F916F915F91BD
:1023C0004F913F912F911F910F91FF90EF90DF90D0
:1023D000CF900F900FBE0F901F90189580E0EAEB02
:1023E000F1E081118FEF0024819381938193819398
:1023F0000394D1F7089520917F06282329F4909122
:102400007E06982381E009F480E00895EF92FF9220
:102410000F931F93CF93DF93CDB7DEB72C970FB6F3
:10242000F894DEBF0FBECDBF49835A836B837C8394
:102430009E83EF82F88609871A872B873C87E9817C
:10244000FA816B817C814F81588529853A85DF012E
:10245000A80FB11D4A175B07A4F48B85480F511DC7
:10246000E417F50774F48E81AB01480F511D241752
:1024700035073CF48C85280F311D81E06217730706
:102480000CF080E02C960FB6F894DEBF0FBECDBFE7
:10249000DF91CF911F910F91FF90EF900895AF9230
:1024A000BF92CF92DF92EF92FF920F931F93CF9341
:1024B000DF93CDB7DEB72C970FB6F894DEBF0FBE13
:1024C000CDBF5C0186E0EBE3F1E0DE011796019001
:1024D0000D928A95E1F7C090B801D090B90182E0E1
:1024E000C816D10468F42115310551F478876F833B
:1024F0004E5F5F4F5A87498788E08B8784E017C01B
:10250000C6010297029768F42115310551F46E5FF8
:102510007F4F78876F835A87498784E08B8788E06D
:1025200006C078876F835A87498788E08B878C87B6
:10253000FE01319686E0DF011D928A95E9F7F501EB
:10254000808191819A838983828193819C838B830B
:1025500021153105D1F4E980FA800B811C8121E03D
:1025600031E04F81588569857A858B859C850E94ED
:1025700006128823C1F181E0D50119962D913C9175
:102580001A972C153D0571F52EC021303105C1F487
:10259000E980FA800B811C8121E031E04F81588570
:1025A00069857A858B859C850E9406128823D9F0DF
:1025B00081E0F501218532852C153D05A1F412C07D
:1025C0002230310579F4E980FA800B811C8121E009
:1025D00031E04F81588569857A858B859C850E947D
:1025E000061201C080E02C960FB6F894DEBF0FBE35
:1025F000CDBFDF91CF911F910F91FF90EF90DF90B2
:10260000CF90BF90AF900895009769F0FC010190C2
:102610000020E9F73197AF01481B590BBC0185E752
:1026200096E00C94A60780E090E008952F923F92E8
:102630004F925F926F927F928F929F92AF92BF92D2
:10264000CF92DF92EF92FF920F931F93CF93DF937E
:10265000CDB7DEB728970FB6F894DEBF0FBECDBF5B
:102660005A01822E912C9C01280D391D37FDC4C0C2
:10267000803891050CF0C0C09B01200F311D37FD43
:10268000BBC0603471050CF0B7C0AB0177FF04C06C
:1026900044275527461B570B477055279B0177FF4B
:1026A00002C0295F3F4FE3E035952795EA95E1F7B2
:1026B00077FF08C02150310968E070E0DB01A41BFE
:1026C000B50BAD01602F66956695669570E0077055
:1026D00011F06F5F7F4FDB01A20FB31FBA83A98395
:1026E00039017694762C662477946794680E791E67
:1026F000E12CF12C00E010E02301B0E84B0E511C5E
:1027000068E070E0DB01A41BB50BBC83AB8369817F
:102710007A812617370709F46FC02830310509F48C
:102720006BC02F3FBFEF3B070CF45BC0B201600FE3
:10273000711FDB01A654BE4FBE83AD83D801A60D29
:10274000B71DA654BE4F6C0160E070E068157905B6
:102750000CF047C0E0E8CE16D10409F442C0D7FC23
:1027600034C02F3FFFEF3F0709F442C0FB01EE0DDD
:10277000FF1DEA0DFB1DE491042E01C0EE0F0A942B
:10278000EAF73C90E329EC9341155105F1F027302D
:102790003105D9F0FB01EE0DFF1DEA0DFB1DE491A3
:1027A0002E2E312CF1010B8002C0F595E7950A948D
:1027B000E2F7F887EF83ED81FE813080EF81F885C5
:1027C000E3291F01ED81FE8120826F5F7F4FED8144
:1027D000FE813196FE83ED83FFEFCF1ADF0A11965B
:1027E000B5CF2F5F3F4F00581F4FE80CF91C8FCF1C
:1027F0004115510579F6E9CF28960FB6F894DEBF5A
:102800000FBECDBFDF91CF911F910F91FF90EF9041
:10281000DF90CF90BF90AF909F908F907F906F9000
:102820005F904F903F902F900895EAEBF1E0A0E089
:10283000B8E000800EBC8111012C1197A0FDFDCFE6
:102840000192B9F70DB40895FC018091B70181118F
:1028500003C08FEF9FEF08959FB7F89482E08093B5
:10286000E9002091F20030E01216130614F421E082
:1028700030E02115310559F0289884E68093B6019F
:102880008091F10080838091F200882319F09FBF2E
:10289000C90108958BE68093E800F9CF2FB7F8942B
:1028A00083E08093E9009091E800892F807295FF82
:1028B00004C09091F20080E4891B2FBF089580919D
:1028C000900681110DC082E080938C0684E0809395
:1028D0008D0610928F0610928E0681E080939006EE
:1028E0008CE896E008954091B0015091B10120919B
:1028F000AE013091AF0142175307B4F49091E80054
:102900009570E1F39091E80092FD19C08093F10079
:102910008091B0019091B10101968F739927892B15
:1029200019F48EEF8093E8008091B0019091B1018D
:1029300001969093B1018093B00181E0089580E009
:102940000895615030F02091F100FC012083019640
:10295000F8CF289884E68093B6010895CF93DF934B
:10296000CDB7DEB7A1970FB6F894DEBF0FBECDBFCF
:10297000789484B5826084BD84B5816084BD85B55A
:10298000826085BD85B5816085BD80916E00816066
:1029900080936E001092810080918100826080930C
:1029A000810080918100816080938100809180000E
:1029B000816080938000809191008260809391007B
:1029C000809191008160809391008091900081605E
:1029D000809390008091C10084608093C1008091B9
:1029E000C10082608093C1008091C10081608093AA
:1029F000C1008091C30081608093C3008091C000BA
:102A000082608093C0008091C20081608093C20088
:102A100080917A00846080937A0080917A0082604D
:102A200080937A0080917A00816080937A0080910F
:102A30007A00806880937A001092B7011092B301F7
:102A40001092B4018091D70081608093D70080EA12
:102A50008093D80089B5806189BD89B5826089BDC0
:102A600009B400FEFDCF61E070E080E090E00E94DC
:102A700085098091D8008F7C80618093D8008091F7
:102A8000E000807F8093E0008091E1008E7E809363
:102A9000E1008DE08093E200559A209AEEEFFFE787
:102AA000859194918B3F9C4D19F481E08093B20104
:102AB00081EC80937C0085B1806F85B984B1877E7D
:102AC00084B984B1876E84B95E9A5F988AB1806D4B
:102AD0008AB9769A6E9881B3806F81BB899880B3EA
:102AE0008D7080BB80E58CBD81E08DBD85E090E080
:102AF0000E94650C5F9A85E090E00E94650C5E98EC
:102B00005C98ECE5F1E08DE08E0F94919EBD0000A5
:102B10000DB407FEFDCF31968E13F7CF5C9A81E896
:102B2000809364008091650081608093650080E0FF
:102B30000E9415140E946A0C87FF24C05C9885EAE5
:102B40008EBD00000DB407FEFDCF5C9A2E982F9825
:102B50002D988091640080628093640081E083BF3F
:102B6000889513BEFCCF2D980E946A0C8478843817
:102B700071F00E946A0C8471843131F188EC90E02C
:102B80000E94650C0E946A0C82FDEDCF3AC00E9443
:102B9000630C88EC90E00E94650C2F9882E090E036
:102BA0000E94C5218F3F29F06FEF82E090E00E94E4
:102BB000CD2184EF91E00E94650C2F9A0E946A0C4F
:102BC00084788438D9F3D5CF0E94630C88EC90E0E8
:102BD0000E94650C2E9882E090E00E94C521882317
:102BE00029F060E082E090E00E94CD2184EF91E046
:102BF0000E94650C2E9A0E946A0C84718431D9F36C
:102C0000BDCF0E94630C82E090E00E94C521882322
:102C100019F00E94720C04C0109296013E983F98E1
:102C200081E090E00E94780C82FB112710F981FF6F
:102C300044C011112E9830EFE32EFF24FA940E9425
:102C40006A0C86FF04C02E9A2F9A2D9A36C0112343
:102C500031F034E0E316F10411F42E9A2F9881E05C
:102C60000E94151400E128E54CEA50E0B70184E128
:102C700090E00E94161380E00E9415148FE090E00F
:102C80000E94650C6FEFE61AF60A89E1E816F10476
:102C9000B1F6112311F02F9A2D9880E991E00E944E
:102CA000650C0E94630CE0917906F0917A06019020
:102CB000F081E02D89E796E0099582E390E00E949B
:102CC000650C0E946A0C8111F8CF82E48093800623
:102CD0000E94EE11109287061092860610928506C9
:102CE000109284061092A7011092A60182E090E053
:102CF0009093B9018093B8019AE0292E312C412C90
:102D0000512C22E0822E912CAA24A394B12C8FB7AF
:102D1000F8944091970150919801609199017091B8
:102D20009A018FBF80918106942F981B892F9091D3
:102D30008206992329F08093830610928206FDC0B3
:102D400090918006891748F48F5F891708F0F5C0C5
:102D500081E083BF889513BEF0C081E08093820636
:102D60004093810680917C0690917D060196909318
:102D70007D0680937C0680917E0680937F060E946C
:102D80006A0C80937E060E94EE11109287061092C4
:102D90008606109285061092840680919B018823F6
:102DA00031F0815080939B01882309F4CEC00E94AA
:102DB000720C0AEB602E05E0702EE12CF12C10E372
:102DC000C12E11E0D12E00E010E0D6018D916D01F1
:102DD000811102C020E004C0823041F4F30120815F
:102DE0004BE258E0B801C7010E94EE0B005F1F4F95
:102DF0000034110551F7F0E1EF0EF11C2FEF621ACC
:102E0000720A30E8E316F104D1F6B2E06B2EB1E0BD
:102E10007B2EE12CF12CD3012D913D010091A401D9
:102E20001091A5014BE258E06AEF7FEFC701801BCC
:102E3000910B0E94EE0BB0E1EB0EF11CE0E9EE16F7
:102E4000F10449F70F5F1F4F0031110529F010936E
:102E5000A5010093A4012DC01092A5011092A40118
:102E60000E94592120910301209302012091040125
:102E70002093030120910501209304012091060174
:102E8000209305012091070120930601209108015C
:102E900020930701209109012093080120910A0144
:102EA0002093090163E070E00E944A228F5F8093C3
:102EB0000A0180E80E94FB11182F882359F080E254
:102EC0000E94FB11811106C080E40E94FB1188233F
:102ED00009F47BC780E10E94FB11082F882329F0A9
:102EE00080E20E94FB11882399F180E40E94FB118B
:102EF000882319F0112309F46DC780E20E94FB11A9
:102F0000882319F0112309F46EC78091A8018F5FFF
:102F1000893140F58093A8018091A6019091A70185
:102F20008230910509F48CC104F5009709F46BC453
:102F30000197F1F180E00E94151480E090E0892B68
:102F400009F4E5CE0E940000DFCE109290002FCF52
:102F500080E40E94FB118111C8CFB092B901A09208
:102F6000B801D3CF1092A801D7CF8430910509F4CE
:102F7000D6C40CF491C20597E9F681E891E00E946D
:102F800004138CE390E090938506809384068EE191
:102F900090E090938706809386062091A20130915D
:102FA000A30140E050E019A28E010F5D1F4F09C43C
:102FB0008091010110910001882319F1123068F00D
:102FC00080913F069091400690936D0680936C0629
:102FD000809141069091420608C08CE390E0909366
:102FE0006D0680936C068EE090E090936F06809360
:102FF0006E0610927306109272061092A80110923B
:1030000001018091B8019091B9018230910549F494
:1030100010926B068FEF9FEF90937106809370066E
:1030200009C0039739F481E080936B06B092710672
:10303000A092700680917406893108F45CC02091DA
:103040006E0630916F0628333105E4F540916C0629
:1030500050916D068091700690917106840F951FB6
:1030600090936D0680936C064091A801437051F4D3
:1030700040916A06240F311D47FD3A9530936F0643
:1030800020936E0697FF0CC0B0927106A092700656
:1030900081E080936B0610926D0610926C061BC047
:1030A00089379105C4F08FEF9FEF9093710680935D
:1030B000700610926B0688E790E090936D068093FF
:1030C0006C0609C0809172069091730601969093E8
:1030D00073068093720680917206909173064F97E3
:1030E0006CF01092A80181E0809301019092A701F9
:1030F0008092A60103C08F5F8093740660916E0674
:1031000070916F0680916C0690916D06123068F098
:1031100020917406293148F426956450710949E8D4
:1031200056E004970E94EE0B09C020916B0647E71A
:1031300056E00E94EE0B123008F4FCCE08E016E0D8
:10314000C8010E94C80CC8010E947A0C055F1F4F7D
:10315000F6E00F331F07A1F7FEEDEF2EF5E0FF2E8F
:1031600077247394A5E0CA2ED12CD701ED91FC9160
:103170000280F381E02DC7010995D701ED91FC9103
:103180000190F081E02DC7010995D701ED91FC91E7
:1031900040916E0650916F0660916C0670916D06BD
:1031A0000480F581E02D08E010E028E030E0C70160
:1031B0000995882331F070920101D092A701C09245
:1031C000A601BEE0EB0EF11CEAEFEE16E5E0FE060E
:1031D00061F6E091C205F091C3050084F185E02D10
:1031E00082EC95E00995E091C205F091C305068057
:1031F000F781E02D82EC95E00995E091C205F09110
:10320000C30540916E0650916F0660916C067091F7
:103210006D060284F385E02D08E010E028E030E040
:1032200082EC95E00995882309F484CE81E08093AF
:10323000010185E090E09093A7018093A6017ACEEA
:10324000809101018823F1F080916C0690916D06C8
:103250000897909361068093600680916E06909126
:103260006F06089790936306809362061092690632
:103270001092680680916B0680935F061092A801F9
:10328000109201018091B8019091B901A09160065E
:10329000B09161066090620670906306823091057D
:1032A00031F481E080935F06CD01029706C0039759
:1032B00071F410925F06CD010A9690936506809393
:1032C0006406C30104979093670680936606809115
:1032D000A8016FE00E943E22911109C0809168060A
:1032E0009091690601969093690680936806809193
:1032F0006806909169064F975CF01092A80181E0F2
:103300008093010123E030E03093A7012093A601D0
:1033100060915F06E5E3F6E00491E6E3F6E0E49011
:10332000662319F1402F50E08E2D8695869586955F
:10333000282F30E081E090E07E2D777011F480E05E
:1033400090E0820F931F489F9001499F300D589F36
:10335000300D1124629FA001639F500D11249A012A
:103360002D503A4F495C594F04C023EF35E047E3F5
:1033700056E0CC24C394B301CD010E94090A809188
:103380005F06813031F4609166067091670621E036
:1033900007C081110DC0609166067091670620E03C
:1033A00041EE55E080916406909165060E94EE0B17
:1033B000E8E0EE2EE6E0FE2E8701C8010E94C80C70
:1033C000C8010E947A0C4091660650916706609190
:1033D00064067091650621E030E0C8010E944F123A
:1033E000882389F0C8010E94890C209100018091F6
:1033F000A2019091A301820F911D9093A30180934C
:10340000A2010E94210D055F1F4FF6E00F331F0739
:10341000A1F680910001823008F48CCDC7010E9492
:10342000C80CC7010E947A0C2BE0E20EF11C3FE3AE
:10343000E31636E0F30691F70EED15E072ECE72E99
:1034400075E0F72ED801ED91FC910280F381E02D1B
:10345000C8010995D801ED91FC910190F081E02D12
:10346000C8010995D701ED91FC910084F185E02D0B
:10347000C7010995D701ED91FC910680F781E02DF8
:10348000C7010995025F1F4FBEE0EB0EF11CE5E09E
:103490000A3F1E07B9F64ECD809101018823C1F085
:1034A0008091600690916106909352068093510638
:1034B0008091620690916306909354068093530620
:1034C0001092010110925C0610925B0610925D064C
:1034D00020915D06609153067091540680915106CB
:1034E000909152062D3120F426954FEF53E01EC0E7
:1034F0002091A1012223B1F000919F011091A00120
:10350000F801E95DFE4F309159062081230F4DE708
:1035100053E00E94EE0B0F5F1F4F1093A00100932A
:103520009F0106C0209159064DE753E00E94EE0B23
:1035300080919F019091A001099734F01092A10110
:103540001092A00110929F018091A101811122C0CF
:103550008091B8019091B901009729F410925A0610
:103560001092590617C08230910529F4B0925A067C
:10357000A09259060FC08130910529F490925A0605
:103580008092590607C08330910521F490935A0622
:10359000809359061091A801912F937080915D0638
:1035A00091110CC08D3150F020915106309152068E
:1035B0002150310930935206209351068E3120F468
:1035C0008F5F80935D0602C010925E0684E00E94C9
:1035D000FB11882389F080915E0681110DC00AC419
:1035E000823091050CF01EC4892B31F48CEF9FEFD3
:1035F0009093580680935706409155065091560671
:10360000E0915106F0915206E40FF51FF093520637
:10361000E093510620915706309158066091530669
:1036200070915406620F731F709354066093530693
:10363000141615061CF44150510905C041155105D9
:1036400031F04F5F5F4F5093560640935506121668
:1036500013061CF42150310905C02115310531F044
:103660002F5F3F4F3093580620935706E937F105F7
:103670003CF088E790E0909352068093510616C084
:10368000F7FF05C010925206109251060FC0633327
:1036900071051CF082E390E005C06730710534F4D9
:1036A00087E090E09093540680935306812F6FE05B
:1036B0000E943E22911109C080915B0690915C06A8
:1036C000019690935C0680935B0680915B069091D7
:1036D0005C064F975CF01092A80181E08093010195
:1036E00084E090E09093A7018093A60108E016E0A3
:1036F000C8010E94C80CC8010E947A0C4091530670
:1037000050915406609151067091520620E030E0CD
:10371000C8010E944F12882389F0C8010E94890CB9
:10372000209100018091A2019091A301820F911D2F
:103730009093A3018093A2010E94210D055F1F4F6A
:10374000F6E00F331F07A1F65EEDE52E55E0F52EEE
:103750007724739465E0C62ED12CD701ED91FC91AE
:103760000280F381E02DC7010995D701ED91FC910D
:103770000190F081E02DC7010995D701ED91FC91F1
:103780004091530650915406609151067091520633
:103790000480F581E02D08E010E028E030E0C7016A
:1037A0000995882329F080915E06882309F440C397
:1037B000BEE0EB0EF11CE8E0EE16E6E0FE0669F670
:1037C000B9CBCA01B901A20191010E940D22605D2D
:1037D000D8016E938D01211531054105510589F7F9
:1037E000CD010E94041311E01093000188E00E94B3
:1037F000FB11882309F49ECB109301011092A701BD
:103800001092A60197CB00E220E64DEF51E06AE06E
:1038100070E080E190E00E94161382E290E09093C5
:103820008506809384068DE290E0909387068093CE
:1038300086068AE891E00E94041384E00E94FB114E
:10384000882369F1809164008E7F80936400809169
:103850007A00806480937A0080917A0086FDFCCFA4
:1038600000917800109179000E94600920E030E01A
:10387000980111270027600F711F821F931F611588
:1038800071058105910511F00E94BC2180916400B1
:10389000816080936400B092A701A092A60108E025
:1038A00016E0C8010E94C80CC8010E947A0C055F8E
:1038B0001F4FB6E00F331B07A1F70EED15E0D8013F
:1038C000ED91FC910280F381E02DC8010995D801AA
:1038D000ED91FC910190F081E02DC8010995025F06
:1038E0001F4FB6E008301B0751F702EC15E0D80176
:1038F000ED91FC910084F185E02DC8010995D80176
:10390000ED91FC910680F781E02DC8010995025FD9
:103910001F4FB5E00E3D1B0709F40CCBE8CF80919B
:103920000101882319F110927406209151063091FB
:1039300052063093400620933F06809153069091A3
:103940005406909342068093410630934406209398
:1039500043060896909346068093450610924E06BD
:1039600010924D0610924F061092010120914F06C1
:1039700080913F0690914006609141067091420609
:103980002D3020F426954BEC51E03BC030919E0148
:10399000332321F1233110F100919C0110919D01FD
:1039A000F801E15EFE4FF0802F2D49E651E00E94C4
:1039B000EE0B24E02F0D609145067091460649E616
:1039C00051E080914306909144060E94EE0B0F5FF8
:1039D0001F4F10939D0100939C0115C020914B0631
:1039E00049E651E00E94EE0B20914B062E5F60915C
:1039F00045067091460649E651E080914306909154
:103A000044060E94EE0B80919C0190919D010897C5
:103A100034F010929E0110929D0110929C018091B1
:103A20004F06843118F48F5F80934F0600919E01FA
:103A300001111CC08091B8019091B90182309105AB
:103A400059F410924C0610924B068FEF9FEF909313
:103A50004806809347060AC0039741F4B0924C068B
:103A6000A0924B06B0924806A09247061091A8017A
:103A7000812F69E00E943E22911110C08091410681
:103A8000909142069C012F5F3F4F30934206209356
:103A900041060996909346068093450684E00E946D
:103AA000FB118823D9F0011119C081E080939E0198
:103AB00080914B0690914C06009709F0C0C18EEFA3
:103AC0009FEF90934A068093490680914706909114
:103AD0004806039790934806809347060E946A0C15
:103AE00090919E0183FF03C0992309F4B8C12091EE
:103AF0004706309148069923A9F08091430690919A
:103B00004406820F931F909344068093430680914E
:103B10003F0690914006820F931F9093400680933A
:103B20003F0603C0812F837041F3409149065091B5
:103B30004A068091410690914206840F951F90930A
:103B40004206809341066091450670914606640FD7
:103B5000751F7093460660934506223031051CF0B0
:103B60002150310906C02F3FFFEF3F073CF42F5F84
:103B70003F4F309348062093470608C057FF06C0C2
:103B80004F5F5F4F50934A064093490620913F068E
:103B900030914006293731055CF088E790E090933A
:103BA000400680933F06909344068093430625C0C9
:103BB00037FF09C01092400610923F06109244064B
:103BC000109243061AC08A3291054CF089E290E0C7
:103BD000909342068093410681E390E00AC00497E7
:103BE00064F484E090E090934206809341068CE078
:103BF00090E09093460680934506812F6FE00E94E7
:103C00003E22911109C080914D0690914E06019679
:103C100090934E0680934D0680914D0690914E06EE
:103C20004F9774F01092A80181E080930101809178
:103C300000018F5F80930001B092A701A092A601BE
:103C400008E016E0C8010E94C80CC8010E947A0C66
:103C50004091450650914606609143067091440696
:103C600022E030E0C8010E944F12882389F0C80189
:103C70000E94890C209100018091A2019091A301E2
:103C8000820F911D9093A3018093A2010E94210DA8
:103C9000055F1F4F26E00F331207A1F68EEDE82EC9
:103CA00085E0F82EDD24D39495E0692E712CD701A0
:103CB000ED91FC910280F381E02DC7010995D701B8
:103CC000ED91FC910190F081E02DC7010995D7019C
:103CD000ED91FC9140914106509142064C5F5F4F3F
:103CE00060913F06709140060480F581E02D04E06C
:103CF00010E028E030E0C7010995882331F0D09228
:103D000001017092A7016092A601D701ED91FC918B
:103D100040914506509146066091430670914406D5
:103D20000480F581E02D08E010E028E030E0C701D4
:103D300009958823C9F0D701ED91FC914091410686
:103D4000509142064C5F5F4F60913F067091400674
:103D50000480F581E02D04E010E028E030E0C701A8
:103D60000995882309F480C0BEE0EB0EF11CEAEF50
:103D7000EE16E5E0FE0609F09ACFE091C205F0915B
:103D8000C3050084F185E02D82EC95E00995E09172
:103D9000C205F091C3050680F781E02D82EC95E025
:103DA0000995E091C205F091C305409141065091FB
:103DB00042064C5F5F4F60913F067091400602845F
:103DC000F385E02D0CE010E029CA1092B9011092A1
:103DD000B8019BC8011191C823E030E03093B901CC
:103DE0002093B80192C8011190C89092B9018092B5
:103DF000B8018BC881E08093A10180915906909110
:103E00005A068130910509F0EBCB8CEF9FEF05C08E
:103E1000039709F0F1CB84E090E0909356068093ED
:103E20005506EACB8230910599F784E090E0E0CB2B
:103E300070920101D092A701C092A601B9CC01975E
:103E400009F04CCE8EEF9FEF90934A06809349067F
:103E5000E3E0F0E0F0934806E09347063FCE90920F
:103E60004A068092490643CEC7010E948B0D0E94EC
:103E7000210D209100018091A2019091A30133E0D6
:103E8000239F800D911D11249093A3018093A20183
:103E90006BCF0F931F93CF93DF938C0181E090E062
:103EA0000E94780C80FF32C08AE090E00E94780C7B
:103EB0009FEF980F9E3F50F522E330E0D8015096D7
:103EC0003C932E931F9728E330E052963C932E9319
:103ED0005197CBE0D0E0D801ED91FC910190F081B9
:103EE000E02D682FC8010995CE010E94780C21961B
:103EF000C131D10581F780E00E94151488EE93E06E
:103F0000DF91CF911F910F910C94650CDF91CF91B0
:103F10001F910F91089504970C94491FCF92DF923F
:103F2000EF92FF920F931F93CF93DF931F92CDB722
:103F3000DEB7182F062FE42E862F880F8E5F998309
:103F40000E94731483E00E947314F12EC12E998194
:103F5000D92E8C2D8F19801798F4F601E7FE02C038
:103F6000849101C080810E947314182F80E00E9408
:103F700073148123FFEFCF1ADF0A8111EACF01C04A
:103F800081E00F90DF91CF911F910F91FF90EF9003
:103F9000DF90CF900895EF92FF920F931F93CF93EE
:103FA000DF9310929B0610929A0688EE93E0A0E0B1
:103FB000B0E080939C0690939D06A0939E06B093DC
:103FC0009F0685E491E090939906809398068FEF81
:103FD0009FEF9093A5068093A4060E945921C3E009
:103FE000D0E0BE010E944A228C5F8093BA050E94F5
:103FF0005921BE010E944A228C5F8093BB050E941A
:104000005921BE010E944A228C5F8093BC050E9408
:104010005921BE010E944A228C5F8093BD050E94F7
:104020005921BE010E944A228C5F8093BE050E94E6
:104030005921BE010E944A228C5F8093BF050E94D5
:104040005921BE010E944A228C5F8093C0050E94C4
:104050005921BE010E944A228C5F8093C10581E0F4
:1040600080936A0699E1909374062EE330E03093D2
:104070006D0620936C0620E130E030936F062093AC
:104080006E0680936B061092710610927006109265
:1040900073061092720610926106109260061092DA
:1040A00063061092620610925F06109269061092E3
:1040B00068064AE050E050936506409364066CEF52
:1040C0007FEF709367066093660610925A0610920F
:1040D000590610925C0610925B0610925D06809362
:1040E0005E0650935206409351064EE150E05093C5
:1040F00054064093530610924C0610924B061092B1
:104100004E0610924D0610924F06809350068CE397
:1041100090E09093400680933F06309342062093B0
:104120004106909344068093430688E190E0909383
:10413000460680934506C8E0D6E0CE010E94E00C1A
:104140002B9686E0CF33D807C1F7CEEDD5E007E652
:1041500011E0CE0102960E94E00C198308830E94B0
:104160005921CE010E948B0D2E9686E0C830D807CB
:1041700081F7C2ECD5E087E6E82E81E0F82E07E56E
:1041800011E0CE0102960E94E00CF982E8820E94C2
:104190005921CE010E948B0D198308830E94592159
:1041A000CE010E942E0D2E9685E0CE3DD80749F710
:1041B000109278061092770610927E0610927F0673
:1041C00080E18093800610927D0610927C0610920A
:1041D000820681E791E090937606809375068FE7DB
:1041E00091E090937A06809379061092850610925A
:1041F0008406109287061092860681E080938806D6
:104200001092890680938A0610928B06DF91CF91D7
:104210001F910F91FF90EF9008958F929F92AF9210
:10422000BF92CF92DF92EF92FF92CF93DF93EC0198
:10423000688179818A819B8161157105810591056C
:1042400021F464E279ED8BE597E02DE133EF41E075
:1042500050E00E94DB2149015A019B01AC01A7EA11
:10426000B1E40E94FA216B017C01ACEEB4EFA50130
:1042700094010E940822DC01CB018C0D9D1DAE1D16
:10428000BF1DB7FF03C00197A109B0488883998378
:10429000AA83BB839F77DF91CF91FF90EF90DF9050
:1042A000CF90BF90AF909F908F9008950E940D2166
:1042B000089587E191E00E940D210895A0E0B0E00B
:1042C0008093170190931801A0931901B0931A01DC
:1042D00008958F929F92AF92BF92CF92DF92EF920A
:1042E000FF92CF93DF93EC01688179818A819B8172
:1042F000611571058105910521F464E279ED8BE585
:1043000097E02DE133EF41E050E00E94DB214901CD
:104310005A019B01AC01A7EAB1E40E94FA216B01AA
:104320007C01ACEEB4EFA50194010E940822DC01EF
:10433000CB018C0D9D1DAE1DBF1DB7FF03C00197A6
:10434000A109B04888839983AA83BB83BC01CD01AE
:104350009F77DF91CF91FF90EF90DF90CF90BF904C
:10436000AF909F908F9008950E94692108958BE1EE
:1043700091E00E946921089560931B0170931C01D4
:1043800080931D0190931E010895F999FECF92BD6F
:1043900081BDF89A992780B50895262FF999FECF07
:1043A0001FBA92BD81BD20BD0FB6F894FA9AF99A52
:1043B0000FBE01960895052E97FB1EF400940E94EF
:1043C000F22157FD07D00E940D2207FC03D04EF4C6
:1043D0000C94F22150954095309521953F4F4F4FC9
:1043E0005F4F089590958095709561957F4F8F4FA1
:1043F0009F4F08950E942F22A59F900DB49F900D6E
:10440000A49F800D911D11240895B7FF0C94FA21EB
:104410000E94FA21821B930B0895A1E21A2EAA1B77
:10442000BB1BFD010DC0AA1FBB1FEE1FFF1FA21764
:10443000B307E407F50720F0A21BB30BE40BF50B61
:10444000661F771F881F991F1A9469F760957095EA
:10445000809590959B01AC01BD01CF010895A29F6D
:10446000B001B39FC001A39F700D811D1124911D48
:10447000B29F700D811D1124911D0895991B79E043
:1044800004C0991F961708F0961B881F7A95C9F7E4
:104490008095089597FB072E16F4009407D077FDBA
:1044A00009D00E945E2207FC05D03EF490958195CC
:1044B0009F4F0895709561957F4F0895AA1BBB1B70
:1044C00051E107C0AA1FBB1FA617B70710F0A61B14
:1044D000B70B881F991F5A95A9F780959095BC0135
:1044E000CD010895EE0FFF1F0590F491E02D099482
:0E44F00081E090E0F8940C947D22F894FFCFC8
:1044FE000101010201030302010203FFFFFFFF009E
:10450E00E1000000000000010000000100000004B6
:10451E0005060707060504000400080C0C0C08002D
:10452E000100000200C180810000000200020002B2
:10453E000200000000ED0D280EAD0E030E0E0ED57E
:10454E000EB10E00000000540CD50D1E092B0C737D
:10455E000DDB0800000000540CD50D1E09000000F4
:10456E0000E907A607D608D508491FFCFF00008BF7
:10457E001F47414D454F564552004220544F205340
:06458E007461727400006C
:00000001FF
